{
  "abi": [
    {
      "inputs": [
        {
          "internalType": "address",
          "name": "_pool",
          "type": "address"
        },
        {
          "internalType": "bool",
          "name": "zeroForOne",
          "type": "bool"
        },
        {
          "internalType": "int256",
          "name": "amountSpecified",
          "type": "int256"
        },
        {
          "internalType": "uint160",
          "name": "sqrtPriceLimitX96",
          "type": "uint160"
        }
      ],
      "name": "calc_v3_swap",
      "outputs": [
        {
          "internalType": "int256",
          "name": "amount0",
          "type": "int256"
        },
        {
          "internalType": "int256",
          "name": "amount1",
          "type": "int256"
        }
      ],
      "stateMutability": "view",
      "type": "function"
    }
  ],
  "bytecode": "608060405234801561001057600080fd5b50611b24806100206000396000f3fe608060405234801561001057600080fd5b506004361061002b5760003560e01c80639fe2228a14610030575b600080fd5b61004361003e36600461188e565b61005a565b604051610051929190611aba565b60405180910390f35b6000808361006757600080fd5b60008690506000816001600160a01b031663ddca3f436040518163ffffffff1660e01b815260040160206040518083038186803b1580156100a757600080fd5b505afa1580156100bb573d6000803e3d6000fd5b505050506040513d601f19601f820116820180604052508101906100df9190611a63565b90506000826001600160a01b0316633850c7bd6040518163ffffffff1660e01b815260040160e06040518083038186803b15801561011c57600080fd5b505afa158015610130573d6000803e3d6000fd5b505050506040513d601f19601f8201168201806040525081019061015491906118fa565b90508060c0015161016457600080fd5b876101af5780600001516001600160a01b0316866001600160a01b03161180156101aa575073fffd8963efd1fc6a506488495d951d5263988d266001600160a01b038716105b6101e1565b80600001516001600160a01b0316866001600160a01b03161080156101e157506401000276a36001600160a01b038716115b6101ea57600080fd5b6000808813905060006040518060c001604052808a81526020016000815260200184600001516001600160a01b03168152602001846020015160020b815260200160006001600160801b03168152602001866001600160a01b0316631a6865026040518163ffffffff1660e01b815260040160206040518083038186803b15801561027457600080fd5b505afa158015610288573d6000803e3d6000fd5b505050506040513d601f19601f820116820180604052508101906102ac91906119a3565b6001600160801b0316905290505b8051158015906102e05750876001600160a01b031681604001516001600160a01b031614155b15610529576102ed6117f0565b60408201516001600160a01b03168152606082015161030e908d908d610561565b15156040830152600290810b810b60208301819052620d89e719910b121561033f57620d89e719602082015261035e565b6020810151620d89e860029190910b131561035e57620d89e860208201525b61036b81602001516107e8565b6001600160a01b0316606082015260408201516103dc908c6103a5578a6001600160a01b031683606001516001600160a01b0316116103bf565b8a6001600160a01b031683606001516001600160a01b0316105b6103cd5782606001516103cf565b8a5b60a0850151855189610b1a565b60c085015260a084015260808301526001600160a01b03166040830152821561042e5760c08101516080820151835191019003825260a0810151602083015161042491610d0c565b6020830152610459565b60a0810151825101825260c08101516080820151602084015161045392909101610d28565b60208301525b80606001516001600160a01b031682604001516001600160a01b031614156104e8578060400151156104bf576000610495878360200151610d3e565b90508b156104a1576000035b6104af8360a0015182610de1565b6001600160801b031660a0840152505b8a6104ce5780602001516104d7565b60018160200151035b600290810b900b6060830152610523565b80600001516001600160a01b031682604001516001600160a01b031614610523576105168260400151610e97565b600290810b900b60608301525b506102ba565b8115158a15151461054257602081015181518a0361054f565b8060000151890381602001515b909c909b509950505050505050505050565b60008060008590506000816001600160a01b031663d0c93a7c6040518163ffffffff1660e01b815260040160206040518083038186803b1580156105a457600080fd5b505afa1580156105b8573d6000803e3d6000fd5b505050506040513d601f19601f820116820180604052508101906105dc91906118e0565b905060008160020b8760020b816105ef57fe5b05905060008760020b12801561061657508160020b8760020b8161060f57fe5b0760020b15155b1561062057600019015b85156106fe57600080610632836111b6565b60405163299ce14b60e11b81529193509150600160ff83161b8001600019019060009082906001600160a01b03891690635339c29690610676908890600401611a9e565b60206040518083038186803b15801561068e57600080fd5b505afa1580156106a2573d6000803e3d6000fd5b505050506040513d601f19601f820116820180604052508101906106c69190611a86565b1680151598509050876106e057858360ff168603026106f3565b856106ea826111c8565b840360ff168603025b9850505050506107dd565b60008061070d836001016111b6565b60405163299ce14b60e11b81529193509150600019600160ff84161b01199060009082906001600160a01b03891690635339c29690610750908890600401611a9e565b60206040518083038186803b15801561076857600080fd5b505afa15801561077c573d6000803e3d6000fd5b505050506040513d601f19601f820116820180604052508101906107a09190611a86565b1680151598509050876107c057858360ff0360ff168660010101026107d6565b85836107cb83611269565b0360ff168660010101025b9850505050505b505050935093915050565b60008060008360020b126107ff578260020b610807565b8260020b6000035b9050620d89e8811115610845576040805162461bcd60e51b81526020600482015260016024820152601560fa1b604482015290519081900360640190fd5b60006001821661085957600160801b61086b565b6ffffcb933bd6fad37aa2d162d1a5940015b70ffffffffffffffffffffffffffffffffff169050600282161561089f576ffff97272373d413259a46990580e213a0260801c5b60048216156108be576ffff2e50f5f656932ef12357cf3c7fdcc0260801c5b60088216156108dd576fffe5caca7e10e4e61c3624eaa0941cd00260801c5b60108216156108fc576fffcb9843d60f6159c9db58835c9266440260801c5b602082161561091b576fff973b41fa98c081472e6896dfb254c00260801c5b604082161561093a576fff2ea16466c96a3843ec78b326b528610260801c5b6080821615610959576ffe5dee046a99a2a811c461f1969c30530260801c5b610100821615610979576ffcbe86c7900a88aedcffc83b479aa3a40260801c5b610200821615610999576ff987a7253ac413176f2b074cf7815e540260801c5b6104008216156109b9576ff3392b0822b70005940c7a398e4b70f30260801c5b6108008216156109d9576fe7159475a2c29b7443b29c7fa6e889d90260801c5b6110008216156109f9576fd097f3bdfd2022b8845ad8f792aa58250260801c5b612000821615610a19576fa9f746462d870fdf8a65dc1f90e061e50260801c5b614000821615610a39576f70d869a156d2a1b890bb3df62baf32f70260801c5b618000821615610a59576f31be135f97d08fd981231505542fcfa60260801c5b62010000821615610a7a576f09aa508b5b7a84e1c677de54f3e99bc90260801c5b62020000821615610a9a576e5d6af8dedb81196699c329225ee6040260801c5b62040000821615610ab9576d2216e584f5fa1ea926041bedfe980260801c5b62080000821615610ad6576b048a170391f7dc42444e8fa20260801c5b60008460020b1315610af1578060001981610aed57fe5b0490505b640100000000810615610b05576001610b08565b60005b60ff16602082901c0192505050919050565b60008080806001600160a01b03808916908a161015818712801590610b9f576000610b538989620f42400362ffffff16620f4240611353565b905082610b6c57610b678c8c8c6001611403565b610b79565b610b798b8d8c600161147e565b9550858110610b8a578a9650610b99565b610b968c8b8386611529565b96505b50610be9565b81610bb657610bb18b8b8b600061147e565b610bc3565b610bc38a8c8b6000611403565b9350838860000310610bd757899550610be9565b610be68b8a8a60000385611575565b95505b6001600160a01b038a8116908716148215610c4c57808015610c085750815b610c1e57610c19878d8c600161147e565b610c20565b855b9550808015610c2d575081155b610c4357610c3e878d8c6000611403565b610c45565b845b9450610c96565b808015610c565750815b610c6c57610c678c888c6001611403565b610c6e565b855b9550808015610c7b575081155b610c9157610c8c8c888c600061147e565b610c93565b845b94505b81158015610ca657508860000385115b15610cb2578860000394505b818015610cd157508a6001600160a01b0316876001600160a01b031614155b15610ce0578589039350610cfd565b610cfa868962ffffff168a620f42400362ffffff166115c1565b93505b50505095509550955095915050565b80820382811315600083121514610d2257600080fd5b92915050565b81810182811215600083121514610d2257600080fd5b60008060008060008060008060008a6001600160a01b031663f30dba938b6040518263ffffffff1660e01b8152600401610d789190611aac565b6101006040518083038186803b158015610d9157600080fd5b505afa158015610da5573d6000803e3d6000fd5b505050506040513d601f19601f82011682018060405250810190610dc991906119bd565b50949e50505050505050505050505050505092915050565b60008082600f0b1215610e4657826001600160801b03168260000384039150816001600160801b031610610e41576040805162461bcd60e51b81526020600482015260026024820152614c5360f01b604482015290519081900360640190fd5b610d22565b826001600160801b03168284019150816001600160801b03161015610d22576040805162461bcd60e51b81526020600482015260026024820152614c4160f01b604482015290519081900360640190fd5b60006401000276a36001600160a01b03831610801590610ed3575073fffd8963efd1fc6a506488495d951d5263988d266001600160a01b038316105b610f08576040805162461bcd60e51b81526020600482015260016024820152602960f91b604482015290519081900360640190fd5b640100000000600160c01b03602083901b166001600160801b03811160071b81811c67ffffffffffffffff811160061b90811c63ffffffff811160051b90811c61ffff811160041b90811c60ff8111600390811b91821c600f811160021b90811c918211600190811b92831c97908811961790941790921717909117171760808110610f9c57607f810383901c9150610fa6565b80607f0383901b91505b908002607f81811c60ff83811c9190911c800280831c81831c1c800280841c81841c1c800280851c81851c1c800280861c81861c1c800280871c81871c1c800280881c81881c1c800280891c81891c1c8002808a1c818a1c1c8002808b1c818b1c1c8002808c1c818c1c1c8002808d1c818d1c1c8002808e1c9c81901c9c909c1c80029c8d901c9e9d607f198f0160401b60c09190911c678000000000000000161760c19b909b1c674000000000000000169a909a1760c29990991c672000000000000000169890981760c39790971c671000000000000000169690961760c49590951c670800000000000000169490941760c59390931c670400000000000000169290921760c69190911c670200000000000000161760c79190911c670100000000000000161760c89190911c6680000000000000161760c99190911c6640000000000000161760ca9190911c6620000000000000161760cb9190911c6610000000000000161760cc9190911c6608000000000000161760cd9190911c66040000000000001617693627a301d71055774c8581026f028f6481ab7f045a5af012a19d003aa9198101608090811d906fdb2df09e81959a81455e260799a0632f8301901d600281810b9083900b146111a757886001600160a01b031661118b826107e8565b6001600160a01b031611156111a057816111a2565b805b6111a9565b815b9998505050505050505050565b60020b600881901d9161010090910790565b60008082116111d657600080fd5b600160801b82106111e957608091821c91015b68010000000000000000821061120157604091821c91015b640100000000821061121557602091821c91015b62010000821061122757601091821c91015b610100821061123857600891821c91015b6010821061124857600491821c91015b6004821061125857600291821c91015b60028210611264576001015b919050565b600080821161127757600080fd5b5060ff6001600160801b0382161561129257607f190161129a565b608082901c91505b67ffffffffffffffff8216156112b357603f19016112bb565b604082901c91505b63ffffffff8216156112d057601f19016112d8565b602082901c91505b61ffff8216156112eb57600f19016112f3565b601082901c91505b60ff821615611305576007190161130d565b600882901c91505b600f82161561131f5760031901611327565b600482901c91505b60038216156113395760011901611341565b600282901c91505b60018216156112645760001901919050565b6000808060001985870986860292508281109083900303905080611389576000841161137e57600080fd5b5082900490506113fc565b80841161139557600080fd5b6000848688096000868103871696879004966002600389028118808a02820302808a02820302808a02820302808a02820302808a02820302808a02909103029181900381900460010186841190950394909402919094039290920491909117919091029150505b9392505050565b6000836001600160a01b0316856001600160a01b03161115611423579293925b816114505761144b836001600160801b03168686036001600160a01b0316600160601b611353565b611473565b611473836001600160801b03168686036001600160a01b0316600160601b6115c1565b90505b949350505050565b6000836001600160a01b0316856001600160a01b0316111561149e579293925b600160601b600160e01b03606084901b166001600160a01b0386860381169087166114c857600080fd5b836114f857866001600160a01b03166114eb8383896001600160a01b0316611353565b816114f257fe5b0461151e565b61151e61150f8383896001600160a01b03166115c1565b886001600160a01b03166115fb565b979650505050505050565b600080856001600160a01b03161161154057600080fd5b6000846001600160801b03161161155657600080fd5b816115685761144b8585856001611606565b61147385858560016116e7565b600080856001600160a01b03161161158c57600080fd5b6000846001600160801b0316116115a257600080fd5b816115b45761144b85858560006116e7565b6114738585856000611606565b60006115ce848484611353565b9050600082806115da57fe5b84860911156113fc5760001981106115f157600080fd5b6001019392505050565b808204910615150190565b600081156116795760006001600160a01b0384111561163c5761163784600160601b876001600160801b0316611353565b611654565b6001600160801b038516606085901b8161165257fe5b045b905061167161166c6001600160a01b038816836117ca565b6117da565b915050611476565b60006001600160a01b038411156116a7576116a284600160601b876001600160801b03166115c1565b6116be565b6116be606085901b6001600160801b0387166115fb565b905080866001600160a01b0316116116d557600080fd5b6001600160a01b038616039050611476565b6000826116f5575083611476565b600160601b600160e01b03606085901b168215611783576001600160a01b0386168481029085828161172357fe5b041415611754578181018281106117525761174883896001600160a01b0316836115c1565b9350505050611476565b505b61177a82611775878a6001600160a01b0316868161176e57fe5b04906117ca565b6115fb565b92505050611476565b6001600160a01b0386168481029085828161179a57fe5b041480156117a757508082115b6117b057600080fd5b80820361174861166c846001600160a01b038b16846115c1565b80820182811015610d2257600080fd5b806001600160a01b038116811461126457600080fd5b6040805160e081018252600080825260208201819052918101829052606081018290526080810182905260a0810182905260c081019190915290565b805161126481611ae0565b8051600281900b811461126457600080fd5b80516001600160801b038116811461126457600080fd5b805161126481611ac8565b805161ffff8116811461126457600080fd5b805160ff8116811461126457600080fd5b600080600080608085870312156118a3578384fd5b84356118ae81611ac8565b935060208501356118be81611ae0565b92506040850135915060608501356118d581611ac8565b939692955090935050565b6000602082840312156118f1578081fd5b6113fc82611837565b600060e0828403121561190b578081fd5b60405160e0810181811067ffffffffffffffff8211171561192857fe5b60405261193483611860565b815261194260208401611837565b60208201526119536040840161186b565b60408201526119646060840161186b565b60608201526119756080840161186b565b608082015261198660a0840161187d565b60a082015261199760c0840161182c565b60c08201529392505050565b6000602082840312156119b4578081fd5b6113fc82611849565b600080600080600080600080610100898b0312156119d9578384fd5b6119e289611849565b9750602089015180600f0b81146119f7578485fd5b80975050604089015195506060890151945060808901518060060b8114611a1c578485fd5b60a08a0151909450611a2d81611ac8565b60c08a015190935063ffffffff81168114611a46578283fd5b9150611a5460e08a0161182c565b90509295985092959890939650565b600060208284031215611a74578081fd5b815162ffffff811681146113fc578182fd5b600060208284031215611a97578081fd5b5051919050565b60019190910b815260200190565b60029190910b815260200190565b918252602082015260400190565b6001600160a01b0381168114611add57600080fd5b50565b8015158114611add57600080fdfea2646970667358221220f3c8742282f1e10639a1836b6f4038ef2cb4e6d89cda6a32b80fcfab7cfccd8c64736f6c63430007060033",
  "bytecodeSha1": "b8e06334db21cc12aa026f42285c7f98eed84c32",
  "compiler": {
    "evm_version": "istanbul",
    "optimizer": {
      "enabled": true,
      "runs": 200
    },
    "version": "0.7.6+commit.7338295f"
  },
  "contractName": "UniV3Calc",
  "language": "Solidity",
  "natspec": {
    "kind": "dev",
    "methods": {},
    "version": 1
  },
  "opcodes": "PUSH1 0x80 PUSH1 0x40 MSTORE CALLVALUE DUP1 ISZERO PUSH2 0x10 JUMPI PUSH1 0x0 DUP1 REVERT JUMPDEST POP PUSH1 0x4 CALLDATASIZE LT PUSH2 0x2B JUMPI PUSH1 0x0 CALLDATALOAD PUSH1 0xE0 SHR DUP1 PUSH4 0x9FE2228A EQ PUSH2 0x30 JUMPI JUMPDEST PUSH1 0x0 DUP1 REVERT JUMPDEST PUSH2 0x43 PUSH2 0x3E CALLDATASIZE PUSH1 0x4 PUSH2 0x188E JUMP JUMPDEST PUSH2 0x5A JUMP JUMPDEST PUSH1 0x40 MLOAD PUSH2 0x51 SWAP3 SWAP2 SWAP1 PUSH2 0x1ABA JUMP JUMPDEST PUSH1 0x40 MLOAD DUP1 SWAP2 SUB SWAP1 RETURN JUMPDEST PUSH1 0x0 DUP1 DUP4 PUSH2 0x67 JUMPI PUSH1 0x0 DUP1 REVERT JUMPDEST PUSH1 0x0 DUP7 SWAP1 POP PUSH1 0x0 DUP2 PUSH1 0x1 PUSH1 0x1 PUSH1 0xA0 SHL SUB AND PUSH4 0xDDCA3F43 PUSH1 0x40 MLOAD DUP2 PUSH4 0xFFFFFFFF AND PUSH1 0xE0 SHL DUP2 MSTORE PUSH1 0x4 ADD PUSH1 0x20 PUSH1 0x40 MLOAD DUP1 DUP4 SUB DUP2 DUP7 DUP1 EXTCODESIZE ISZERO DUP1 ISZERO PUSH2 0xA7 JUMPI PUSH1 0x0 DUP1 REVERT JUMPDEST POP GAS STATICCALL ISZERO DUP1 ISZERO PUSH2 0xBB JUMPI RETURNDATASIZE PUSH1 0x0 DUP1 RETURNDATACOPY RETURNDATASIZE PUSH1 0x0 REVERT JUMPDEST POP POP POP POP PUSH1 0x40 MLOAD RETURNDATASIZE PUSH1 0x1F NOT PUSH1 0x1F DUP3 ADD AND DUP3 ADD DUP1 PUSH1 0x40 MSTORE POP DUP2 ADD SWAP1 PUSH2 0xDF SWAP2 SWAP1 PUSH2 0x1A63 JUMP JUMPDEST SWAP1 POP PUSH1 0x0 DUP3 PUSH1 0x1 PUSH1 0x1 PUSH1 0xA0 SHL SUB AND PUSH4 0x3850C7BD PUSH1 0x40 MLOAD DUP2 PUSH4 0xFFFFFFFF AND PUSH1 0xE0 SHL DUP2 MSTORE PUSH1 0x4 ADD PUSH1 0xE0 PUSH1 0x40 MLOAD DUP1 DUP4 SUB DUP2 DUP7 DUP1 EXTCODESIZE ISZERO DUP1 ISZERO PUSH2 0x11C JUMPI PUSH1 0x0 DUP1 REVERT JUMPDEST POP GAS STATICCALL ISZERO DUP1 ISZERO PUSH2 0x130 JUMPI RETURNDATASIZE PUSH1 0x0 DUP1 RETURNDATACOPY RETURNDATASIZE PUSH1 0x0 REVERT JUMPDEST POP POP POP POP PUSH1 0x40 MLOAD RETURNDATASIZE PUSH1 0x1F NOT PUSH1 0x1F DUP3 ADD AND DUP3 ADD DUP1 PUSH1 0x40 MSTORE POP DUP2 ADD SWAP1 PUSH2 0x154 SWAP2 SWAP1 PUSH2 0x18FA JUMP JUMPDEST SWAP1 POP DUP1 PUSH1 0xC0 ADD MLOAD PUSH2 0x164 JUMPI PUSH1 0x0 DUP1 REVERT JUMPDEST DUP8 PUSH2 0x1AF JUMPI DUP1 PUSH1 0x0 ADD MLOAD PUSH1 0x1 PUSH1 0x1 PUSH1 0xA0 SHL SUB AND DUP7 PUSH1 0x1 PUSH1 0x1 PUSH1 0xA0 SHL SUB AND GT DUP1 ISZERO PUSH2 0x1AA JUMPI POP PUSH20 0xFFFD8963EFD1FC6A506488495D951D5263988D26 PUSH1 0x1 PUSH1 0x1 PUSH1 0xA0 SHL SUB DUP8 AND LT JUMPDEST PUSH2 0x1E1 JUMP JUMPDEST DUP1 PUSH1 0x0 ADD MLOAD PUSH1 0x1 PUSH1 0x1 PUSH1 0xA0 SHL SUB AND DUP7 PUSH1 0x1 PUSH1 0x1 PUSH1 0xA0 SHL SUB AND LT DUP1 ISZERO PUSH2 0x1E1 JUMPI POP PUSH5 0x1000276A3 PUSH1 0x1 PUSH1 0x1 PUSH1 0xA0 SHL SUB DUP8 AND GT JUMPDEST PUSH2 0x1EA JUMPI PUSH1 0x0 DUP1 REVERT JUMPDEST PUSH1 0x0 DUP1 DUP9 SGT SWAP1 POP PUSH1 0x0 PUSH1 0x40 MLOAD DUP1 PUSH1 0xC0 ADD PUSH1 0x40 MSTORE DUP1 DUP11 DUP2 MSTORE PUSH1 0x20 ADD PUSH1 0x0 DUP2 MSTORE PUSH1 0x20 ADD DUP5 PUSH1 0x0 ADD MLOAD PUSH1 0x1 PUSH1 0x1 PUSH1 0xA0 SHL SUB AND DUP2 MSTORE PUSH1 0x20 ADD DUP5 PUSH1 0x20 ADD MLOAD PUSH1 0x2 SIGNEXTEND DUP2 MSTORE PUSH1 0x20 ADD PUSH1 0x0 PUSH1 0x1 PUSH1 0x1 PUSH1 0x80 SHL SUB AND DUP2 MSTORE PUSH1 0x20 ADD DUP7 PUSH1 0x1 PUSH1 0x1 PUSH1 0xA0 SHL SUB AND PUSH4 0x1A686502 PUSH1 0x40 MLOAD DUP2 PUSH4 0xFFFFFFFF AND PUSH1 0xE0 SHL DUP2 MSTORE PUSH1 0x4 ADD PUSH1 0x20 PUSH1 0x40 MLOAD DUP1 DUP4 SUB DUP2 DUP7 DUP1 EXTCODESIZE ISZERO DUP1 ISZERO PUSH2 0x274 JUMPI PUSH1 0x0 DUP1 REVERT JUMPDEST POP GAS STATICCALL ISZERO DUP1 ISZERO PUSH2 0x288 JUMPI RETURNDATASIZE PUSH1 0x0 DUP1 RETURNDATACOPY RETURNDATASIZE PUSH1 0x0 REVERT JUMPDEST POP POP POP POP PUSH1 0x40 MLOAD RETURNDATASIZE PUSH1 0x1F NOT PUSH1 0x1F DUP3 ADD AND DUP3 ADD DUP1 PUSH1 0x40 MSTORE POP DUP2 ADD SWAP1 PUSH2 0x2AC SWAP2 SWAP1 PUSH2 0x19A3 JUMP JUMPDEST PUSH1 0x1 PUSH1 0x1 PUSH1 0x80 SHL SUB AND SWAP1 MSTORE SWAP1 POP JUMPDEST DUP1 MLOAD ISZERO DUP1 ISZERO SWAP1 PUSH2 0x2E0 JUMPI POP DUP8 PUSH1 0x1 PUSH1 0x1 PUSH1 0xA0 SHL SUB AND DUP2 PUSH1 0x40 ADD MLOAD PUSH1 0x1 PUSH1 0x1 PUSH1 0xA0 SHL SUB AND EQ ISZERO JUMPDEST ISZERO PUSH2 0x529 JUMPI PUSH2 0x2ED PUSH2 0x17F0 JUMP JUMPDEST PUSH1 0x40 DUP3 ADD MLOAD PUSH1 0x1 PUSH1 0x1 PUSH1 0xA0 SHL SUB AND DUP2 MSTORE PUSH1 0x60 DUP3 ADD MLOAD PUSH2 0x30E SWAP1 DUP14 SWAP1 DUP14 PUSH2 0x561 JUMP JUMPDEST ISZERO ISZERO PUSH1 0x40 DUP4 ADD MSTORE PUSH1 0x2 SWAP1 DUP2 SIGNEXTEND DUP2 SIGNEXTEND PUSH1 0x20 DUP4 ADD DUP2 SWAP1 MSTORE PUSH3 0xD89E7 NOT SWAP2 SIGNEXTEND SLT ISZERO PUSH2 0x33F JUMPI PUSH3 0xD89E7 NOT PUSH1 0x20 DUP3 ADD MSTORE PUSH2 0x35E JUMP JUMPDEST PUSH1 0x20 DUP2 ADD MLOAD PUSH3 0xD89E8 PUSH1 0x2 SWAP2 SWAP1 SWAP2 SIGNEXTEND SGT ISZERO PUSH2 0x35E JUMPI PUSH3 0xD89E8 PUSH1 0x20 DUP3 ADD MSTORE JUMPDEST PUSH2 0x36B DUP2 PUSH1 0x20 ADD MLOAD PUSH2 0x7E8 JUMP JUMPDEST PUSH1 0x1 PUSH1 0x1 PUSH1 0xA0 SHL SUB AND PUSH1 0x60 DUP3 ADD MSTORE PUSH1 0x40 DUP3 ADD MLOAD PUSH2 0x3DC SWAP1 DUP13 PUSH2 0x3A5 JUMPI DUP11 PUSH1 0x1 PUSH1 0x1 PUSH1 0xA0 SHL SUB AND DUP4 PUSH1 0x60 ADD MLOAD PUSH1 0x1 PUSH1 0x1 PUSH1 0xA0 SHL SUB AND GT PUSH2 0x3BF JUMP JUMPDEST DUP11 PUSH1 0x1 PUSH1 0x1 PUSH1 0xA0 SHL SUB AND DUP4 PUSH1 0x60 ADD MLOAD PUSH1 0x1 PUSH1 0x1 PUSH1 0xA0 SHL SUB AND LT JUMPDEST PUSH2 0x3CD JUMPI DUP3 PUSH1 0x60 ADD MLOAD PUSH2 0x3CF JUMP JUMPDEST DUP11 JUMPDEST PUSH1 0xA0 DUP6 ADD MLOAD DUP6 MLOAD DUP10 PUSH2 0xB1A JUMP JUMPDEST PUSH1 0xC0 DUP6 ADD MSTORE PUSH1 0xA0 DUP5 ADD MSTORE PUSH1 0x80 DUP4 ADD MSTORE PUSH1 0x1 PUSH1 0x1 PUSH1 0xA0 SHL SUB AND PUSH1 0x40 DUP4 ADD MSTORE DUP3 ISZERO PUSH2 0x42E JUMPI PUSH1 0xC0 DUP2 ADD MLOAD PUSH1 0x80 DUP3 ADD MLOAD DUP4 MLOAD SWAP2 ADD SWAP1 SUB DUP3 MSTORE PUSH1 0xA0 DUP2 ADD MLOAD PUSH1 0x20 DUP4 ADD MLOAD PUSH2 0x424 SWAP2 PUSH2 0xD0C JUMP JUMPDEST PUSH1 0x20 DUP4 ADD MSTORE PUSH2 0x459 JUMP JUMPDEST PUSH1 0xA0 DUP2 ADD MLOAD DUP3 MLOAD ADD DUP3 MSTORE PUSH1 0xC0 DUP2 ADD MLOAD PUSH1 0x80 DUP3 ADD MLOAD PUSH1 0x20 DUP5 ADD MLOAD PUSH2 0x453 SWAP3 SWAP1 SWAP2 ADD PUSH2 0xD28 JUMP JUMPDEST PUSH1 0x20 DUP4 ADD MSTORE JUMPDEST DUP1 PUSH1 0x60 ADD MLOAD PUSH1 0x1 PUSH1 0x1 PUSH1 0xA0 SHL SUB AND DUP3 PUSH1 0x40 ADD MLOAD PUSH1 0x1 PUSH1 0x1 PUSH1 0xA0 SHL SUB AND EQ ISZERO PUSH2 0x4E8 JUMPI DUP1 PUSH1 0x40 ADD MLOAD ISZERO PUSH2 0x4BF JUMPI PUSH1 0x0 PUSH2 0x495 DUP8 DUP4 PUSH1 0x20 ADD MLOAD PUSH2 0xD3E JUMP JUMPDEST SWAP1 POP DUP12 ISZERO PUSH2 0x4A1 JUMPI PUSH1 0x0 SUB JUMPDEST PUSH2 0x4AF DUP4 PUSH1 0xA0 ADD MLOAD DUP3 PUSH2 0xDE1 JUMP JUMPDEST PUSH1 0x1 PUSH1 0x1 PUSH1 0x80 SHL SUB AND PUSH1 0xA0 DUP5 ADD MSTORE POP JUMPDEST DUP11 PUSH2 0x4CE JUMPI DUP1 PUSH1 0x20 ADD MLOAD PUSH2 0x4D7 JUMP JUMPDEST PUSH1 0x1 DUP2 PUSH1 0x20 ADD MLOAD SUB JUMPDEST PUSH1 0x2 SWAP1 DUP2 SIGNEXTEND SWAP1 SIGNEXTEND PUSH1 0x60 DUP4 ADD MSTORE PUSH2 0x523 JUMP JUMPDEST DUP1 PUSH1 0x0 ADD MLOAD PUSH1 0x1 PUSH1 0x1 PUSH1 0xA0 SHL SUB AND DUP3 PUSH1 0x40 ADD MLOAD PUSH1 0x1 PUSH1 0x1 PUSH1 0xA0 SHL SUB AND EQ PUSH2 0x523 JUMPI PUSH2 0x516 DUP3 PUSH1 0x40 ADD MLOAD PUSH2 0xE97 JUMP JUMPDEST PUSH1 0x2 SWAP1 DUP2 SIGNEXTEND SWAP1 SIGNEXTEND PUSH1 0x60 DUP4 ADD MSTORE JUMPDEST POP PUSH2 0x2BA JUMP JUMPDEST DUP2 ISZERO ISZERO DUP11 ISZERO ISZERO EQ PUSH2 0x542 JUMPI PUSH1 0x20 DUP2 ADD MLOAD DUP2 MLOAD DUP11 SUB PUSH2 0x54F JUMP JUMPDEST DUP1 PUSH1 0x0 ADD MLOAD DUP10 SUB DUP2 PUSH1 0x20 ADD MLOAD JUMPDEST SWAP1 SWAP13 SWAP1 SWAP12 POP SWAP10 POP POP POP POP POP POP POP POP POP POP JUMP JUMPDEST PUSH1 0x0 DUP1 PUSH1 0x0 DUP6 SWAP1 POP PUSH1 0x0 DUP2 PUSH1 0x1 PUSH1 0x1 PUSH1 0xA0 SHL SUB AND PUSH4 0xD0C93A7C PUSH1 0x40 MLOAD DUP2 PUSH4 0xFFFFFFFF AND PUSH1 0xE0 SHL DUP2 MSTORE PUSH1 0x4 ADD PUSH1 0x20 PUSH1 0x40 MLOAD DUP1 DUP4 SUB DUP2 DUP7 DUP1 EXTCODESIZE ISZERO DUP1 ISZERO PUSH2 0x5A4 JUMPI PUSH1 0x0 DUP1 REVERT JUMPDEST POP GAS STATICCALL ISZERO DUP1 ISZERO PUSH2 0x5B8 JUMPI RETURNDATASIZE PUSH1 0x0 DUP1 RETURNDATACOPY RETURNDATASIZE PUSH1 0x0 REVERT JUMPDEST POP POP POP POP PUSH1 0x40 MLOAD RETURNDATASIZE PUSH1 0x1F NOT PUSH1 0x1F DUP3 ADD AND DUP3 ADD DUP1 PUSH1 0x40 MSTORE POP DUP2 ADD SWAP1 PUSH2 0x5DC SWAP2 SWAP1 PUSH2 0x18E0 JUMP JUMPDEST SWAP1 POP PUSH1 0x0 DUP2 PUSH1 0x2 SIGNEXTEND DUP8 PUSH1 0x2 SIGNEXTEND DUP2 PUSH2 0x5EF JUMPI INVALID JUMPDEST SDIV SWAP1 POP PUSH1 0x0 DUP8 PUSH1 0x2 SIGNEXTEND SLT DUP1 ISZERO PUSH2 0x616 JUMPI POP DUP2 PUSH1 0x2 SIGNEXTEND DUP8 PUSH1 0x2 SIGNEXTEND DUP2 PUSH2 0x60F JUMPI INVALID JUMPDEST SMOD PUSH1 0x2 SIGNEXTEND ISZERO ISZERO JUMPDEST ISZERO PUSH2 0x620 JUMPI PUSH1 0x0 NOT ADD JUMPDEST DUP6 ISZERO PUSH2 0x6FE JUMPI PUSH1 0x0 DUP1 PUSH2 0x632 DUP4 PUSH2 0x11B6 JUMP JUMPDEST PUSH1 0x40 MLOAD PUSH4 0x299CE14B PUSH1 0xE1 SHL DUP2 MSTORE SWAP2 SWAP4 POP SWAP2 POP PUSH1 0x1 PUSH1 0xFF DUP4 AND SHL DUP1 ADD PUSH1 0x0 NOT ADD SWAP1 PUSH1 0x0 SWAP1 DUP3 SWAP1 PUSH1 0x1 PUSH1 0x1 PUSH1 0xA0 SHL SUB DUP10 AND SWAP1 PUSH4 0x5339C296 SWAP1 PUSH2 0x676 SWAP1 DUP9 SWAP1 PUSH1 0x4 ADD PUSH2 0x1A9E JUMP JUMPDEST PUSH1 0x20 PUSH1 0x40 MLOAD DUP1 DUP4 SUB DUP2 DUP7 DUP1 EXTCODESIZE ISZERO DUP1 ISZERO PUSH2 0x68E JUMPI PUSH1 0x0 DUP1 REVERT JUMPDEST POP GAS STATICCALL ISZERO DUP1 ISZERO PUSH2 0x6A2 JUMPI RETURNDATASIZE PUSH1 0x0 DUP1 RETURNDATACOPY RETURNDATASIZE PUSH1 0x0 REVERT JUMPDEST POP POP POP POP PUSH1 0x40 MLOAD RETURNDATASIZE PUSH1 0x1F NOT PUSH1 0x1F DUP3 ADD AND DUP3 ADD DUP1 PUSH1 0x40 MSTORE POP DUP2 ADD SWAP1 PUSH2 0x6C6 SWAP2 SWAP1 PUSH2 0x1A86 JUMP JUMPDEST AND DUP1 ISZERO ISZERO SWAP9 POP SWAP1 POP DUP8 PUSH2 0x6E0 JUMPI DUP6 DUP4 PUSH1 0xFF AND DUP7 SUB MUL PUSH2 0x6F3 JUMP JUMPDEST DUP6 PUSH2 0x6EA DUP3 PUSH2 0x11C8 JUMP JUMPDEST DUP5 SUB PUSH1 0xFF AND DUP7 SUB MUL JUMPDEST SWAP9 POP POP POP POP POP PUSH2 0x7DD JUMP JUMPDEST PUSH1 0x0 DUP1 PUSH2 0x70D DUP4 PUSH1 0x1 ADD PUSH2 0x11B6 JUMP JUMPDEST PUSH1 0x40 MLOAD PUSH4 0x299CE14B PUSH1 0xE1 SHL DUP2 MSTORE SWAP2 SWAP4 POP SWAP2 POP PUSH1 0x0 NOT PUSH1 0x1 PUSH1 0xFF DUP5 AND SHL ADD NOT SWAP1 PUSH1 0x0 SWAP1 DUP3 SWAP1 PUSH1 0x1 PUSH1 0x1 PUSH1 0xA0 SHL SUB DUP10 AND SWAP1 PUSH4 0x5339C296 SWAP1 PUSH2 0x750 SWAP1 DUP9 SWAP1 PUSH1 0x4 ADD PUSH2 0x1A9E JUMP JUMPDEST PUSH1 0x20 PUSH1 0x40 MLOAD DUP1 DUP4 SUB DUP2 DUP7 DUP1 EXTCODESIZE ISZERO DUP1 ISZERO PUSH2 0x768 JUMPI PUSH1 0x0 DUP1 REVERT JUMPDEST POP GAS STATICCALL ISZERO DUP1 ISZERO PUSH2 0x77C JUMPI RETURNDATASIZE PUSH1 0x0 DUP1 RETURNDATACOPY RETURNDATASIZE PUSH1 0x0 REVERT JUMPDEST POP POP POP POP PUSH1 0x40 MLOAD RETURNDATASIZE PUSH1 0x1F NOT PUSH1 0x1F DUP3 ADD AND DUP3 ADD DUP1 PUSH1 0x40 MSTORE POP DUP2 ADD SWAP1 PUSH2 0x7A0 SWAP2 SWAP1 PUSH2 0x1A86 JUMP JUMPDEST AND DUP1 ISZERO ISZERO SWAP9 POP SWAP1 POP DUP8 PUSH2 0x7C0 JUMPI DUP6 DUP4 PUSH1 0xFF SUB PUSH1 0xFF AND DUP7 PUSH1 0x1 ADD ADD MUL PUSH2 0x7D6 JUMP JUMPDEST DUP6 DUP4 PUSH2 0x7CB DUP4 PUSH2 0x1269 JUMP JUMPDEST SUB PUSH1 0xFF AND DUP7 PUSH1 0x1 ADD ADD MUL JUMPDEST SWAP9 POP POP POP POP POP JUMPDEST POP POP POP SWAP4 POP SWAP4 SWAP2 POP POP JUMP JUMPDEST PUSH1 0x0 DUP1 PUSH1 0x0 DUP4 PUSH1 0x2 SIGNEXTEND SLT PUSH2 0x7FF JUMPI DUP3 PUSH1 0x2 SIGNEXTEND PUSH2 0x807 JUMP JUMPDEST DUP3 PUSH1 0x2 SIGNEXTEND PUSH1 0x0 SUB JUMPDEST SWAP1 POP PUSH3 0xD89E8 DUP2 GT ISZERO PUSH2 0x845 JUMPI PUSH1 0x40 DUP1 MLOAD PUSH3 0x461BCD PUSH1 0xE5 SHL DUP2 MSTORE PUSH1 0x20 PUSH1 0x4 DUP3 ADD MSTORE PUSH1 0x1 PUSH1 0x24 DUP3 ADD MSTORE PUSH1 0x15 PUSH1 0xFA SHL PUSH1 0x44 DUP3 ADD MSTORE SWAP1 MLOAD SWAP1 DUP2 SWAP1 SUB PUSH1 0x64 ADD SWAP1 REVERT JUMPDEST PUSH1 0x0 PUSH1 0x1 DUP3 AND PUSH2 0x859 JUMPI PUSH1 0x1 PUSH1 0x80 SHL PUSH2 0x86B JUMP JUMPDEST PUSH16 0xFFFCB933BD6FAD37AA2D162D1A594001 JUMPDEST PUSH17 0xFFFFFFFFFFFFFFFFFFFFFFFFFFFFFFFFFF AND SWAP1 POP PUSH1 0x2 DUP3 AND ISZERO PUSH2 0x89F JUMPI PUSH16 0xFFF97272373D413259A46990580E213A MUL PUSH1 0x80 SHR JUMPDEST PUSH1 0x4 DUP3 AND ISZERO PUSH2 0x8BE JUMPI PUSH16 0xFFF2E50F5F656932EF12357CF3C7FDCC MUL PUSH1 0x80 SHR JUMPDEST PUSH1 0x8 DUP3 AND ISZERO PUSH2 0x8DD JUMPI PUSH16 0xFFE5CACA7E10E4E61C3624EAA0941CD0 MUL PUSH1 0x80 SHR JUMPDEST PUSH1 0x10 DUP3 AND ISZERO PUSH2 0x8FC JUMPI PUSH16 0xFFCB9843D60F6159C9DB58835C926644 MUL PUSH1 0x80 SHR JUMPDEST PUSH1 0x20 DUP3 AND ISZERO PUSH2 0x91B JUMPI PUSH16 0xFF973B41FA98C081472E6896DFB254C0 MUL PUSH1 0x80 SHR JUMPDEST PUSH1 0x40 DUP3 AND ISZERO PUSH2 0x93A JUMPI PUSH16 0xFF2EA16466C96A3843EC78B326B52861 MUL PUSH1 0x80 SHR JUMPDEST PUSH1 0x80 DUP3 AND ISZERO PUSH2 0x959 JUMPI PUSH16 0xFE5DEE046A99A2A811C461F1969C3053 MUL PUSH1 0x80 SHR JUMPDEST PUSH2 0x100 DUP3 AND ISZERO PUSH2 0x979 JUMPI PUSH16 0xFCBE86C7900A88AEDCFFC83B479AA3A4 MUL PUSH1 0x80 SHR JUMPDEST PUSH2 0x200 DUP3 AND ISZERO PUSH2 0x999 JUMPI PUSH16 0xF987A7253AC413176F2B074CF7815E54 MUL PUSH1 0x80 SHR JUMPDEST PUSH2 0x400 DUP3 AND ISZERO PUSH2 0x9B9 JUMPI PUSH16 0xF3392B0822B70005940C7A398E4B70F3 MUL PUSH1 0x80 SHR JUMPDEST PUSH2 0x800 DUP3 AND ISZERO PUSH2 0x9D9 JUMPI PUSH16 0xE7159475A2C29B7443B29C7FA6E889D9 MUL PUSH1 0x80 SHR JUMPDEST PUSH2 0x1000 DUP3 AND ISZERO PUSH2 0x9F9 JUMPI PUSH16 0xD097F3BDFD2022B8845AD8F792AA5825 MUL PUSH1 0x80 SHR JUMPDEST PUSH2 0x2000 DUP3 AND ISZERO PUSH2 0xA19 JUMPI PUSH16 0xA9F746462D870FDF8A65DC1F90E061E5 MUL PUSH1 0x80 SHR JUMPDEST PUSH2 0x4000 DUP3 AND ISZERO PUSH2 0xA39 JUMPI PUSH16 0x70D869A156D2A1B890BB3DF62BAF32F7 MUL PUSH1 0x80 SHR JUMPDEST PUSH2 0x8000 DUP3 AND ISZERO PUSH2 0xA59 JUMPI PUSH16 0x31BE135F97D08FD981231505542FCFA6 MUL PUSH1 0x80 SHR JUMPDEST PUSH3 0x10000 DUP3 AND ISZERO PUSH2 0xA7A JUMPI PUSH16 0x9AA508B5B7A84E1C677DE54F3E99BC9 MUL PUSH1 0x80 SHR JUMPDEST PUSH3 0x20000 DUP3 AND ISZERO PUSH2 0xA9A JUMPI PUSH15 0x5D6AF8DEDB81196699C329225EE604 MUL PUSH1 0x80 SHR JUMPDEST PUSH3 0x40000 DUP3 AND ISZERO PUSH2 0xAB9 JUMPI PUSH14 0x2216E584F5FA1EA926041BEDFE98 MUL PUSH1 0x80 SHR JUMPDEST PUSH3 0x80000 DUP3 AND ISZERO PUSH2 0xAD6 JUMPI PUSH12 0x48A170391F7DC42444E8FA2 MUL PUSH1 0x80 SHR JUMPDEST PUSH1 0x0 DUP5 PUSH1 0x2 SIGNEXTEND SGT ISZERO PUSH2 0xAF1 JUMPI DUP1 PUSH1 0x0 NOT DUP2 PUSH2 0xAED JUMPI INVALID JUMPDEST DIV SWAP1 POP JUMPDEST PUSH5 0x100000000 DUP2 MOD ISZERO PUSH2 0xB05 JUMPI PUSH1 0x1 PUSH2 0xB08 JUMP JUMPDEST PUSH1 0x0 JUMPDEST PUSH1 0xFF AND PUSH1 0x20 DUP3 SWAP1 SHR ADD SWAP3 POP POP POP SWAP2 SWAP1 POP JUMP JUMPDEST PUSH1 0x0 DUP1 DUP1 DUP1 PUSH1 0x1 PUSH1 0x1 PUSH1 0xA0 SHL SUB DUP1 DUP10 AND SWAP1 DUP11 AND LT ISZERO DUP2 DUP8 SLT DUP1 ISZERO SWAP1 PUSH2 0xB9F JUMPI PUSH1 0x0 PUSH2 0xB53 DUP10 DUP10 PUSH3 0xF4240 SUB PUSH3 0xFFFFFF AND PUSH3 0xF4240 PUSH2 0x1353 JUMP JUMPDEST SWAP1 POP DUP3 PUSH2 0xB6C JUMPI PUSH2 0xB67 DUP13 DUP13 DUP13 PUSH1 0x1 PUSH2 0x1403 JUMP JUMPDEST PUSH2 0xB79 JUMP JUMPDEST PUSH2 0xB79 DUP12 DUP14 DUP13 PUSH1 0x1 PUSH2 0x147E JUMP JUMPDEST SWAP6 POP DUP6 DUP2 LT PUSH2 0xB8A JUMPI DUP11 SWAP7 POP PUSH2 0xB99 JUMP JUMPDEST PUSH2 0xB96 DUP13 DUP12 DUP4 DUP7 PUSH2 0x1529 JUMP JUMPDEST SWAP7 POP JUMPDEST POP PUSH2 0xBE9 JUMP JUMPDEST DUP2 PUSH2 0xBB6 JUMPI PUSH2 0xBB1 DUP12 DUP12 DUP12 PUSH1 0x0 PUSH2 0x147E JUMP JUMPDEST PUSH2 0xBC3 JUMP JUMPDEST PUSH2 0xBC3 DUP11 DUP13 DUP12 PUSH1 0x0 PUSH2 0x1403 JUMP JUMPDEST SWAP4 POP DUP4 DUP9 PUSH1 0x0 SUB LT PUSH2 0xBD7 JUMPI DUP10 SWAP6 POP PUSH2 0xBE9 JUMP JUMPDEST PUSH2 0xBE6 DUP12 DUP11 DUP11 PUSH1 0x0 SUB DUP6 PUSH2 0x1575 JUMP JUMPDEST SWAP6 POP JUMPDEST PUSH1 0x1 PUSH1 0x1 PUSH1 0xA0 SHL SUB DUP11 DUP2 AND SWAP1 DUP8 AND EQ DUP3 ISZERO PUSH2 0xC4C JUMPI DUP1 DUP1 ISZERO PUSH2 0xC08 JUMPI POP DUP2 JUMPDEST PUSH2 0xC1E JUMPI PUSH2 0xC19 DUP8 DUP14 DUP13 PUSH1 0x1 PUSH2 0x147E JUMP JUMPDEST PUSH2 0xC20 JUMP JUMPDEST DUP6 JUMPDEST SWAP6 POP DUP1 DUP1 ISZERO PUSH2 0xC2D JUMPI POP DUP2 ISZERO JUMPDEST PUSH2 0xC43 JUMPI PUSH2 0xC3E DUP8 DUP14 DUP13 PUSH1 0x0 PUSH2 0x1403 JUMP JUMPDEST PUSH2 0xC45 JUMP JUMPDEST DUP5 JUMPDEST SWAP5 POP PUSH2 0xC96 JUMP JUMPDEST DUP1 DUP1 ISZERO PUSH2 0xC56 JUMPI POP DUP2 JUMPDEST PUSH2 0xC6C JUMPI PUSH2 0xC67 DUP13 DUP9 DUP13 PUSH1 0x1 PUSH2 0x1403 JUMP JUMPDEST PUSH2 0xC6E JUMP JUMPDEST DUP6 JUMPDEST SWAP6 POP DUP1 DUP1 ISZERO PUSH2 0xC7B JUMPI POP DUP2 ISZERO JUMPDEST PUSH2 0xC91 JUMPI PUSH2 0xC8C DUP13 DUP9 DUP13 PUSH1 0x0 PUSH2 0x147E JUMP JUMPDEST PUSH2 0xC93 JUMP JUMPDEST DUP5 JUMPDEST SWAP5 POP JUMPDEST DUP2 ISZERO DUP1 ISZERO PUSH2 0xCA6 JUMPI POP DUP9 PUSH1 0x0 SUB DUP6 GT JUMPDEST ISZERO PUSH2 0xCB2 JUMPI DUP9 PUSH1 0x0 SUB SWAP5 POP JUMPDEST DUP2 DUP1 ISZERO PUSH2 0xCD1 JUMPI POP DUP11 PUSH1 0x1 PUSH1 0x1 PUSH1 0xA0 SHL SUB AND DUP8 PUSH1 0x1 PUSH1 0x1 PUSH1 0xA0 SHL SUB AND EQ ISZERO JUMPDEST ISZERO PUSH2 0xCE0 JUMPI DUP6 DUP10 SUB SWAP4 POP PUSH2 0xCFD JUMP JUMPDEST PUSH2 0xCFA DUP7 DUP10 PUSH3 0xFFFFFF AND DUP11 PUSH3 0xF4240 SUB PUSH3 0xFFFFFF AND PUSH2 0x15C1 JUMP JUMPDEST SWAP4 POP JUMPDEST POP POP POP SWAP6 POP SWAP6 POP SWAP6 POP SWAP6 SWAP2 POP POP JUMP JUMPDEST DUP1 DUP3 SUB DUP3 DUP2 SGT ISZERO PUSH1 0x0 DUP4 SLT ISZERO EQ PUSH2 0xD22 JUMPI PUSH1 0x0 DUP1 REVERT JUMPDEST SWAP3 SWAP2 POP POP JUMP JUMPDEST DUP2 DUP2 ADD DUP3 DUP2 SLT ISZERO PUSH1 0x0 DUP4 SLT ISZERO EQ PUSH2 0xD22 JUMPI PUSH1 0x0 DUP1 REVERT JUMPDEST PUSH1 0x0 DUP1 PUSH1 0x0 DUP1 PUSH1 0x0 DUP1 PUSH1 0x0 DUP1 PUSH1 0x0 DUP11 PUSH1 0x1 PUSH1 0x1 PUSH1 0xA0 SHL SUB AND PUSH4 0xF30DBA93 DUP12 PUSH1 0x40 MLOAD DUP3 PUSH4 0xFFFFFFFF AND PUSH1 0xE0 SHL DUP2 MSTORE PUSH1 0x4 ADD PUSH2 0xD78 SWAP2 SWAP1 PUSH2 0x1AAC JUMP JUMPDEST PUSH2 0x100 PUSH1 0x40 MLOAD DUP1 DUP4 SUB DUP2 DUP7 DUP1 EXTCODESIZE ISZERO DUP1 ISZERO PUSH2 0xD91 JUMPI PUSH1 0x0 DUP1 REVERT JUMPDEST POP GAS STATICCALL ISZERO DUP1 ISZERO PUSH2 0xDA5 JUMPI RETURNDATASIZE PUSH1 0x0 DUP1 RETURNDATACOPY RETURNDATASIZE PUSH1 0x0 REVERT JUMPDEST POP POP POP POP PUSH1 0x40 MLOAD RETURNDATASIZE PUSH1 0x1F NOT PUSH1 0x1F DUP3 ADD AND DUP3 ADD DUP1 PUSH1 0x40 MSTORE POP DUP2 ADD SWAP1 PUSH2 0xDC9 SWAP2 SWAP1 PUSH2 0x19BD JUMP JUMPDEST POP SWAP5 SWAP15 POP POP POP POP POP POP POP POP POP POP POP POP POP POP POP SWAP3 SWAP2 POP POP JUMP JUMPDEST PUSH1 0x0 DUP1 DUP3 PUSH1 0xF SIGNEXTEND SLT ISZERO PUSH2 0xE46 JUMPI DUP3 PUSH1 0x1 PUSH1 0x1 PUSH1 0x80 SHL SUB AND DUP3 PUSH1 0x0 SUB DUP5 SUB SWAP2 POP DUP2 PUSH1 0x1 PUSH1 0x1 PUSH1 0x80 SHL SUB AND LT PUSH2 0xE41 JUMPI PUSH1 0x40 DUP1 MLOAD PUSH3 0x461BCD PUSH1 0xE5 SHL DUP2 MSTORE PUSH1 0x20 PUSH1 0x4 DUP3 ADD MSTORE PUSH1 0x2 PUSH1 0x24 DUP3 ADD MSTORE PUSH2 0x4C53 PUSH1 0xF0 SHL PUSH1 0x44 DUP3 ADD MSTORE SWAP1 MLOAD SWAP1 DUP2 SWAP1 SUB PUSH1 0x64 ADD SWAP1 REVERT JUMPDEST PUSH2 0xD22 JUMP JUMPDEST DUP3 PUSH1 0x1 PUSH1 0x1 PUSH1 0x80 SHL SUB AND DUP3 DUP5 ADD SWAP2 POP DUP2 PUSH1 0x1 PUSH1 0x1 PUSH1 0x80 SHL SUB AND LT ISZERO PUSH2 0xD22 JUMPI PUSH1 0x40 DUP1 MLOAD PUSH3 0x461BCD PUSH1 0xE5 SHL DUP2 MSTORE PUSH1 0x20 PUSH1 0x4 DUP3 ADD MSTORE PUSH1 0x2 PUSH1 0x24 DUP3 ADD MSTORE PUSH2 0x4C41 PUSH1 0xF0 SHL PUSH1 0x44 DUP3 ADD MSTORE SWAP1 MLOAD SWAP1 DUP2 SWAP1 SUB PUSH1 0x64 ADD SWAP1 REVERT JUMPDEST PUSH1 0x0 PUSH5 0x1000276A3 PUSH1 0x1 PUSH1 0x1 PUSH1 0xA0 SHL SUB DUP4 AND LT DUP1 ISZERO SWAP1 PUSH2 0xED3 JUMPI POP PUSH20 0xFFFD8963EFD1FC6A506488495D951D5263988D26 PUSH1 0x1 PUSH1 0x1 PUSH1 0xA0 SHL SUB DUP4 AND LT JUMPDEST PUSH2 0xF08 JUMPI PUSH1 0x40 DUP1 MLOAD PUSH3 0x461BCD PUSH1 0xE5 SHL DUP2 MSTORE PUSH1 0x20 PUSH1 0x4 DUP3 ADD MSTORE PUSH1 0x1 PUSH1 0x24 DUP3 ADD MSTORE PUSH1 0x29 PUSH1 0xF9 SHL PUSH1 0x44 DUP3 ADD MSTORE SWAP1 MLOAD SWAP1 DUP2 SWAP1 SUB PUSH1 0x64 ADD SWAP1 REVERT JUMPDEST PUSH5 0x100000000 PUSH1 0x1 PUSH1 0xC0 SHL SUB PUSH1 0x20 DUP4 SWAP1 SHL AND PUSH1 0x1 PUSH1 0x1 PUSH1 0x80 SHL SUB DUP2 GT PUSH1 0x7 SHL DUP2 DUP2 SHR PUSH8 0xFFFFFFFFFFFFFFFF DUP2 GT PUSH1 0x6 SHL SWAP1 DUP2 SHR PUSH4 0xFFFFFFFF DUP2 GT PUSH1 0x5 SHL SWAP1 DUP2 SHR PUSH2 0xFFFF DUP2 GT PUSH1 0x4 SHL SWAP1 DUP2 SHR PUSH1 0xFF DUP2 GT PUSH1 0x3 SWAP1 DUP2 SHL SWAP2 DUP3 SHR PUSH1 0xF DUP2 GT PUSH1 0x2 SHL SWAP1 DUP2 SHR SWAP2 DUP3 GT PUSH1 0x1 SWAP1 DUP2 SHL SWAP3 DUP4 SHR SWAP8 SWAP1 DUP9 GT SWAP7 OR SWAP1 SWAP5 OR SWAP1 SWAP3 OR OR SWAP1 SWAP2 OR OR OR PUSH1 0x80 DUP2 LT PUSH2 0xF9C JUMPI PUSH1 0x7F DUP2 SUB DUP4 SWAP1 SHR SWAP2 POP PUSH2 0xFA6 JUMP JUMPDEST DUP1 PUSH1 0x7F SUB DUP4 SWAP1 SHL SWAP2 POP JUMPDEST SWAP1 DUP1 MUL PUSH1 0x7F DUP2 DUP2 SHR PUSH1 0xFF DUP4 DUP2 SHR SWAP2 SWAP1 SWAP2 SHR DUP1 MUL DUP1 DUP4 SHR DUP2 DUP4 SHR SHR DUP1 MUL DUP1 DUP5 SHR DUP2 DUP5 SHR SHR DUP1 MUL DUP1 DUP6 SHR DUP2 DUP6 SHR SHR DUP1 MUL DUP1 DUP7 SHR DUP2 DUP7 SHR SHR DUP1 MUL DUP1 DUP8 SHR DUP2 DUP8 SHR SHR DUP1 MUL DUP1 DUP9 SHR DUP2 DUP9 SHR SHR DUP1 MUL DUP1 DUP10 SHR DUP2 DUP10 SHR SHR DUP1 MUL DUP1 DUP11 SHR DUP2 DUP11 SHR SHR DUP1 MUL DUP1 DUP12 SHR DUP2 DUP12 SHR SHR DUP1 MUL DUP1 DUP13 SHR DUP2 DUP13 SHR SHR DUP1 MUL DUP1 DUP14 SHR DUP2 DUP14 SHR SHR DUP1 MUL DUP1 DUP15 SHR SWAP13 DUP2 SWAP1 SHR SWAP13 SWAP1 SWAP13 SHR DUP1 MUL SWAP13 DUP14 SWAP1 SHR SWAP15 SWAP14 PUSH1 0x7F NOT DUP16 ADD PUSH1 0x40 SHL PUSH1 0xC0 SWAP2 SWAP1 SWAP2 SHR PUSH8 0x8000000000000000 AND OR PUSH1 0xC1 SWAP12 SWAP1 SWAP12 SHR PUSH8 0x4000000000000000 AND SWAP11 SWAP1 SWAP11 OR PUSH1 0xC2 SWAP10 SWAP1 SWAP10 SHR PUSH8 0x2000000000000000 AND SWAP9 SWAP1 SWAP9 OR PUSH1 0xC3 SWAP8 SWAP1 SWAP8 SHR PUSH8 0x1000000000000000 AND SWAP7 SWAP1 SWAP7 OR PUSH1 0xC4 SWAP6 SWAP1 SWAP6 SHR PUSH8 0x800000000000000 AND SWAP5 SWAP1 SWAP5 OR PUSH1 0xC5 SWAP4 SWAP1 SWAP4 SHR PUSH8 0x400000000000000 AND SWAP3 SWAP1 SWAP3 OR PUSH1 0xC6 SWAP2 SWAP1 SWAP2 SHR PUSH8 0x200000000000000 AND OR PUSH1 0xC7 SWAP2 SWAP1 SWAP2 SHR PUSH8 0x100000000000000 AND OR PUSH1 0xC8 SWAP2 SWAP1 SWAP2 SHR PUSH7 0x80000000000000 AND OR PUSH1 0xC9 SWAP2 SWAP1 SWAP2 SHR PUSH7 0x40000000000000 AND OR PUSH1 0xCA SWAP2 SWAP1 SWAP2 SHR PUSH7 0x20000000000000 AND OR PUSH1 0xCB SWAP2 SWAP1 SWAP2 SHR PUSH7 0x10000000000000 AND OR PUSH1 0xCC SWAP2 SWAP1 SWAP2 SHR PUSH7 0x8000000000000 AND OR PUSH1 0xCD SWAP2 SWAP1 SWAP2 SHR PUSH7 0x4000000000000 AND OR PUSH10 0x3627A301D71055774C85 DUP2 MUL PUSH16 0x28F6481AB7F045A5AF012A19D003AA9 NOT DUP2 ADD PUSH1 0x80 SWAP1 DUP2 SAR SWAP1 PUSH16 0xDB2DF09E81959A81455E260799A0632F DUP4 ADD SWAP1 SAR PUSH1 0x2 DUP2 DUP2 SIGNEXTEND SWAP1 DUP4 SWAP1 SIGNEXTEND EQ PUSH2 0x11A7 JUMPI DUP9 PUSH1 0x1 PUSH1 0x1 PUSH1 0xA0 SHL SUB AND PUSH2 0x118B DUP3 PUSH2 0x7E8 JUMP JUMPDEST PUSH1 0x1 PUSH1 0x1 PUSH1 0xA0 SHL SUB AND GT ISZERO PUSH2 0x11A0 JUMPI DUP2 PUSH2 0x11A2 JUMP JUMPDEST DUP1 JUMPDEST PUSH2 0x11A9 JUMP JUMPDEST DUP2 JUMPDEST SWAP10 SWAP9 POP POP POP POP POP POP POP POP POP JUMP JUMPDEST PUSH1 0x2 SIGNEXTEND PUSH1 0x8 DUP2 SWAP1 SAR SWAP2 PUSH2 0x100 SWAP1 SWAP2 SMOD SWAP1 JUMP JUMPDEST PUSH1 0x0 DUP1 DUP3 GT PUSH2 0x11D6 JUMPI PUSH1 0x0 DUP1 REVERT JUMPDEST PUSH1 0x1 PUSH1 0x80 SHL DUP3 LT PUSH2 0x11E9 JUMPI PUSH1 0x80 SWAP2 DUP3 SHR SWAP2 ADD JUMPDEST PUSH9 0x10000000000000000 DUP3 LT PUSH2 0x1201 JUMPI PUSH1 0x40 SWAP2 DUP3 SHR SWAP2 ADD JUMPDEST PUSH5 0x100000000 DUP3 LT PUSH2 0x1215 JUMPI PUSH1 0x20 SWAP2 DUP3 SHR SWAP2 ADD JUMPDEST PUSH3 0x10000 DUP3 LT PUSH2 0x1227 JUMPI PUSH1 0x10 SWAP2 DUP3 SHR SWAP2 ADD JUMPDEST PUSH2 0x100 DUP3 LT PUSH2 0x1238 JUMPI PUSH1 0x8 SWAP2 DUP3 SHR SWAP2 ADD JUMPDEST PUSH1 0x10 DUP3 LT PUSH2 0x1248 JUMPI PUSH1 0x4 SWAP2 DUP3 SHR SWAP2 ADD JUMPDEST PUSH1 0x4 DUP3 LT PUSH2 0x1258 JUMPI PUSH1 0x2 SWAP2 DUP3 SHR SWAP2 ADD JUMPDEST PUSH1 0x2 DUP3 LT PUSH2 0x1264 JUMPI PUSH1 0x1 ADD JUMPDEST SWAP2 SWAP1 POP JUMP JUMPDEST PUSH1 0x0 DUP1 DUP3 GT PUSH2 0x1277 JUMPI PUSH1 0x0 DUP1 REVERT JUMPDEST POP PUSH1 0xFF PUSH1 0x1 PUSH1 0x1 PUSH1 0x80 SHL SUB DUP3 AND ISZERO PUSH2 0x1292 JUMPI PUSH1 0x7F NOT ADD PUSH2 0x129A JUMP JUMPDEST PUSH1 0x80 DUP3 SWAP1 SHR SWAP2 POP JUMPDEST PUSH8 0xFFFFFFFFFFFFFFFF DUP3 AND ISZERO PUSH2 0x12B3 JUMPI PUSH1 0x3F NOT ADD PUSH2 0x12BB JUMP JUMPDEST PUSH1 0x40 DUP3 SWAP1 SHR SWAP2 POP JUMPDEST PUSH4 0xFFFFFFFF DUP3 AND ISZERO PUSH2 0x12D0 JUMPI PUSH1 0x1F NOT ADD PUSH2 0x12D8 JUMP JUMPDEST PUSH1 0x20 DUP3 SWAP1 SHR SWAP2 POP JUMPDEST PUSH2 0xFFFF DUP3 AND ISZERO PUSH2 0x12EB JUMPI PUSH1 0xF NOT ADD PUSH2 0x12F3 JUMP JUMPDEST PUSH1 0x10 DUP3 SWAP1 SHR SWAP2 POP JUMPDEST PUSH1 0xFF DUP3 AND ISZERO PUSH2 0x1305 JUMPI PUSH1 0x7 NOT ADD PUSH2 0x130D JUMP JUMPDEST PUSH1 0x8 DUP3 SWAP1 SHR SWAP2 POP JUMPDEST PUSH1 0xF DUP3 AND ISZERO PUSH2 0x131F JUMPI PUSH1 0x3 NOT ADD PUSH2 0x1327 JUMP JUMPDEST PUSH1 0x4 DUP3 SWAP1 SHR SWAP2 POP JUMPDEST PUSH1 0x3 DUP3 AND ISZERO PUSH2 0x1339 JUMPI PUSH1 0x1 NOT ADD PUSH2 0x1341 JUMP JUMPDEST PUSH1 0x2 DUP3 SWAP1 SHR SWAP2 POP JUMPDEST PUSH1 0x1 DUP3 AND ISZERO PUSH2 0x1264 JUMPI PUSH1 0x0 NOT ADD SWAP2 SWAP1 POP JUMP JUMPDEST PUSH1 0x0 DUP1 DUP1 PUSH1 0x0 NOT DUP6 DUP8 MULMOD DUP7 DUP7 MUL SWAP3 POP DUP3 DUP2 LT SWAP1 DUP4 SWAP1 SUB SUB SWAP1 POP DUP1 PUSH2 0x1389 JUMPI PUSH1 0x0 DUP5 GT PUSH2 0x137E JUMPI PUSH1 0x0 DUP1 REVERT JUMPDEST POP DUP3 SWAP1 DIV SWAP1 POP PUSH2 0x13FC JUMP JUMPDEST DUP1 DUP5 GT PUSH2 0x1395 JUMPI PUSH1 0x0 DUP1 REVERT JUMPDEST PUSH1 0x0 DUP5 DUP7 DUP9 MULMOD PUSH1 0x0 DUP7 DUP2 SUB DUP8 AND SWAP7 DUP8 SWAP1 DIV SWAP7 PUSH1 0x2 PUSH1 0x3 DUP10 MUL DUP2 XOR DUP1 DUP11 MUL DUP3 SUB MUL DUP1 DUP11 MUL DUP3 SUB MUL DUP1 DUP11 MUL DUP3 SUB MUL DUP1 DUP11 MUL DUP3 SUB MUL DUP1 DUP11 MUL DUP3 SUB MUL DUP1 DUP11 MUL SWAP1 SWAP2 SUB MUL SWAP2 DUP2 SWAP1 SUB DUP2 SWAP1 DIV PUSH1 0x1 ADD DUP7 DUP5 GT SWAP1 SWAP6 SUB SWAP5 SWAP1 SWAP5 MUL SWAP2 SWAP1 SWAP5 SUB SWAP3 SWAP1 SWAP3 DIV SWAP2 SWAP1 SWAP2 OR SWAP2 SWAP1 SWAP2 MUL SWAP2 POP POP JUMPDEST SWAP4 SWAP3 POP POP POP JUMP JUMPDEST PUSH1 0x0 DUP4 PUSH1 0x1 PUSH1 0x1 PUSH1 0xA0 SHL SUB AND DUP6 PUSH1 0x1 PUSH1 0x1 PUSH1 0xA0 SHL SUB AND GT ISZERO PUSH2 0x1423 JUMPI SWAP3 SWAP4 SWAP3 JUMPDEST DUP2 PUSH2 0x1450 JUMPI PUSH2 0x144B DUP4 PUSH1 0x1 PUSH1 0x1 PUSH1 0x80 SHL SUB AND DUP7 DUP7 SUB PUSH1 0x1 PUSH1 0x1 PUSH1 0xA0 SHL SUB AND PUSH1 0x1 PUSH1 0x60 SHL PUSH2 0x1353 JUMP JUMPDEST PUSH2 0x1473 JUMP JUMPDEST PUSH2 0x1473 DUP4 PUSH1 0x1 PUSH1 0x1 PUSH1 0x80 SHL SUB AND DUP7 DUP7 SUB PUSH1 0x1 PUSH1 0x1 PUSH1 0xA0 SHL SUB AND PUSH1 0x1 PUSH1 0x60 SHL PUSH2 0x15C1 JUMP JUMPDEST SWAP1 POP JUMPDEST SWAP5 SWAP4 POP POP POP POP JUMP JUMPDEST PUSH1 0x0 DUP4 PUSH1 0x1 PUSH1 0x1 PUSH1 0xA0 SHL SUB AND DUP6 PUSH1 0x1 PUSH1 0x1 PUSH1 0xA0 SHL SUB AND GT ISZERO PUSH2 0x149E JUMPI SWAP3 SWAP4 SWAP3 JUMPDEST PUSH1 0x1 PUSH1 0x60 SHL PUSH1 0x1 PUSH1 0xE0 SHL SUB PUSH1 0x60 DUP5 SWAP1 SHL AND PUSH1 0x1 PUSH1 0x1 PUSH1 0xA0 SHL SUB DUP7 DUP7 SUB DUP2 AND SWAP1 DUP8 AND PUSH2 0x14C8 JUMPI PUSH1 0x0 DUP1 REVERT JUMPDEST DUP4 PUSH2 0x14F8 JUMPI DUP7 PUSH1 0x1 PUSH1 0x1 PUSH1 0xA0 SHL SUB AND PUSH2 0x14EB DUP4 DUP4 DUP10 PUSH1 0x1 PUSH1 0x1 PUSH1 0xA0 SHL SUB AND PUSH2 0x1353 JUMP JUMPDEST DUP2 PUSH2 0x14F2 JUMPI INVALID JUMPDEST DIV PUSH2 0x151E JUMP JUMPDEST PUSH2 0x151E PUSH2 0x150F DUP4 DUP4 DUP10 PUSH1 0x1 PUSH1 0x1 PUSH1 0xA0 SHL SUB AND PUSH2 0x15C1 JUMP JUMPDEST DUP9 PUSH1 0x1 PUSH1 0x1 PUSH1 0xA0 SHL SUB AND PUSH2 0x15FB JUMP JUMPDEST SWAP8 SWAP7 POP POP POP POP POP POP POP JUMP JUMPDEST PUSH1 0x0 DUP1 DUP6 PUSH1 0x1 PUSH1 0x1 PUSH1 0xA0 SHL SUB AND GT PUSH2 0x1540 JUMPI PUSH1 0x0 DUP1 REVERT JUMPDEST PUSH1 0x0 DUP5 PUSH1 0x1 PUSH1 0x1 PUSH1 0x80 SHL SUB AND GT PUSH2 0x1556 JUMPI PUSH1 0x0 DUP1 REVERT JUMPDEST DUP2 PUSH2 0x1568 JUMPI PUSH2 0x144B DUP6 DUP6 DUP6 PUSH1 0x1 PUSH2 0x1606 JUMP JUMPDEST PUSH2 0x1473 DUP6 DUP6 DUP6 PUSH1 0x1 PUSH2 0x16E7 JUMP JUMPDEST PUSH1 0x0 DUP1 DUP6 PUSH1 0x1 PUSH1 0x1 PUSH1 0xA0 SHL SUB AND GT PUSH2 0x158C JUMPI PUSH1 0x0 DUP1 REVERT JUMPDEST PUSH1 0x0 DUP5 PUSH1 0x1 PUSH1 0x1 PUSH1 0x80 SHL SUB AND GT PUSH2 0x15A2 JUMPI PUSH1 0x0 DUP1 REVERT JUMPDEST DUP2 PUSH2 0x15B4 JUMPI PUSH2 0x144B DUP6 DUP6 DUP6 PUSH1 0x0 PUSH2 0x16E7 JUMP JUMPDEST PUSH2 0x1473 DUP6 DUP6 DUP6 PUSH1 0x0 PUSH2 0x1606 JUMP JUMPDEST PUSH1 0x0 PUSH2 0x15CE DUP5 DUP5 DUP5 PUSH2 0x1353 JUMP JUMPDEST SWAP1 POP PUSH1 0x0 DUP3 DUP1 PUSH2 0x15DA JUMPI INVALID JUMPDEST DUP5 DUP7 MULMOD GT ISZERO PUSH2 0x13FC JUMPI PUSH1 0x0 NOT DUP2 LT PUSH2 0x15F1 JUMPI PUSH1 0x0 DUP1 REVERT JUMPDEST PUSH1 0x1 ADD SWAP4 SWAP3 POP POP POP JUMP JUMPDEST DUP1 DUP3 DIV SWAP2 MOD ISZERO ISZERO ADD SWAP1 JUMP JUMPDEST PUSH1 0x0 DUP2 ISZERO PUSH2 0x1679 JUMPI PUSH1 0x0 PUSH1 0x1 PUSH1 0x1 PUSH1 0xA0 SHL SUB DUP5 GT ISZERO PUSH2 0x163C JUMPI PUSH2 0x1637 DUP5 PUSH1 0x1 PUSH1 0x60 SHL DUP8 PUSH1 0x1 PUSH1 0x1 PUSH1 0x80 SHL SUB AND PUSH2 0x1353 JUMP JUMPDEST PUSH2 0x1654 JUMP JUMPDEST PUSH1 0x1 PUSH1 0x1 PUSH1 0x80 SHL SUB DUP6 AND PUSH1 0x60 DUP6 SWAP1 SHL DUP2 PUSH2 0x1652 JUMPI INVALID JUMPDEST DIV JUMPDEST SWAP1 POP PUSH2 0x1671 PUSH2 0x166C PUSH1 0x1 PUSH1 0x1 PUSH1 0xA0 SHL SUB DUP9 AND DUP4 PUSH2 0x17CA JUMP JUMPDEST PUSH2 0x17DA JUMP JUMPDEST SWAP2 POP POP PUSH2 0x1476 JUMP JUMPDEST PUSH1 0x0 PUSH1 0x1 PUSH1 0x1 PUSH1 0xA0 SHL SUB DUP5 GT ISZERO PUSH2 0x16A7 JUMPI PUSH2 0x16A2 DUP5 PUSH1 0x1 PUSH1 0x60 SHL DUP8 PUSH1 0x1 PUSH1 0x1 PUSH1 0x80 SHL SUB AND PUSH2 0x15C1 JUMP JUMPDEST PUSH2 0x16BE JUMP JUMPDEST PUSH2 0x16BE PUSH1 0x60 DUP6 SWAP1 SHL PUSH1 0x1 PUSH1 0x1 PUSH1 0x80 SHL SUB DUP8 AND PUSH2 0x15FB JUMP JUMPDEST SWAP1 POP DUP1 DUP7 PUSH1 0x1 PUSH1 0x1 PUSH1 0xA0 SHL SUB AND GT PUSH2 0x16D5 JUMPI PUSH1 0x0 DUP1 REVERT JUMPDEST PUSH1 0x1 PUSH1 0x1 PUSH1 0xA0 SHL SUB DUP7 AND SUB SWAP1 POP PUSH2 0x1476 JUMP JUMPDEST PUSH1 0x0 DUP3 PUSH2 0x16F5 JUMPI POP DUP4 PUSH2 0x1476 JUMP JUMPDEST PUSH1 0x1 PUSH1 0x60 SHL PUSH1 0x1 PUSH1 0xE0 SHL SUB PUSH1 0x60 DUP6 SWAP1 SHL AND DUP3 ISZERO PUSH2 0x1783 JUMPI PUSH1 0x1 PUSH1 0x1 PUSH1 0xA0 SHL SUB DUP7 AND DUP5 DUP2 MUL SWAP1 DUP6 DUP3 DUP2 PUSH2 0x1723 JUMPI INVALID JUMPDEST DIV EQ ISZERO PUSH2 0x1754 JUMPI DUP2 DUP2 ADD DUP3 DUP2 LT PUSH2 0x1752 JUMPI PUSH2 0x1748 DUP4 DUP10 PUSH1 0x1 PUSH1 0x1 PUSH1 0xA0 SHL SUB AND DUP4 PUSH2 0x15C1 JUMP JUMPDEST SWAP4 POP POP POP POP PUSH2 0x1476 JUMP JUMPDEST POP JUMPDEST PUSH2 0x177A DUP3 PUSH2 0x1775 DUP8 DUP11 PUSH1 0x1 PUSH1 0x1 PUSH1 0xA0 SHL SUB AND DUP7 DUP2 PUSH2 0x176E JUMPI INVALID JUMPDEST DIV SWAP1 PUSH2 0x17CA JUMP JUMPDEST PUSH2 0x15FB JUMP JUMPDEST SWAP3 POP POP POP PUSH2 0x1476 JUMP JUMPDEST PUSH1 0x1 PUSH1 0x1 PUSH1 0xA0 SHL SUB DUP7 AND DUP5 DUP2 MUL SWAP1 DUP6 DUP3 DUP2 PUSH2 0x179A JUMPI INVALID JUMPDEST DIV EQ DUP1 ISZERO PUSH2 0x17A7 JUMPI POP DUP1 DUP3 GT JUMPDEST PUSH2 0x17B0 JUMPI PUSH1 0x0 DUP1 REVERT JUMPDEST DUP1 DUP3 SUB PUSH2 0x1748 PUSH2 0x166C DUP5 PUSH1 0x1 PUSH1 0x1 PUSH1 0xA0 SHL SUB DUP12 AND DUP5 PUSH2 0x15C1 JUMP JUMPDEST DUP1 DUP3 ADD DUP3 DUP2 LT ISZERO PUSH2 0xD22 JUMPI PUSH1 0x0 DUP1 REVERT JUMPDEST DUP1 PUSH1 0x1 PUSH1 0x1 PUSH1 0xA0 SHL SUB DUP2 AND DUP2 EQ PUSH2 0x1264 JUMPI PUSH1 0x0 DUP1 REVERT JUMPDEST PUSH1 0x40 DUP1 MLOAD PUSH1 0xE0 DUP2 ADD DUP3 MSTORE PUSH1 0x0 DUP1 DUP3 MSTORE PUSH1 0x20 DUP3 ADD DUP2 SWAP1 MSTORE SWAP2 DUP2 ADD DUP3 SWAP1 MSTORE PUSH1 0x60 DUP2 ADD DUP3 SWAP1 MSTORE PUSH1 0x80 DUP2 ADD DUP3 SWAP1 MSTORE PUSH1 0xA0 DUP2 ADD DUP3 SWAP1 MSTORE PUSH1 0xC0 DUP2 ADD SWAP2 SWAP1 SWAP2 MSTORE SWAP1 JUMP JUMPDEST DUP1 MLOAD PUSH2 0x1264 DUP2 PUSH2 0x1AE0 JUMP JUMPDEST DUP1 MLOAD PUSH1 0x2 DUP2 SWAP1 SIGNEXTEND DUP2 EQ PUSH2 0x1264 JUMPI PUSH1 0x0 DUP1 REVERT JUMPDEST DUP1 MLOAD PUSH1 0x1 PUSH1 0x1 PUSH1 0x80 SHL SUB DUP2 AND DUP2 EQ PUSH2 0x1264 JUMPI PUSH1 0x0 DUP1 REVERT JUMPDEST DUP1 MLOAD PUSH2 0x1264 DUP2 PUSH2 0x1AC8 JUMP JUMPDEST DUP1 MLOAD PUSH2 0xFFFF DUP2 AND DUP2 EQ PUSH2 0x1264 JUMPI PUSH1 0x0 DUP1 REVERT JUMPDEST DUP1 MLOAD PUSH1 0xFF DUP2 AND DUP2 EQ PUSH2 0x1264 JUMPI PUSH1 0x0 DUP1 REVERT JUMPDEST PUSH1 0x0 DUP1 PUSH1 0x0 DUP1 PUSH1 0x80 DUP6 DUP8 SUB SLT ISZERO PUSH2 0x18A3 JUMPI DUP4 DUP5 REVERT JUMPDEST DUP5 CALLDATALOAD PUSH2 0x18AE DUP2 PUSH2 0x1AC8 JUMP JUMPDEST SWAP4 POP PUSH1 0x20 DUP6 ADD CALLDATALOAD PUSH2 0x18BE DUP2 PUSH2 0x1AE0 JUMP JUMPDEST SWAP3 POP PUSH1 0x40 DUP6 ADD CALLDATALOAD SWAP2 POP PUSH1 0x60 DUP6 ADD CALLDATALOAD PUSH2 0x18D5 DUP2 PUSH2 0x1AC8 JUMP JUMPDEST SWAP4 SWAP7 SWAP3 SWAP6 POP SWAP1 SWAP4 POP POP JUMP JUMPDEST PUSH1 0x0 PUSH1 0x20 DUP3 DUP5 SUB SLT ISZERO PUSH2 0x18F1 JUMPI DUP1 DUP2 REVERT JUMPDEST PUSH2 0x13FC DUP3 PUSH2 0x1837 JUMP JUMPDEST PUSH1 0x0 PUSH1 0xE0 DUP3 DUP5 SUB SLT ISZERO PUSH2 0x190B JUMPI DUP1 DUP2 REVERT JUMPDEST PUSH1 0x40 MLOAD PUSH1 0xE0 DUP2 ADD DUP2 DUP2 LT PUSH8 0xFFFFFFFFFFFFFFFF DUP3 GT OR ISZERO PUSH2 0x1928 JUMPI INVALID JUMPDEST PUSH1 0x40 MSTORE PUSH2 0x1934 DUP4 PUSH2 0x1860 JUMP JUMPDEST DUP2 MSTORE PUSH2 0x1942 PUSH1 0x20 DUP5 ADD PUSH2 0x1837 JUMP JUMPDEST PUSH1 0x20 DUP3 ADD MSTORE PUSH2 0x1953 PUSH1 0x40 DUP5 ADD PUSH2 0x186B JUMP JUMPDEST PUSH1 0x40 DUP3 ADD MSTORE PUSH2 0x1964 PUSH1 0x60 DUP5 ADD PUSH2 0x186B JUMP JUMPDEST PUSH1 0x60 DUP3 ADD MSTORE PUSH2 0x1975 PUSH1 0x80 DUP5 ADD PUSH2 0x186B JUMP JUMPDEST PUSH1 0x80 DUP3 ADD MSTORE PUSH2 0x1986 PUSH1 0xA0 DUP5 ADD PUSH2 0x187D JUMP JUMPDEST PUSH1 0xA0 DUP3 ADD MSTORE PUSH2 0x1997 PUSH1 0xC0 DUP5 ADD PUSH2 0x182C JUMP JUMPDEST PUSH1 0xC0 DUP3 ADD MSTORE SWAP4 SWAP3 POP POP POP JUMP JUMPDEST PUSH1 0x0 PUSH1 0x20 DUP3 DUP5 SUB SLT ISZERO PUSH2 0x19B4 JUMPI DUP1 DUP2 REVERT JUMPDEST PUSH2 0x13FC DUP3 PUSH2 0x1849 JUMP JUMPDEST PUSH1 0x0 DUP1 PUSH1 0x0 DUP1 PUSH1 0x0 DUP1 PUSH1 0x0 DUP1 PUSH2 0x100 DUP10 DUP12 SUB SLT ISZERO PUSH2 0x19D9 JUMPI DUP4 DUP5 REVERT JUMPDEST PUSH2 0x19E2 DUP10 PUSH2 0x1849 JUMP JUMPDEST SWAP8 POP PUSH1 0x20 DUP10 ADD MLOAD DUP1 PUSH1 0xF SIGNEXTEND DUP2 EQ PUSH2 0x19F7 JUMPI DUP5 DUP6 REVERT JUMPDEST DUP1 SWAP8 POP POP PUSH1 0x40 DUP10 ADD MLOAD SWAP6 POP PUSH1 0x60 DUP10 ADD MLOAD SWAP5 POP PUSH1 0x80 DUP10 ADD MLOAD DUP1 PUSH1 0x6 SIGNEXTEND DUP2 EQ PUSH2 0x1A1C JUMPI DUP5 DUP6 REVERT JUMPDEST PUSH1 0xA0 DUP11 ADD MLOAD SWAP1 SWAP5 POP PUSH2 0x1A2D DUP2 PUSH2 0x1AC8 JUMP JUMPDEST PUSH1 0xC0 DUP11 ADD MLOAD SWAP1 SWAP4 POP PUSH4 0xFFFFFFFF DUP2 AND DUP2 EQ PUSH2 0x1A46 JUMPI DUP3 DUP4 REVERT JUMPDEST SWAP2 POP PUSH2 0x1A54 PUSH1 0xE0 DUP11 ADD PUSH2 0x182C JUMP JUMPDEST SWAP1 POP SWAP3 SWAP6 SWAP9 POP SWAP3 SWAP6 SWAP9 SWAP1 SWAP4 SWAP7 POP JUMP JUMPDEST PUSH1 0x0 PUSH1 0x20 DUP3 DUP5 SUB SLT ISZERO PUSH2 0x1A74 JUMPI DUP1 DUP2 REVERT JUMPDEST DUP2 MLOAD PUSH3 0xFFFFFF DUP2 AND DUP2 EQ PUSH2 0x13FC JUMPI DUP2 DUP3 REVERT JUMPDEST PUSH1 0x0 PUSH1 0x20 DUP3 DUP5 SUB SLT ISZERO PUSH2 0x1A97 JUMPI DUP1 DUP2 REVERT JUMPDEST POP MLOAD SWAP2 SWAP1 POP JUMP JUMPDEST PUSH1 0x1 SWAP2 SWAP1 SWAP2 SIGNEXTEND DUP2 MSTORE PUSH1 0x20 ADD SWAP1 JUMP JUMPDEST PUSH1 0x2 SWAP2 SWAP1 SWAP2 SIGNEXTEND DUP2 MSTORE PUSH1 0x20 ADD SWAP1 JUMP JUMPDEST SWAP2 DUP3 MSTORE PUSH1 0x20 DUP3 ADD MSTORE PUSH1 0x40 ADD SWAP1 JUMP JUMPDEST PUSH1 0x1 PUSH1 0x1 PUSH1 0xA0 SHL SUB DUP2 AND DUP2 EQ PUSH2 0x1ADD JUMPI PUSH1 0x0 DUP1 REVERT JUMPDEST POP JUMP JUMPDEST DUP1 ISZERO ISZERO DUP2 EQ PUSH2 0x1ADD JUMPI PUSH1 0x0 DUP1 REVERT INVALID LOG2 PUSH5 0x6970667358 0x22 SLT KECCAK256 RETURN 0xC8 PUSH21 0x2282F1E10639A1836B6F4038EF2CB4E6D89CDA6A32 0xB8 0xF 0xCF 0xAB PUSH29 0xFCCD8C64736F6C63430007060033000000000000000000000000000000 ",
  "sha1": "c2490a8248f01a17333814bf0f21ddbf5fa5670a",
  "source": "pragma solidity 0.7.6;\npragma abicoder v2;\n\nimport \"./TickMath.sol\";\nimport \"./BitMath.sol\";\nimport \"./TickBitmap.sol\";\nimport \"./SwapMath.sol\";\nimport \"./FullMath.sol\";\nimport \"./SqrtPriceMath.sol\";\nimport \"./LiquidityMath.sol\";\nimport \"./LowGasSafeMath.sol\";\nimport \"./SafeCast.sol\";\n\n\ninterface IERC20 {\n    function balanceOf(address account) external view returns (uint256);\n}\n\n\ninterface IUniswapV3Pool {\n\n    struct Slot0 {\n         uint160 sqrtPriceX96;\n         int24 tick;\n         uint16 observationIndex;\n         uint16 observationCardinality;\n         uint16 observationCardinalityNext;\n         uint8 feeProtocol;\n         bool unlocked;\n    }\n\n    function slot0() external view returns (Slot0 memory s0);\n    function liquidity() external view returns (uint128);\n    function ticks(int24 tick) external view returns (\n\t\t\t\t\t\t      uint128 liquidityGross,\n\t\t\t\t\t\t      int128 liquidityNet,\n\t\t\t\t\t\t      uint256 feeGrowthOutside0X128,\n\t\t\t\t\t\t      uint256 feeGrowthOutside1X128,\n\t\t\t\t\t\t      int56 tickCumulativeOutside,\n\t\t\t\t\t\t      uint160 secondsPerLiquidityOutsideX128,\n\t\t\t\t\t\t      uint32 secondsOutside,\n\t\t\t\t\t\t      bool initialized\n\t\t\t\t\t\t      );\n    function tickBitmap(int16 wordPosition) external view returns (uint256);\n    function tickSpacing() external view returns (int24);\n    function fee() external view returns (uint24);\n    function token0() external view returns (address);\n    function token1() external view returns (address);\n}\n\ncontract UniV3Calc {\n\n    function position(int24 tick) private pure returns (int16 wordPos, uint8 bitPos) {\n        wordPos = int16(tick >> 8);\n        bitPos = uint8(tick % 256);\n    }\n\n    function nextInitializedTickWithinOneWord(\n\t\t\t\t\t      address _pool,\n\t\t\t\t\t      int24 tick,\n\t\t\t\t\t      bool lte\n\t\t\t\t\t      ) private view returns (int24 next, bool initialized) {\n\tIUniswapV3Pool pool = IUniswapV3Pool(_pool);\n\tint24 tickSpacing = pool.tickSpacing();\n        int24 compressed = tick / tickSpacing;\n        if (tick < 0 && tick % tickSpacing != 0) compressed--; // round towards negative infinity\n\n        if (lte) {\n            (int16 wordPos, uint8 bitPos) = position(compressed);\n            // all the 1s at or to the right of the current bitPos\n            uint256 mask = (1 << bitPos) - 1 + (1 << bitPos);\n            uint256 masked = pool.tickBitmap(wordPos) & mask;\n\n            // if there are no initialized ticks to the right of or at the current tick, return rightmost in the word\n            initialized = masked != 0;\n            // overflow/underflow is possible, but prevented externally by limiting both tickSpacing and tick\n            next = initialized\n                ? (compressed - int24(bitPos - BitMath.mostSignificantBit(masked))) * tickSpacing\n                : (compressed - int24(bitPos)) * tickSpacing;\n        } else {\n            // start from the word of the next tick, since the current tick state doesn't matter\n            (int16 wordPos, uint8 bitPos) = position(compressed + 1);\n            // all the 1s at or to the left of the bitPos\n            uint256 mask = ~((1 << bitPos) - 1);\n            uint256 masked = pool.tickBitmap(wordPos) & mask;\n\n            // if there are no initialized ticks to the left of the current tick, return leftmost in the word\n            initialized = masked != 0;\n            // overflow/underflow is possible, but prevented externally by limiting both tickSpacing and tick\n            next = initialized\n                ? (compressed + 1 + int24(BitMath.leastSignificantBit(masked) - bitPos)) * tickSpacing\n                : (compressed + 1 + int24(type(uint8).max - bitPos)) * tickSpacing;\n        }\n    }\n\n    function _liqNet(IUniswapV3Pool pool, int24 _tickNext) private view returns (int128) {\n\tuint128 liquidityGross;\n\tint128 liquidityNet;\n\tuint256 feeGrowthOutside0X128;\n\tuint256 feeGrowthOutside1X128;\n\tint56 tickCumulativeOutside;\n\tuint160 secondsPerLiquidityOutsideX128;\n\tuint32 secondsOutside;\n\tbool initialized;\n\t\t    \n\t\t    \n\t(liquidityGross, liquidityNet, feeGrowthOutside0X128, feeGrowthOutside1X128, tickCumulativeOutside, secondsPerLiquidityOutsideX128, secondsOutside, initialized) =  pool.ticks(_tickNext);\n\treturn liquidityNet;\n    }\n\n\n    // the top level state of the swap, the results of which are recorded in storage at the end\n    struct SwapState {\n        // the amount remaining to be swapped in/out of the input/output asset\n        int256 amountSpecifiedRemaining;\n        // the amount already swapped out/in of the output/input asset\n        int256 amountCalculated;\n        // current sqrt(price)\n        uint160 sqrtPriceX96;\n        // the tick associated with the current price\n        int24 tick;\n        // the global fee growth of the input token\n        // amount of input token paid as protocol fee\n        uint128 protocolFee;\n        // the current liquidity in range\n        uint128 liquidity;\n    }\n\n    struct StepComputations {\n        // the price at the beginning of the step\n        uint160 sqrtPriceStartX96;\n        // the next tick to swap to from the current tick in the swap direction\n        int24 tickNext;\n        // whether tickNext is initialized or not\n        bool initialized;\n        // sqrt(price) for the next tick (1/0)\n        uint160 sqrtPriceNextX96;\n        // how much is being swapped in in this step\n        uint256 amountIn;\n        // how much is being swapped out\n        uint256 amountOut;\n        // how much fee is being paid in\n        uint256 feeAmount;\n    }\n    using LowGasSafeMath for uint256;\n    using LowGasSafeMath for int256;\n    using SafeCast for uint256;\n    using SafeCast for int256;\n\n    function calc_v3_swap(\n\t\t  address _pool,\n\t\t  bool zeroForOne,\n\t\t  int256 amountSpecified,\n\t\t  uint160 sqrtPriceLimitX96\n\t\t  ) public view returns (int256 amount0, int256 amount1) {\n        require(amountSpecified != 0);\n\n\tIUniswapV3Pool pool = IUniswapV3Pool(_pool);\n\tuint24 fee = pool.fee();\n\t\n        IUniswapV3Pool.Slot0 memory slot0Start = pool.slot0() ;\n\n        require(slot0Start.unlocked);\n        require(\n            zeroForOne\n                ? sqrtPriceLimitX96 < slot0Start.sqrtPriceX96 && sqrtPriceLimitX96 > TickMath.MIN_SQRT_RATIO\n                : sqrtPriceLimitX96 > slot0Start.sqrtPriceX96 && sqrtPriceLimitX96 < TickMath.MAX_SQRT_RATIO\n        );\n\n        bool exactInput = amountSpecified > 0;\n\n        SwapState memory state =\n            SwapState({\n                amountSpecifiedRemaining: amountSpecified,\n                amountCalculated: 0,\n                sqrtPriceX96: slot0Start.sqrtPriceX96,\n                tick: slot0Start.tick,\n                protocolFee: 0,\n                liquidity: pool.liquidity()\n            });\n\n        // continue swapping as long as we haven't used the entire input/output and haven't reached the price limit\n        while (state.amountSpecifiedRemaining != 0 && state.sqrtPriceX96 != sqrtPriceLimitX96) {\n            StepComputations memory step;\n\n            step.sqrtPriceStartX96 = state.sqrtPriceX96;\n\t    // replace this with function call \n            (step.tickNext, step.initialized) = nextInitializedTickWithinOneWord(\n\t\t\t\t\t\t\t\t\t\t _pool,\n\t\t\t\t\t\t\t\t\t\t state.tick,\n\t\t\t\t\t\t\t\t\t\t zeroForOne\n            );\n\n            // ensure that we do not overshoot the min/max tick, as the tick bitmap is not aware of these bounds\n            if (step.tickNext < TickMath.MIN_TICK) {\n                step.tickNext = TickMath.MIN_TICK;\n            } else if (step.tickNext > TickMath.MAX_TICK) {\n                step.tickNext = TickMath.MAX_TICK;\n            }\n\n            // get the price for the next tick\n            step.sqrtPriceNextX96 = TickMath.getSqrtRatioAtTick(step.tickNext);\n\n            // compute values to swap to the target tick, price limit, or point where input/output amount is exhausted\n            (state.sqrtPriceX96, step.amountIn, step.amountOut, step.feeAmount) = SwapMath.computeSwapStep(\n                state.sqrtPriceX96,\n                (zeroForOne ? step.sqrtPriceNextX96 < sqrtPriceLimitX96 : step.sqrtPriceNextX96 > sqrtPriceLimitX96)\n                    ? sqrtPriceLimitX96\n                    : step.sqrtPriceNextX96,\n                state.liquidity,\n                state.amountSpecifiedRemaining,\n                fee\n            );\n\n            if (exactInput) {\n                state.amountSpecifiedRemaining -= int256(step.amountIn + step.feeAmount);\n                state.amountCalculated = state.amountCalculated.sub(int256(step.amountOut));\n            } else {\n                state.amountSpecifiedRemaining += int256(step.amountOut);\n                state.amountCalculated = state.amountCalculated.add(int256(step.amountIn + step.feeAmount));\n            }\n\n            // shift tick if we reached the next price\n            if (state.sqrtPriceX96 == step.sqrtPriceNextX96) {\n                // if the tick is initialized, run the tick transition\n                if (step.initialized) {\n\n\t\t    int128 liquidityNet = _liqNet(pool, step.tickNext);\n                    // if we're moving leftward, we interpret liquidityNet as the opposite sign\n                    // safe because liquidityNet cannot be type(int128).min\n                    if (zeroForOne) liquidityNet = -liquidityNet;\n\n                    state.liquidity = LiquidityMath.addDelta(state.liquidity, liquidityNet);\n                }\n\n                state.tick = zeroForOne ? step.tickNext - 1 : step.tickNext;\n            } else if (state.sqrtPriceX96 != step.sqrtPriceStartX96) {\n                // recompute unless we're on a lower tick boundary (i.e. already transitioned ticks), and haven't moved\n                state.tick = TickMath.getTickAtSqrtRatio(state.sqrtPriceX96);\n            }\n        }\n\n\t\n        (amount0, amount1) = zeroForOne == exactInput\n            ? (amountSpecified - state.amountSpecifiedRemaining, state.amountCalculated)\n            : (state.amountCalculated, amountSpecified - state.amountSpecifiedRemaining);\n\n\n\t/* if (zeroForOne) { */\n\t/*     require(uint256(amount1 * -1) < IERC20(pool.token1()).balanceOf(address(this))); */\n\t/* } else { */\n\t/*     require(uint256(amount0 * -1) < IERC20(pool.token0()).balanceOf(address(this))); */\n\t/* } */\n\t\n    }\n    \n}\n",
  "sourcePath": "contracts/univ3calc.sol",
  "type": "contract"
}