{
  "abi": [
    {
      "inputs": [
        {
          "internalType": "address",
          "name": "_pool",
          "type": "address"
        },
        {
          "internalType": "bool",
          "name": "zeroForOne",
          "type": "bool"
        },
        {
          "internalType": "int256",
          "name": "amountSpecified",
          "type": "int256"
        },
        {
          "internalType": "uint160",
          "name": "sqrtPriceLimitX96",
          "type": "uint160"
        }
      ],
      "name": "calc_v3_swap",
      "outputs": [
        {
          "internalType": "int256",
          "name": "amount0",
          "type": "int256"
        },
        {
          "internalType": "int256",
          "name": "amount1",
          "type": "int256"
        }
      ],
      "stateMutability": "view",
      "type": "function"
    }
  ],
  "bytecode": "608060405234801561001057600080fd5b50611d56806100206000396000f3fe608060405234801561001057600080fd5b506004361061002b5760003560e01c80639fe2228a14610030575b600080fd5b61004361003e366004611aac565b61005a565b604051610051929190611cec565b60405180910390f35b6000808361006757600080fd5b60008690506000816001600160a01b031663ddca3f436040518163ffffffff1660e01b815260040160206040518083038186803b1580156100a757600080fd5b505afa1580156100bb573d6000803e3d6000fd5b505050506040513d601f19601f820116820180604052508101906100df9190611c81565b90506000826001600160a01b0316633850c7bd6040518163ffffffff1660e01b815260040160e06040518083038186803b15801561011c57600080fd5b505afa158015610130573d6000803e3d6000fd5b505050506040513d601f19601f820116820180604052508101906101549190611b18565b90508060c0015161016457600080fd5b876101af5780600001516001600160a01b0316866001600160a01b03161180156101aa575073fffd8963efd1fc6a506488495d951d5263988d266001600160a01b038716105b6101e1565b80600001516001600160a01b0316866001600160a01b03161080156101e157506401000276a36001600160a01b038716115b6101ea57600080fd5b6000808813905060006040518060c001604052808a81526020016000815260200184600001516001600160a01b03168152602001846020015160020b815260200160006001600160801b03168152602001866001600160a01b0316631a6865026040518163ffffffff1660e01b815260040160206040518083038186803b15801561027457600080fd5b505afa158015610288573d6000803e3d6000fd5b505050506040513d601f19601f820116820180604052508101906102ac9190611bc1565b6001600160801b0316905290505b8051158015906102e05750876001600160a01b031681604001516001600160a01b031614155b15610529576102ed6119f2565b60408201516001600160a01b03168152606082015161030e908d908d610763565b15156040830152600290810b810b60208301819052620d89e719910b121561033f57620d89e719602082015261035e565b6020810151620d89e860029190910b131561035e57620d89e860208201525b61036b81602001516109ea565b6001600160a01b0316606082015260408201516103dc908c6103a5578a6001600160a01b031683606001516001600160a01b0316116103bf565b8a6001600160a01b031683606001516001600160a01b0316105b6103cd5782606001516103cf565b8a5b60a0850151855189610d1c565b60c085015260a084015260808301526001600160a01b03166040830152821561042e5760c08101516080820151835191019003825260a0810151602083015161042491610f0e565b6020830152610459565b60a0810151825101825260c08101516080820151602084015161045392909101610f2a565b60208301525b80606001516001600160a01b031682604001516001600160a01b031614156104e8578060400151156104bf576000610495878360200151610f40565b90508b156104a1576000035b6104af8360a0015182610fe3565b6001600160801b031660a0840152505b8a6104ce5780602001516104d7565b60018160200151035b600290810b900b6060830152610523565b80600001516001600160a01b031682604001516001600160a01b031614610523576105168260400151611099565b600290810b900b60608301525b506102ba565b8115158a15151461054257602081015181518a0361054f565b8060000151890381602001515b9097509550891561065a57846001600160a01b031663d21220a76040518163ffffffff1660e01b815260040160206040518083038186803b15801561059357600080fd5b505afa1580156105a7573d6000803e3d6000fd5b505050506040513d601f19601f820116820180604052508101906105cb9190611a90565b6001600160a01b03166370a08231306040518263ffffffff1660e01b81526004016105f69190611cbc565b60206040518083038186803b15801561060e57600080fd5b505afa158015610622573d6000803e3d6000fd5b505050506040513d601f19601f820116820180604052508101906106469190611ca4565b86600019021061065557600080fd5b610755565b846001600160a01b0316630dfe16816040518163ffffffff1660e01b815260040160206040518083038186803b15801561069357600080fd5b505afa1580156106a7573d6000803e3d6000fd5b505050506040513d601f19601f820116820180604052508101906106cb9190611a90565b6001600160a01b03166370a08231306040518263ffffffff1660e01b81526004016106f69190611cbc565b60206040518083038186803b15801561070e57600080fd5b505afa158015610722573d6000803e3d6000fd5b505050506040513d601f19601f820116820180604052508101906107469190611ca4565b87600019021061075557600080fd5b505050505094509492505050565b60008060008590506000816001600160a01b031663d0c93a7c6040518163ffffffff1660e01b815260040160206040518083038186803b1580156107a657600080fd5b505afa1580156107ba573d6000803e3d6000fd5b505050506040513d601f19601f820116820180604052508101906107de9190611afe565b905060008160020b8760020b816107f157fe5b05905060008760020b12801561081857508160020b8760020b8161081157fe5b0760020b15155b1561082257600019015b851561090057600080610834836113b8565b60405163299ce14b60e11b81529193509150600160ff83161b8001600019019060009082906001600160a01b03891690635339c29690610878908890600401611cd0565b60206040518083038186803b15801561089057600080fd5b505afa1580156108a4573d6000803e3d6000fd5b505050506040513d601f19601f820116820180604052508101906108c89190611ca4565b1680151598509050876108e257858360ff168603026108f5565b856108ec826113ca565b840360ff168603025b9850505050506109df565b60008061090f836001016113b8565b60405163299ce14b60e11b81529193509150600019600160ff84161b01199060009082906001600160a01b03891690635339c29690610952908890600401611cd0565b60206040518083038186803b15801561096a57600080fd5b505afa15801561097e573d6000803e3d6000fd5b505050506040513d601f19601f820116820180604052508101906109a29190611ca4565b1680151598509050876109c257858360ff0360ff168660010101026109d8565b85836109cd8361146b565b0360ff168660010101025b9850505050505b505050935093915050565b60008060008360020b12610a01578260020b610a09565b8260020b6000035b9050620d89e8811115610a47576040805162461bcd60e51b81526020600482015260016024820152601560fa1b604482015290519081900360640190fd5b600060018216610a5b57600160801b610a6d565b6ffffcb933bd6fad37aa2d162d1a5940015b70ffffffffffffffffffffffffffffffffff1690506002821615610aa1576ffff97272373d413259a46990580e213a0260801c5b6004821615610ac0576ffff2e50f5f656932ef12357cf3c7fdcc0260801c5b6008821615610adf576fffe5caca7e10e4e61c3624eaa0941cd00260801c5b6010821615610afe576fffcb9843d60f6159c9db58835c9266440260801c5b6020821615610b1d576fff973b41fa98c081472e6896dfb254c00260801c5b6040821615610b3c576fff2ea16466c96a3843ec78b326b528610260801c5b6080821615610b5b576ffe5dee046a99a2a811c461f1969c30530260801c5b610100821615610b7b576ffcbe86c7900a88aedcffc83b479aa3a40260801c5b610200821615610b9b576ff987a7253ac413176f2b074cf7815e540260801c5b610400821615610bbb576ff3392b0822b70005940c7a398e4b70f30260801c5b610800821615610bdb576fe7159475a2c29b7443b29c7fa6e889d90260801c5b611000821615610bfb576fd097f3bdfd2022b8845ad8f792aa58250260801c5b612000821615610c1b576fa9f746462d870fdf8a65dc1f90e061e50260801c5b614000821615610c3b576f70d869a156d2a1b890bb3df62baf32f70260801c5b618000821615610c5b576f31be135f97d08fd981231505542fcfa60260801c5b62010000821615610c7c576f09aa508b5b7a84e1c677de54f3e99bc90260801c5b62020000821615610c9c576e5d6af8dedb81196699c329225ee6040260801c5b62040000821615610cbb576d2216e584f5fa1ea926041bedfe980260801c5b62080000821615610cd8576b048a170391f7dc42444e8fa20260801c5b60008460020b1315610cf3578060001981610cef57fe5b0490505b640100000000810615610d07576001610d0a565b60005b60ff16602082901c0192505050919050565b60008080806001600160a01b03808916908a161015818712801590610da1576000610d558989620f42400362ffffff16620f4240611555565b905082610d6e57610d698c8c8c6001611605565b610d7b565b610d7b8b8d8c6001611680565b9550858110610d8c578a9650610d9b565b610d988c8b838661172b565b96505b50610deb565b81610db857610db38b8b8b6000611680565b610dc5565b610dc58a8c8b6000611605565b9350838860000310610dd957899550610deb565b610de88b8a8a60000385611777565b95505b6001600160a01b038a8116908716148215610e4e57808015610e0a5750815b610e2057610e1b878d8c6001611680565b610e22565b855b9550808015610e2f575081155b610e4557610e40878d8c6000611605565b610e47565b845b9450610e98565b808015610e585750815b610e6e57610e698c888c6001611605565b610e70565b855b9550808015610e7d575081155b610e9357610e8e8c888c6000611680565b610e95565b845b94505b81158015610ea857508860000385115b15610eb4578860000394505b818015610ed357508a6001600160a01b0316876001600160a01b031614155b15610ee2578589039350610eff565b610efc868962ffffff168a620f42400362ffffff166117c3565b93505b50505095509550955095915050565b80820382811315600083121514610f2457600080fd5b92915050565b81810182811215600083121514610f2457600080fd5b60008060008060008060008060008a6001600160a01b031663f30dba938b6040518263ffffffff1660e01b8152600401610f7a9190611cde565b6101006040518083038186803b158015610f9357600080fd5b505afa158015610fa7573d6000803e3d6000fd5b505050506040513d601f19601f82011682018060405250810190610fcb9190611bdb565b50949e50505050505050505050505050505092915050565b60008082600f0b121561104857826001600160801b03168260000384039150816001600160801b031610611043576040805162461bcd60e51b81526020600482015260026024820152614c5360f01b604482015290519081900360640190fd5b610f24565b826001600160801b03168284019150816001600160801b03161015610f24576040805162461bcd60e51b81526020600482015260026024820152614c4160f01b604482015290519081900360640190fd5b60006401000276a36001600160a01b038316108015906110d5575073fffd8963efd1fc6a506488495d951d5263988d266001600160a01b038316105b61110a576040805162461bcd60e51b81526020600482015260016024820152602960f91b604482015290519081900360640190fd5b640100000000600160c01b03602083901b166001600160801b03811160071b81811c67ffffffffffffffff811160061b90811c63ffffffff811160051b90811c61ffff811160041b90811c60ff8111600390811b91821c600f811160021b90811c918211600190811b92831c9790881196179094179092171790911717176080811061119e57607f810383901c91506111a8565b80607f0383901b91505b908002607f81811c60ff83811c9190911c800280831c81831c1c800280841c81841c1c800280851c81851c1c800280861c81861c1c800280871c81871c1c800280881c81881c1c800280891c81891c1c8002808a1c818a1c1c8002808b1c818b1c1c8002808c1c818c1c1c8002808d1c818d1c1c8002808e1c9c81901c9c909c1c80029c8d901c9e9d607f198f0160401b60c09190911c678000000000000000161760c19b909b1c674000000000000000169a909a1760c29990991c672000000000000000169890981760c39790971c671000000000000000169690961760c49590951c670800000000000000169490941760c59390931c670400000000000000169290921760c69190911c670200000000000000161760c79190911c670100000000000000161760c89190911c6680000000000000161760c99190911c6640000000000000161760ca9190911c6620000000000000161760cb9190911c6610000000000000161760cc9190911c6608000000000000161760cd9190911c66040000000000001617693627a301d71055774c8581026f028f6481ab7f045a5af012a19d003aa9198101608090811d906fdb2df09e81959a81455e260799a0632f8301901d600281810b9083900b146113a957886001600160a01b031661138d826109ea565b6001600160a01b031611156113a257816113a4565b805b6113ab565b815b9998505050505050505050565b60020b600881901d9161010090910790565b60008082116113d857600080fd5b600160801b82106113eb57608091821c91015b68010000000000000000821061140357604091821c91015b640100000000821061141757602091821c91015b62010000821061142957601091821c91015b610100821061143a57600891821c91015b6010821061144a57600491821c91015b6004821061145a57600291821c91015b60028210611466576001015b919050565b600080821161147957600080fd5b5060ff6001600160801b0382161561149457607f190161149c565b608082901c91505b67ffffffffffffffff8216156114b557603f19016114bd565b604082901c91505b63ffffffff8216156114d257601f19016114da565b602082901c91505b61ffff8216156114ed57600f19016114f5565b601082901c91505b60ff821615611507576007190161150f565b600882901c91505b600f8216156115215760031901611529565b600482901c91505b600382161561153b5760011901611543565b600282901c91505b60018216156114665760001901919050565b600080806000198587098686029250828110908390030390508061158b576000841161158057600080fd5b5082900490506115fe565b80841161159757600080fd5b6000848688096000868103871696879004966002600389028118808a02820302808a02820302808a02820302808a02820302808a02820302808a02909103029181900381900460010186841190950394909402919094039290920491909117919091029150505b9392505050565b6000836001600160a01b0316856001600160a01b03161115611625579293925b816116525761164d836001600160801b03168686036001600160a01b0316600160601b611555565b611675565b611675836001600160801b03168686036001600160a01b0316600160601b6117c3565b90505b949350505050565b6000836001600160a01b0316856001600160a01b031611156116a0579293925b600160601b600160e01b03606084901b166001600160a01b0386860381169087166116ca57600080fd5b836116fa57866001600160a01b03166116ed8383896001600160a01b0316611555565b816116f457fe5b04611720565b6117206117118383896001600160a01b03166117c3565b886001600160a01b03166117fd565b979650505050505050565b600080856001600160a01b03161161174257600080fd5b6000846001600160801b03161161175857600080fd5b8161176a5761164d8585856001611808565b61167585858560016118e9565b600080856001600160a01b03161161178e57600080fd5b6000846001600160801b0316116117a457600080fd5b816117b65761164d85858560006118e9565b6116758585856000611808565b60006117d0848484611555565b9050600082806117dc57fe5b84860911156115fe5760001981106117f357600080fd5b6001019392505050565b808204910615150190565b6000811561187b5760006001600160a01b0384111561183e5761183984600160601b876001600160801b0316611555565b611856565b6001600160801b038516606085901b8161185457fe5b045b905061187361186e6001600160a01b038816836119cc565b6119dc565b915050611678565b60006001600160a01b038411156118a9576118a484600160601b876001600160801b03166117c3565b6118c0565b6118c0606085901b6001600160801b0387166117fd565b905080866001600160a01b0316116118d757600080fd5b6001600160a01b038616039050611678565b6000826118f7575083611678565b600160601b600160e01b03606085901b168215611985576001600160a01b0386168481029085828161192557fe5b041415611956578181018281106119545761194a83896001600160a01b0316836117c3565b9350505050611678565b505b61197c82611977878a6001600160a01b0316868161197057fe5b04906119cc565b6117fd565b92505050611678565b6001600160a01b0386168481029085828161199c57fe5b041480156119a957508082115b6119b257600080fd5b80820361194a61186e846001600160a01b038b16846117c3565b80820182811015610f2457600080fd5b806001600160a01b038116811461146657600080fd5b6040805160e081018252600080825260208201819052918101829052606081018290526080810182905260a0810182905260c081019190915290565b805161146681611d12565b8051600281900b811461146657600080fd5b80516001600160801b038116811461146657600080fd5b805161146681611cfa565b805161ffff8116811461146657600080fd5b805160ff8116811461146657600080fd5b600060208284031215611aa1578081fd5b81516115fe81611cfa565b60008060008060808587031215611ac1578283fd5b8435611acc81611cfa565b93506020850135611adc81611d12565b9250604085013591506060850135611af381611cfa565b939692955090935050565b600060208284031215611b0f578081fd5b6115fe82611a39565b600060e08284031215611b29578081fd5b60405160e0810181811067ffffffffffffffff82111715611b4657fe5b604052611b5283611a62565b8152611b6060208401611a39565b6020820152611b7160408401611a6d565b6040820152611b8260608401611a6d565b6060820152611b9360808401611a6d565b6080820152611ba460a08401611a7f565b60a0820152611bb560c08401611a2e565b60c08201529392505050565b600060208284031215611bd2578081fd5b6115fe82611a4b565b600080600080600080600080610100898b031215611bf7578384fd5b611c0089611a4b565b9750602089015180600f0b8114611c15578485fd5b80975050604089015195506060890151945060808901518060060b8114611c3a578485fd5b60a08a0151909450611c4b81611cfa565b60c08a015190935063ffffffff81168114611c64578283fd5b9150611c7260e08a01611a2e565b90509295985092959890939650565b600060208284031215611c92578081fd5b815162ffffff811681146115fe578182fd5b600060208284031215611cb5578081fd5b5051919050565b6001600160a01b0391909116815260200190565b60019190910b815260200190565b60029190910b815260200190565b918252602082015260400190565b6001600160a01b0381168114611d0f57600080fd5b50565b8015158114611d0f57600080fdfea26469706673582212206892c23cc160b59038da3c8d2eab54ca5304aa659e0e1be74486559ad8c1c45164736f6c63430007060033",
  "bytecodeSha1": "51b189f027484efde020263c32e7c8a79dad64ef",
  "compiler": {
    "evm_version": "istanbul",
    "optimizer": {
      "enabled": true,
      "runs": 200
    },
    "version": "0.7.6+commit.7338295f"
  },
  "contractName": "UniV3Calc",
  "language": "Solidity",
  "natspec": {
    "kind": "dev",
    "methods": {},
    "version": 1
  },
  "opcodes": "PUSH1 0x80 PUSH1 0x40 MSTORE CALLVALUE DUP1 ISZERO PUSH2 0x10 JUMPI PUSH1 0x0 DUP1 REVERT JUMPDEST POP PUSH1 0x4 CALLDATASIZE LT PUSH2 0x2B JUMPI PUSH1 0x0 CALLDATALOAD PUSH1 0xE0 SHR DUP1 PUSH4 0x9FE2228A EQ PUSH2 0x30 JUMPI JUMPDEST PUSH1 0x0 DUP1 REVERT JUMPDEST PUSH2 0x43 PUSH2 0x3E CALLDATASIZE PUSH1 0x4 PUSH2 0x1AAC JUMP JUMPDEST PUSH2 0x5A JUMP JUMPDEST PUSH1 0x40 MLOAD PUSH2 0x51 SWAP3 SWAP2 SWAP1 PUSH2 0x1CEC JUMP JUMPDEST PUSH1 0x40 MLOAD DUP1 SWAP2 SUB SWAP1 RETURN JUMPDEST PUSH1 0x0 DUP1 DUP4 PUSH2 0x67 JUMPI PUSH1 0x0 DUP1 REVERT JUMPDEST PUSH1 0x0 DUP7 SWAP1 POP PUSH1 0x0 DUP2 PUSH1 0x1 PUSH1 0x1 PUSH1 0xA0 SHL SUB AND PUSH4 0xDDCA3F43 PUSH1 0x40 MLOAD DUP2 PUSH4 0xFFFFFFFF AND PUSH1 0xE0 SHL DUP2 MSTORE PUSH1 0x4 ADD PUSH1 0x20 PUSH1 0x40 MLOAD DUP1 DUP4 SUB DUP2 DUP7 DUP1 EXTCODESIZE ISZERO DUP1 ISZERO PUSH2 0xA7 JUMPI PUSH1 0x0 DUP1 REVERT JUMPDEST POP GAS STATICCALL ISZERO DUP1 ISZERO PUSH2 0xBB JUMPI RETURNDATASIZE PUSH1 0x0 DUP1 RETURNDATACOPY RETURNDATASIZE PUSH1 0x0 REVERT JUMPDEST POP POP POP POP PUSH1 0x40 MLOAD RETURNDATASIZE PUSH1 0x1F NOT PUSH1 0x1F DUP3 ADD AND DUP3 ADD DUP1 PUSH1 0x40 MSTORE POP DUP2 ADD SWAP1 PUSH2 0xDF SWAP2 SWAP1 PUSH2 0x1C81 JUMP JUMPDEST SWAP1 POP PUSH1 0x0 DUP3 PUSH1 0x1 PUSH1 0x1 PUSH1 0xA0 SHL SUB AND PUSH4 0x3850C7BD PUSH1 0x40 MLOAD DUP2 PUSH4 0xFFFFFFFF AND PUSH1 0xE0 SHL DUP2 MSTORE PUSH1 0x4 ADD PUSH1 0xE0 PUSH1 0x40 MLOAD DUP1 DUP4 SUB DUP2 DUP7 DUP1 EXTCODESIZE ISZERO DUP1 ISZERO PUSH2 0x11C JUMPI PUSH1 0x0 DUP1 REVERT JUMPDEST POP GAS STATICCALL ISZERO DUP1 ISZERO PUSH2 0x130 JUMPI RETURNDATASIZE PUSH1 0x0 DUP1 RETURNDATACOPY RETURNDATASIZE PUSH1 0x0 REVERT JUMPDEST POP POP POP POP PUSH1 0x40 MLOAD RETURNDATASIZE PUSH1 0x1F NOT PUSH1 0x1F DUP3 ADD AND DUP3 ADD DUP1 PUSH1 0x40 MSTORE POP DUP2 ADD SWAP1 PUSH2 0x154 SWAP2 SWAP1 PUSH2 0x1B18 JUMP JUMPDEST SWAP1 POP DUP1 PUSH1 0xC0 ADD MLOAD PUSH2 0x164 JUMPI PUSH1 0x0 DUP1 REVERT JUMPDEST DUP8 PUSH2 0x1AF JUMPI DUP1 PUSH1 0x0 ADD MLOAD PUSH1 0x1 PUSH1 0x1 PUSH1 0xA0 SHL SUB AND DUP7 PUSH1 0x1 PUSH1 0x1 PUSH1 0xA0 SHL SUB AND GT DUP1 ISZERO PUSH2 0x1AA JUMPI POP PUSH20 0xFFFD8963EFD1FC6A506488495D951D5263988D26 PUSH1 0x1 PUSH1 0x1 PUSH1 0xA0 SHL SUB DUP8 AND LT JUMPDEST PUSH2 0x1E1 JUMP JUMPDEST DUP1 PUSH1 0x0 ADD MLOAD PUSH1 0x1 PUSH1 0x1 PUSH1 0xA0 SHL SUB AND DUP7 PUSH1 0x1 PUSH1 0x1 PUSH1 0xA0 SHL SUB AND LT DUP1 ISZERO PUSH2 0x1E1 JUMPI POP PUSH5 0x1000276A3 PUSH1 0x1 PUSH1 0x1 PUSH1 0xA0 SHL SUB DUP8 AND GT JUMPDEST PUSH2 0x1EA JUMPI PUSH1 0x0 DUP1 REVERT JUMPDEST PUSH1 0x0 DUP1 DUP9 SGT SWAP1 POP PUSH1 0x0 PUSH1 0x40 MLOAD DUP1 PUSH1 0xC0 ADD PUSH1 0x40 MSTORE DUP1 DUP11 DUP2 MSTORE PUSH1 0x20 ADD PUSH1 0x0 DUP2 MSTORE PUSH1 0x20 ADD DUP5 PUSH1 0x0 ADD MLOAD PUSH1 0x1 PUSH1 0x1 PUSH1 0xA0 SHL SUB AND DUP2 MSTORE PUSH1 0x20 ADD DUP5 PUSH1 0x20 ADD MLOAD PUSH1 0x2 SIGNEXTEND DUP2 MSTORE PUSH1 0x20 ADD PUSH1 0x0 PUSH1 0x1 PUSH1 0x1 PUSH1 0x80 SHL SUB AND DUP2 MSTORE PUSH1 0x20 ADD DUP7 PUSH1 0x1 PUSH1 0x1 PUSH1 0xA0 SHL SUB AND PUSH4 0x1A686502 PUSH1 0x40 MLOAD DUP2 PUSH4 0xFFFFFFFF AND PUSH1 0xE0 SHL DUP2 MSTORE PUSH1 0x4 ADD PUSH1 0x20 PUSH1 0x40 MLOAD DUP1 DUP4 SUB DUP2 DUP7 DUP1 EXTCODESIZE ISZERO DUP1 ISZERO PUSH2 0x274 JUMPI PUSH1 0x0 DUP1 REVERT JUMPDEST POP GAS STATICCALL ISZERO DUP1 ISZERO PUSH2 0x288 JUMPI RETURNDATASIZE PUSH1 0x0 DUP1 RETURNDATACOPY RETURNDATASIZE PUSH1 0x0 REVERT JUMPDEST POP POP POP POP PUSH1 0x40 MLOAD RETURNDATASIZE PUSH1 0x1F NOT PUSH1 0x1F DUP3 ADD AND DUP3 ADD DUP1 PUSH1 0x40 MSTORE POP DUP2 ADD SWAP1 PUSH2 0x2AC SWAP2 SWAP1 PUSH2 0x1BC1 JUMP JUMPDEST PUSH1 0x1 PUSH1 0x1 PUSH1 0x80 SHL SUB AND SWAP1 MSTORE SWAP1 POP JUMPDEST DUP1 MLOAD ISZERO DUP1 ISZERO SWAP1 PUSH2 0x2E0 JUMPI POP DUP8 PUSH1 0x1 PUSH1 0x1 PUSH1 0xA0 SHL SUB AND DUP2 PUSH1 0x40 ADD MLOAD PUSH1 0x1 PUSH1 0x1 PUSH1 0xA0 SHL SUB AND EQ ISZERO JUMPDEST ISZERO PUSH2 0x529 JUMPI PUSH2 0x2ED PUSH2 0x19F2 JUMP JUMPDEST PUSH1 0x40 DUP3 ADD MLOAD PUSH1 0x1 PUSH1 0x1 PUSH1 0xA0 SHL SUB AND DUP2 MSTORE PUSH1 0x60 DUP3 ADD MLOAD PUSH2 0x30E SWAP1 DUP14 SWAP1 DUP14 PUSH2 0x763 JUMP JUMPDEST ISZERO ISZERO PUSH1 0x40 DUP4 ADD MSTORE PUSH1 0x2 SWAP1 DUP2 SIGNEXTEND DUP2 SIGNEXTEND PUSH1 0x20 DUP4 ADD DUP2 SWAP1 MSTORE PUSH3 0xD89E7 NOT SWAP2 SIGNEXTEND SLT ISZERO PUSH2 0x33F JUMPI PUSH3 0xD89E7 NOT PUSH1 0x20 DUP3 ADD MSTORE PUSH2 0x35E JUMP JUMPDEST PUSH1 0x20 DUP2 ADD MLOAD PUSH3 0xD89E8 PUSH1 0x2 SWAP2 SWAP1 SWAP2 SIGNEXTEND SGT ISZERO PUSH2 0x35E JUMPI PUSH3 0xD89E8 PUSH1 0x20 DUP3 ADD MSTORE JUMPDEST PUSH2 0x36B DUP2 PUSH1 0x20 ADD MLOAD PUSH2 0x9EA JUMP JUMPDEST PUSH1 0x1 PUSH1 0x1 PUSH1 0xA0 SHL SUB AND PUSH1 0x60 DUP3 ADD MSTORE PUSH1 0x40 DUP3 ADD MLOAD PUSH2 0x3DC SWAP1 DUP13 PUSH2 0x3A5 JUMPI DUP11 PUSH1 0x1 PUSH1 0x1 PUSH1 0xA0 SHL SUB AND DUP4 PUSH1 0x60 ADD MLOAD PUSH1 0x1 PUSH1 0x1 PUSH1 0xA0 SHL SUB AND GT PUSH2 0x3BF JUMP JUMPDEST DUP11 PUSH1 0x1 PUSH1 0x1 PUSH1 0xA0 SHL SUB AND DUP4 PUSH1 0x60 ADD MLOAD PUSH1 0x1 PUSH1 0x1 PUSH1 0xA0 SHL SUB AND LT JUMPDEST PUSH2 0x3CD JUMPI DUP3 PUSH1 0x60 ADD MLOAD PUSH2 0x3CF JUMP JUMPDEST DUP11 JUMPDEST PUSH1 0xA0 DUP6 ADD MLOAD DUP6 MLOAD DUP10 PUSH2 0xD1C JUMP JUMPDEST PUSH1 0xC0 DUP6 ADD MSTORE PUSH1 0xA0 DUP5 ADD MSTORE PUSH1 0x80 DUP4 ADD MSTORE PUSH1 0x1 PUSH1 0x1 PUSH1 0xA0 SHL SUB AND PUSH1 0x40 DUP4 ADD MSTORE DUP3 ISZERO PUSH2 0x42E JUMPI PUSH1 0xC0 DUP2 ADD MLOAD PUSH1 0x80 DUP3 ADD MLOAD DUP4 MLOAD SWAP2 ADD SWAP1 SUB DUP3 MSTORE PUSH1 0xA0 DUP2 ADD MLOAD PUSH1 0x20 DUP4 ADD MLOAD PUSH2 0x424 SWAP2 PUSH2 0xF0E JUMP JUMPDEST PUSH1 0x20 DUP4 ADD MSTORE PUSH2 0x459 JUMP JUMPDEST PUSH1 0xA0 DUP2 ADD MLOAD DUP3 MLOAD ADD DUP3 MSTORE PUSH1 0xC0 DUP2 ADD MLOAD PUSH1 0x80 DUP3 ADD MLOAD PUSH1 0x20 DUP5 ADD MLOAD PUSH2 0x453 SWAP3 SWAP1 SWAP2 ADD PUSH2 0xF2A JUMP JUMPDEST PUSH1 0x20 DUP4 ADD MSTORE JUMPDEST DUP1 PUSH1 0x60 ADD MLOAD PUSH1 0x1 PUSH1 0x1 PUSH1 0xA0 SHL SUB AND DUP3 PUSH1 0x40 ADD MLOAD PUSH1 0x1 PUSH1 0x1 PUSH1 0xA0 SHL SUB AND EQ ISZERO PUSH2 0x4E8 JUMPI DUP1 PUSH1 0x40 ADD MLOAD ISZERO PUSH2 0x4BF JUMPI PUSH1 0x0 PUSH2 0x495 DUP8 DUP4 PUSH1 0x20 ADD MLOAD PUSH2 0xF40 JUMP JUMPDEST SWAP1 POP DUP12 ISZERO PUSH2 0x4A1 JUMPI PUSH1 0x0 SUB JUMPDEST PUSH2 0x4AF DUP4 PUSH1 0xA0 ADD MLOAD DUP3 PUSH2 0xFE3 JUMP JUMPDEST PUSH1 0x1 PUSH1 0x1 PUSH1 0x80 SHL SUB AND PUSH1 0xA0 DUP5 ADD MSTORE POP JUMPDEST DUP11 PUSH2 0x4CE JUMPI DUP1 PUSH1 0x20 ADD MLOAD PUSH2 0x4D7 JUMP JUMPDEST PUSH1 0x1 DUP2 PUSH1 0x20 ADD MLOAD SUB JUMPDEST PUSH1 0x2 SWAP1 DUP2 SIGNEXTEND SWAP1 SIGNEXTEND PUSH1 0x60 DUP4 ADD MSTORE PUSH2 0x523 JUMP JUMPDEST DUP1 PUSH1 0x0 ADD MLOAD PUSH1 0x1 PUSH1 0x1 PUSH1 0xA0 SHL SUB AND DUP3 PUSH1 0x40 ADD MLOAD PUSH1 0x1 PUSH1 0x1 PUSH1 0xA0 SHL SUB AND EQ PUSH2 0x523 JUMPI PUSH2 0x516 DUP3 PUSH1 0x40 ADD MLOAD PUSH2 0x1099 JUMP JUMPDEST PUSH1 0x2 SWAP1 DUP2 SIGNEXTEND SWAP1 SIGNEXTEND PUSH1 0x60 DUP4 ADD MSTORE JUMPDEST POP PUSH2 0x2BA JUMP JUMPDEST DUP2 ISZERO ISZERO DUP11 ISZERO ISZERO EQ PUSH2 0x542 JUMPI PUSH1 0x20 DUP2 ADD MLOAD DUP2 MLOAD DUP11 SUB PUSH2 0x54F JUMP JUMPDEST DUP1 PUSH1 0x0 ADD MLOAD DUP10 SUB DUP2 PUSH1 0x20 ADD MLOAD JUMPDEST SWAP1 SWAP8 POP SWAP6 POP DUP10 ISZERO PUSH2 0x65A JUMPI DUP5 PUSH1 0x1 PUSH1 0x1 PUSH1 0xA0 SHL SUB AND PUSH4 0xD21220A7 PUSH1 0x40 MLOAD DUP2 PUSH4 0xFFFFFFFF AND PUSH1 0xE0 SHL DUP2 MSTORE PUSH1 0x4 ADD PUSH1 0x20 PUSH1 0x40 MLOAD DUP1 DUP4 SUB DUP2 DUP7 DUP1 EXTCODESIZE ISZERO DUP1 ISZERO PUSH2 0x593 JUMPI PUSH1 0x0 DUP1 REVERT JUMPDEST POP GAS STATICCALL ISZERO DUP1 ISZERO PUSH2 0x5A7 JUMPI RETURNDATASIZE PUSH1 0x0 DUP1 RETURNDATACOPY RETURNDATASIZE PUSH1 0x0 REVERT JUMPDEST POP POP POP POP PUSH1 0x40 MLOAD RETURNDATASIZE PUSH1 0x1F NOT PUSH1 0x1F DUP3 ADD AND DUP3 ADD DUP1 PUSH1 0x40 MSTORE POP DUP2 ADD SWAP1 PUSH2 0x5CB SWAP2 SWAP1 PUSH2 0x1A90 JUMP JUMPDEST PUSH1 0x1 PUSH1 0x1 PUSH1 0xA0 SHL SUB AND PUSH4 0x70A08231 ADDRESS PUSH1 0x40 MLOAD DUP3 PUSH4 0xFFFFFFFF AND PUSH1 0xE0 SHL DUP2 MSTORE PUSH1 0x4 ADD PUSH2 0x5F6 SWAP2 SWAP1 PUSH2 0x1CBC JUMP JUMPDEST PUSH1 0x20 PUSH1 0x40 MLOAD DUP1 DUP4 SUB DUP2 DUP7 DUP1 EXTCODESIZE ISZERO DUP1 ISZERO PUSH2 0x60E JUMPI PUSH1 0x0 DUP1 REVERT JUMPDEST POP GAS STATICCALL ISZERO DUP1 ISZERO PUSH2 0x622 JUMPI RETURNDATASIZE PUSH1 0x0 DUP1 RETURNDATACOPY RETURNDATASIZE PUSH1 0x0 REVERT JUMPDEST POP POP POP POP PUSH1 0x40 MLOAD RETURNDATASIZE PUSH1 0x1F NOT PUSH1 0x1F DUP3 ADD AND DUP3 ADD DUP1 PUSH1 0x40 MSTORE POP DUP2 ADD SWAP1 PUSH2 0x646 SWAP2 SWAP1 PUSH2 0x1CA4 JUMP JUMPDEST DUP7 PUSH1 0x0 NOT MUL LT PUSH2 0x655 JUMPI PUSH1 0x0 DUP1 REVERT JUMPDEST PUSH2 0x755 JUMP JUMPDEST DUP5 PUSH1 0x1 PUSH1 0x1 PUSH1 0xA0 SHL SUB AND PUSH4 0xDFE1681 PUSH1 0x40 MLOAD DUP2 PUSH4 0xFFFFFFFF AND PUSH1 0xE0 SHL DUP2 MSTORE PUSH1 0x4 ADD PUSH1 0x20 PUSH1 0x40 MLOAD DUP1 DUP4 SUB DUP2 DUP7 DUP1 EXTCODESIZE ISZERO DUP1 ISZERO PUSH2 0x693 JUMPI PUSH1 0x0 DUP1 REVERT JUMPDEST POP GAS STATICCALL ISZERO DUP1 ISZERO PUSH2 0x6A7 JUMPI RETURNDATASIZE PUSH1 0x0 DUP1 RETURNDATACOPY RETURNDATASIZE PUSH1 0x0 REVERT JUMPDEST POP POP POP POP PUSH1 0x40 MLOAD RETURNDATASIZE PUSH1 0x1F NOT PUSH1 0x1F DUP3 ADD AND DUP3 ADD DUP1 PUSH1 0x40 MSTORE POP DUP2 ADD SWAP1 PUSH2 0x6CB SWAP2 SWAP1 PUSH2 0x1A90 JUMP JUMPDEST PUSH1 0x1 PUSH1 0x1 PUSH1 0xA0 SHL SUB AND PUSH4 0x70A08231 ADDRESS PUSH1 0x40 MLOAD DUP3 PUSH4 0xFFFFFFFF AND PUSH1 0xE0 SHL DUP2 MSTORE PUSH1 0x4 ADD PUSH2 0x6F6 SWAP2 SWAP1 PUSH2 0x1CBC JUMP JUMPDEST PUSH1 0x20 PUSH1 0x40 MLOAD DUP1 DUP4 SUB DUP2 DUP7 DUP1 EXTCODESIZE ISZERO DUP1 ISZERO PUSH2 0x70E JUMPI PUSH1 0x0 DUP1 REVERT JUMPDEST POP GAS STATICCALL ISZERO DUP1 ISZERO PUSH2 0x722 JUMPI RETURNDATASIZE PUSH1 0x0 DUP1 RETURNDATACOPY RETURNDATASIZE PUSH1 0x0 REVERT JUMPDEST POP POP POP POP PUSH1 0x40 MLOAD RETURNDATASIZE PUSH1 0x1F NOT PUSH1 0x1F DUP3 ADD AND DUP3 ADD DUP1 PUSH1 0x40 MSTORE POP DUP2 ADD SWAP1 PUSH2 0x746 SWAP2 SWAP1 PUSH2 0x1CA4 JUMP JUMPDEST DUP8 PUSH1 0x0 NOT MUL LT PUSH2 0x755 JUMPI PUSH1 0x0 DUP1 REVERT JUMPDEST POP POP POP POP POP SWAP5 POP SWAP5 SWAP3 POP POP POP JUMP JUMPDEST PUSH1 0x0 DUP1 PUSH1 0x0 DUP6 SWAP1 POP PUSH1 0x0 DUP2 PUSH1 0x1 PUSH1 0x1 PUSH1 0xA0 SHL SUB AND PUSH4 0xD0C93A7C PUSH1 0x40 MLOAD DUP2 PUSH4 0xFFFFFFFF AND PUSH1 0xE0 SHL DUP2 MSTORE PUSH1 0x4 ADD PUSH1 0x20 PUSH1 0x40 MLOAD DUP1 DUP4 SUB DUP2 DUP7 DUP1 EXTCODESIZE ISZERO DUP1 ISZERO PUSH2 0x7A6 JUMPI PUSH1 0x0 DUP1 REVERT JUMPDEST POP GAS STATICCALL ISZERO DUP1 ISZERO PUSH2 0x7BA JUMPI RETURNDATASIZE PUSH1 0x0 DUP1 RETURNDATACOPY RETURNDATASIZE PUSH1 0x0 REVERT JUMPDEST POP POP POP POP PUSH1 0x40 MLOAD RETURNDATASIZE PUSH1 0x1F NOT PUSH1 0x1F DUP3 ADD AND DUP3 ADD DUP1 PUSH1 0x40 MSTORE POP DUP2 ADD SWAP1 PUSH2 0x7DE SWAP2 SWAP1 PUSH2 0x1AFE JUMP JUMPDEST SWAP1 POP PUSH1 0x0 DUP2 PUSH1 0x2 SIGNEXTEND DUP8 PUSH1 0x2 SIGNEXTEND DUP2 PUSH2 0x7F1 JUMPI INVALID JUMPDEST SDIV SWAP1 POP PUSH1 0x0 DUP8 PUSH1 0x2 SIGNEXTEND SLT DUP1 ISZERO PUSH2 0x818 JUMPI POP DUP2 PUSH1 0x2 SIGNEXTEND DUP8 PUSH1 0x2 SIGNEXTEND DUP2 PUSH2 0x811 JUMPI INVALID JUMPDEST SMOD PUSH1 0x2 SIGNEXTEND ISZERO ISZERO JUMPDEST ISZERO PUSH2 0x822 JUMPI PUSH1 0x0 NOT ADD JUMPDEST DUP6 ISZERO PUSH2 0x900 JUMPI PUSH1 0x0 DUP1 PUSH2 0x834 DUP4 PUSH2 0x13B8 JUMP JUMPDEST PUSH1 0x40 MLOAD PUSH4 0x299CE14B PUSH1 0xE1 SHL DUP2 MSTORE SWAP2 SWAP4 POP SWAP2 POP PUSH1 0x1 PUSH1 0xFF DUP4 AND SHL DUP1 ADD PUSH1 0x0 NOT ADD SWAP1 PUSH1 0x0 SWAP1 DUP3 SWAP1 PUSH1 0x1 PUSH1 0x1 PUSH1 0xA0 SHL SUB DUP10 AND SWAP1 PUSH4 0x5339C296 SWAP1 PUSH2 0x878 SWAP1 DUP9 SWAP1 PUSH1 0x4 ADD PUSH2 0x1CD0 JUMP JUMPDEST PUSH1 0x20 PUSH1 0x40 MLOAD DUP1 DUP4 SUB DUP2 DUP7 DUP1 EXTCODESIZE ISZERO DUP1 ISZERO PUSH2 0x890 JUMPI PUSH1 0x0 DUP1 REVERT JUMPDEST POP GAS STATICCALL ISZERO DUP1 ISZERO PUSH2 0x8A4 JUMPI RETURNDATASIZE PUSH1 0x0 DUP1 RETURNDATACOPY RETURNDATASIZE PUSH1 0x0 REVERT JUMPDEST POP POP POP POP PUSH1 0x40 MLOAD RETURNDATASIZE PUSH1 0x1F NOT PUSH1 0x1F DUP3 ADD AND DUP3 ADD DUP1 PUSH1 0x40 MSTORE POP DUP2 ADD SWAP1 PUSH2 0x8C8 SWAP2 SWAP1 PUSH2 0x1CA4 JUMP JUMPDEST AND DUP1 ISZERO ISZERO SWAP9 POP SWAP1 POP DUP8 PUSH2 0x8E2 JUMPI DUP6 DUP4 PUSH1 0xFF AND DUP7 SUB MUL PUSH2 0x8F5 JUMP JUMPDEST DUP6 PUSH2 0x8EC DUP3 PUSH2 0x13CA JUMP JUMPDEST DUP5 SUB PUSH1 0xFF AND DUP7 SUB MUL JUMPDEST SWAP9 POP POP POP POP POP PUSH2 0x9DF JUMP JUMPDEST PUSH1 0x0 DUP1 PUSH2 0x90F DUP4 PUSH1 0x1 ADD PUSH2 0x13B8 JUMP JUMPDEST PUSH1 0x40 MLOAD PUSH4 0x299CE14B PUSH1 0xE1 SHL DUP2 MSTORE SWAP2 SWAP4 POP SWAP2 POP PUSH1 0x0 NOT PUSH1 0x1 PUSH1 0xFF DUP5 AND SHL ADD NOT SWAP1 PUSH1 0x0 SWAP1 DUP3 SWAP1 PUSH1 0x1 PUSH1 0x1 PUSH1 0xA0 SHL SUB DUP10 AND SWAP1 PUSH4 0x5339C296 SWAP1 PUSH2 0x952 SWAP1 DUP9 SWAP1 PUSH1 0x4 ADD PUSH2 0x1CD0 JUMP JUMPDEST PUSH1 0x20 PUSH1 0x40 MLOAD DUP1 DUP4 SUB DUP2 DUP7 DUP1 EXTCODESIZE ISZERO DUP1 ISZERO PUSH2 0x96A JUMPI PUSH1 0x0 DUP1 REVERT JUMPDEST POP GAS STATICCALL ISZERO DUP1 ISZERO PUSH2 0x97E JUMPI RETURNDATASIZE PUSH1 0x0 DUP1 RETURNDATACOPY RETURNDATASIZE PUSH1 0x0 REVERT JUMPDEST POP POP POP POP PUSH1 0x40 MLOAD RETURNDATASIZE PUSH1 0x1F NOT PUSH1 0x1F DUP3 ADD AND DUP3 ADD DUP1 PUSH1 0x40 MSTORE POP DUP2 ADD SWAP1 PUSH2 0x9A2 SWAP2 SWAP1 PUSH2 0x1CA4 JUMP JUMPDEST AND DUP1 ISZERO ISZERO SWAP9 POP SWAP1 POP DUP8 PUSH2 0x9C2 JUMPI DUP6 DUP4 PUSH1 0xFF SUB PUSH1 0xFF AND DUP7 PUSH1 0x1 ADD ADD MUL PUSH2 0x9D8 JUMP JUMPDEST DUP6 DUP4 PUSH2 0x9CD DUP4 PUSH2 0x146B JUMP JUMPDEST SUB PUSH1 0xFF AND DUP7 PUSH1 0x1 ADD ADD MUL JUMPDEST SWAP9 POP POP POP POP POP JUMPDEST POP POP POP SWAP4 POP SWAP4 SWAP2 POP POP JUMP JUMPDEST PUSH1 0x0 DUP1 PUSH1 0x0 DUP4 PUSH1 0x2 SIGNEXTEND SLT PUSH2 0xA01 JUMPI DUP3 PUSH1 0x2 SIGNEXTEND PUSH2 0xA09 JUMP JUMPDEST DUP3 PUSH1 0x2 SIGNEXTEND PUSH1 0x0 SUB JUMPDEST SWAP1 POP PUSH3 0xD89E8 DUP2 GT ISZERO PUSH2 0xA47 JUMPI PUSH1 0x40 DUP1 MLOAD PUSH3 0x461BCD PUSH1 0xE5 SHL DUP2 MSTORE PUSH1 0x20 PUSH1 0x4 DUP3 ADD MSTORE PUSH1 0x1 PUSH1 0x24 DUP3 ADD MSTORE PUSH1 0x15 PUSH1 0xFA SHL PUSH1 0x44 DUP3 ADD MSTORE SWAP1 MLOAD SWAP1 DUP2 SWAP1 SUB PUSH1 0x64 ADD SWAP1 REVERT JUMPDEST PUSH1 0x0 PUSH1 0x1 DUP3 AND PUSH2 0xA5B JUMPI PUSH1 0x1 PUSH1 0x80 SHL PUSH2 0xA6D JUMP JUMPDEST PUSH16 0xFFFCB933BD6FAD37AA2D162D1A594001 JUMPDEST PUSH17 0xFFFFFFFFFFFFFFFFFFFFFFFFFFFFFFFFFF AND SWAP1 POP PUSH1 0x2 DUP3 AND ISZERO PUSH2 0xAA1 JUMPI PUSH16 0xFFF97272373D413259A46990580E213A MUL PUSH1 0x80 SHR JUMPDEST PUSH1 0x4 DUP3 AND ISZERO PUSH2 0xAC0 JUMPI PUSH16 0xFFF2E50F5F656932EF12357CF3C7FDCC MUL PUSH1 0x80 SHR JUMPDEST PUSH1 0x8 DUP3 AND ISZERO PUSH2 0xADF JUMPI PUSH16 0xFFE5CACA7E10E4E61C3624EAA0941CD0 MUL PUSH1 0x80 SHR JUMPDEST PUSH1 0x10 DUP3 AND ISZERO PUSH2 0xAFE JUMPI PUSH16 0xFFCB9843D60F6159C9DB58835C926644 MUL PUSH1 0x80 SHR JUMPDEST PUSH1 0x20 DUP3 AND ISZERO PUSH2 0xB1D JUMPI PUSH16 0xFF973B41FA98C081472E6896DFB254C0 MUL PUSH1 0x80 SHR JUMPDEST PUSH1 0x40 DUP3 AND ISZERO PUSH2 0xB3C JUMPI PUSH16 0xFF2EA16466C96A3843EC78B326B52861 MUL PUSH1 0x80 SHR JUMPDEST PUSH1 0x80 DUP3 AND ISZERO PUSH2 0xB5B JUMPI PUSH16 0xFE5DEE046A99A2A811C461F1969C3053 MUL PUSH1 0x80 SHR JUMPDEST PUSH2 0x100 DUP3 AND ISZERO PUSH2 0xB7B JUMPI PUSH16 0xFCBE86C7900A88AEDCFFC83B479AA3A4 MUL PUSH1 0x80 SHR JUMPDEST PUSH2 0x200 DUP3 AND ISZERO PUSH2 0xB9B JUMPI PUSH16 0xF987A7253AC413176F2B074CF7815E54 MUL PUSH1 0x80 SHR JUMPDEST PUSH2 0x400 DUP3 AND ISZERO PUSH2 0xBBB JUMPI PUSH16 0xF3392B0822B70005940C7A398E4B70F3 MUL PUSH1 0x80 SHR JUMPDEST PUSH2 0x800 DUP3 AND ISZERO PUSH2 0xBDB JUMPI PUSH16 0xE7159475A2C29B7443B29C7FA6E889D9 MUL PUSH1 0x80 SHR JUMPDEST PUSH2 0x1000 DUP3 AND ISZERO PUSH2 0xBFB JUMPI PUSH16 0xD097F3BDFD2022B8845AD8F792AA5825 MUL PUSH1 0x80 SHR JUMPDEST PUSH2 0x2000 DUP3 AND ISZERO PUSH2 0xC1B JUMPI PUSH16 0xA9F746462D870FDF8A65DC1F90E061E5 MUL PUSH1 0x80 SHR JUMPDEST PUSH2 0x4000 DUP3 AND ISZERO PUSH2 0xC3B JUMPI PUSH16 0x70D869A156D2A1B890BB3DF62BAF32F7 MUL PUSH1 0x80 SHR JUMPDEST PUSH2 0x8000 DUP3 AND ISZERO PUSH2 0xC5B JUMPI PUSH16 0x31BE135F97D08FD981231505542FCFA6 MUL PUSH1 0x80 SHR JUMPDEST PUSH3 0x10000 DUP3 AND ISZERO PUSH2 0xC7C JUMPI PUSH16 0x9AA508B5B7A84E1C677DE54F3E99BC9 MUL PUSH1 0x80 SHR JUMPDEST PUSH3 0x20000 DUP3 AND ISZERO PUSH2 0xC9C JUMPI PUSH15 0x5D6AF8DEDB81196699C329225EE604 MUL PUSH1 0x80 SHR JUMPDEST PUSH3 0x40000 DUP3 AND ISZERO PUSH2 0xCBB JUMPI PUSH14 0x2216E584F5FA1EA926041BEDFE98 MUL PUSH1 0x80 SHR JUMPDEST PUSH3 0x80000 DUP3 AND ISZERO PUSH2 0xCD8 JUMPI PUSH12 0x48A170391F7DC42444E8FA2 MUL PUSH1 0x80 SHR JUMPDEST PUSH1 0x0 DUP5 PUSH1 0x2 SIGNEXTEND SGT ISZERO PUSH2 0xCF3 JUMPI DUP1 PUSH1 0x0 NOT DUP2 PUSH2 0xCEF JUMPI INVALID JUMPDEST DIV SWAP1 POP JUMPDEST PUSH5 0x100000000 DUP2 MOD ISZERO PUSH2 0xD07 JUMPI PUSH1 0x1 PUSH2 0xD0A JUMP JUMPDEST PUSH1 0x0 JUMPDEST PUSH1 0xFF AND PUSH1 0x20 DUP3 SWAP1 SHR ADD SWAP3 POP POP POP SWAP2 SWAP1 POP JUMP JUMPDEST PUSH1 0x0 DUP1 DUP1 DUP1 PUSH1 0x1 PUSH1 0x1 PUSH1 0xA0 SHL SUB DUP1 DUP10 AND SWAP1 DUP11 AND LT ISZERO DUP2 DUP8 SLT DUP1 ISZERO SWAP1 PUSH2 0xDA1 JUMPI PUSH1 0x0 PUSH2 0xD55 DUP10 DUP10 PUSH3 0xF4240 SUB PUSH3 0xFFFFFF AND PUSH3 0xF4240 PUSH2 0x1555 JUMP JUMPDEST SWAP1 POP DUP3 PUSH2 0xD6E JUMPI PUSH2 0xD69 DUP13 DUP13 DUP13 PUSH1 0x1 PUSH2 0x1605 JUMP JUMPDEST PUSH2 0xD7B JUMP JUMPDEST PUSH2 0xD7B DUP12 DUP14 DUP13 PUSH1 0x1 PUSH2 0x1680 JUMP JUMPDEST SWAP6 POP DUP6 DUP2 LT PUSH2 0xD8C JUMPI DUP11 SWAP7 POP PUSH2 0xD9B JUMP JUMPDEST PUSH2 0xD98 DUP13 DUP12 DUP4 DUP7 PUSH2 0x172B JUMP JUMPDEST SWAP7 POP JUMPDEST POP PUSH2 0xDEB JUMP JUMPDEST DUP2 PUSH2 0xDB8 JUMPI PUSH2 0xDB3 DUP12 DUP12 DUP12 PUSH1 0x0 PUSH2 0x1680 JUMP JUMPDEST PUSH2 0xDC5 JUMP JUMPDEST PUSH2 0xDC5 DUP11 DUP13 DUP12 PUSH1 0x0 PUSH2 0x1605 JUMP JUMPDEST SWAP4 POP DUP4 DUP9 PUSH1 0x0 SUB LT PUSH2 0xDD9 JUMPI DUP10 SWAP6 POP PUSH2 0xDEB JUMP JUMPDEST PUSH2 0xDE8 DUP12 DUP11 DUP11 PUSH1 0x0 SUB DUP6 PUSH2 0x1777 JUMP JUMPDEST SWAP6 POP JUMPDEST PUSH1 0x1 PUSH1 0x1 PUSH1 0xA0 SHL SUB DUP11 DUP2 AND SWAP1 DUP8 AND EQ DUP3 ISZERO PUSH2 0xE4E JUMPI DUP1 DUP1 ISZERO PUSH2 0xE0A JUMPI POP DUP2 JUMPDEST PUSH2 0xE20 JUMPI PUSH2 0xE1B DUP8 DUP14 DUP13 PUSH1 0x1 PUSH2 0x1680 JUMP JUMPDEST PUSH2 0xE22 JUMP JUMPDEST DUP6 JUMPDEST SWAP6 POP DUP1 DUP1 ISZERO PUSH2 0xE2F JUMPI POP DUP2 ISZERO JUMPDEST PUSH2 0xE45 JUMPI PUSH2 0xE40 DUP8 DUP14 DUP13 PUSH1 0x0 PUSH2 0x1605 JUMP JUMPDEST PUSH2 0xE47 JUMP JUMPDEST DUP5 JUMPDEST SWAP5 POP PUSH2 0xE98 JUMP JUMPDEST DUP1 DUP1 ISZERO PUSH2 0xE58 JUMPI POP DUP2 JUMPDEST PUSH2 0xE6E JUMPI PUSH2 0xE69 DUP13 DUP9 DUP13 PUSH1 0x1 PUSH2 0x1605 JUMP JUMPDEST PUSH2 0xE70 JUMP JUMPDEST DUP6 JUMPDEST SWAP6 POP DUP1 DUP1 ISZERO PUSH2 0xE7D JUMPI POP DUP2 ISZERO JUMPDEST PUSH2 0xE93 JUMPI PUSH2 0xE8E DUP13 DUP9 DUP13 PUSH1 0x0 PUSH2 0x1680 JUMP JUMPDEST PUSH2 0xE95 JUMP JUMPDEST DUP5 JUMPDEST SWAP5 POP JUMPDEST DUP2 ISZERO DUP1 ISZERO PUSH2 0xEA8 JUMPI POP DUP9 PUSH1 0x0 SUB DUP6 GT JUMPDEST ISZERO PUSH2 0xEB4 JUMPI DUP9 PUSH1 0x0 SUB SWAP5 POP JUMPDEST DUP2 DUP1 ISZERO PUSH2 0xED3 JUMPI POP DUP11 PUSH1 0x1 PUSH1 0x1 PUSH1 0xA0 SHL SUB AND DUP8 PUSH1 0x1 PUSH1 0x1 PUSH1 0xA0 SHL SUB AND EQ ISZERO JUMPDEST ISZERO PUSH2 0xEE2 JUMPI DUP6 DUP10 SUB SWAP4 POP PUSH2 0xEFF JUMP JUMPDEST PUSH2 0xEFC DUP7 DUP10 PUSH3 0xFFFFFF AND DUP11 PUSH3 0xF4240 SUB PUSH3 0xFFFFFF AND PUSH2 0x17C3 JUMP JUMPDEST SWAP4 POP JUMPDEST POP POP POP SWAP6 POP SWAP6 POP SWAP6 POP SWAP6 SWAP2 POP POP JUMP JUMPDEST DUP1 DUP3 SUB DUP3 DUP2 SGT ISZERO PUSH1 0x0 DUP4 SLT ISZERO EQ PUSH2 0xF24 JUMPI PUSH1 0x0 DUP1 REVERT JUMPDEST SWAP3 SWAP2 POP POP JUMP JUMPDEST DUP2 DUP2 ADD DUP3 DUP2 SLT ISZERO PUSH1 0x0 DUP4 SLT ISZERO EQ PUSH2 0xF24 JUMPI PUSH1 0x0 DUP1 REVERT JUMPDEST PUSH1 0x0 DUP1 PUSH1 0x0 DUP1 PUSH1 0x0 DUP1 PUSH1 0x0 DUP1 PUSH1 0x0 DUP11 PUSH1 0x1 PUSH1 0x1 PUSH1 0xA0 SHL SUB AND PUSH4 0xF30DBA93 DUP12 PUSH1 0x40 MLOAD DUP3 PUSH4 0xFFFFFFFF AND PUSH1 0xE0 SHL DUP2 MSTORE PUSH1 0x4 ADD PUSH2 0xF7A SWAP2 SWAP1 PUSH2 0x1CDE JUMP JUMPDEST PUSH2 0x100 PUSH1 0x40 MLOAD DUP1 DUP4 SUB DUP2 DUP7 DUP1 EXTCODESIZE ISZERO DUP1 ISZERO PUSH2 0xF93 JUMPI PUSH1 0x0 DUP1 REVERT JUMPDEST POP GAS STATICCALL ISZERO DUP1 ISZERO PUSH2 0xFA7 JUMPI RETURNDATASIZE PUSH1 0x0 DUP1 RETURNDATACOPY RETURNDATASIZE PUSH1 0x0 REVERT JUMPDEST POP POP POP POP PUSH1 0x40 MLOAD RETURNDATASIZE PUSH1 0x1F NOT PUSH1 0x1F DUP3 ADD AND DUP3 ADD DUP1 PUSH1 0x40 MSTORE POP DUP2 ADD SWAP1 PUSH2 0xFCB SWAP2 SWAP1 PUSH2 0x1BDB JUMP JUMPDEST POP SWAP5 SWAP15 POP POP POP POP POP POP POP POP POP POP POP POP POP POP POP SWAP3 SWAP2 POP POP JUMP JUMPDEST PUSH1 0x0 DUP1 DUP3 PUSH1 0xF SIGNEXTEND SLT ISZERO PUSH2 0x1048 JUMPI DUP3 PUSH1 0x1 PUSH1 0x1 PUSH1 0x80 SHL SUB AND DUP3 PUSH1 0x0 SUB DUP5 SUB SWAP2 POP DUP2 PUSH1 0x1 PUSH1 0x1 PUSH1 0x80 SHL SUB AND LT PUSH2 0x1043 JUMPI PUSH1 0x40 DUP1 MLOAD PUSH3 0x461BCD PUSH1 0xE5 SHL DUP2 MSTORE PUSH1 0x20 PUSH1 0x4 DUP3 ADD MSTORE PUSH1 0x2 PUSH1 0x24 DUP3 ADD MSTORE PUSH2 0x4C53 PUSH1 0xF0 SHL PUSH1 0x44 DUP3 ADD MSTORE SWAP1 MLOAD SWAP1 DUP2 SWAP1 SUB PUSH1 0x64 ADD SWAP1 REVERT JUMPDEST PUSH2 0xF24 JUMP JUMPDEST DUP3 PUSH1 0x1 PUSH1 0x1 PUSH1 0x80 SHL SUB AND DUP3 DUP5 ADD SWAP2 POP DUP2 PUSH1 0x1 PUSH1 0x1 PUSH1 0x80 SHL SUB AND LT ISZERO PUSH2 0xF24 JUMPI PUSH1 0x40 DUP1 MLOAD PUSH3 0x461BCD PUSH1 0xE5 SHL DUP2 MSTORE PUSH1 0x20 PUSH1 0x4 DUP3 ADD MSTORE PUSH1 0x2 PUSH1 0x24 DUP3 ADD MSTORE PUSH2 0x4C41 PUSH1 0xF0 SHL PUSH1 0x44 DUP3 ADD MSTORE SWAP1 MLOAD SWAP1 DUP2 SWAP1 SUB PUSH1 0x64 ADD SWAP1 REVERT JUMPDEST PUSH1 0x0 PUSH5 0x1000276A3 PUSH1 0x1 PUSH1 0x1 PUSH1 0xA0 SHL SUB DUP4 AND LT DUP1 ISZERO SWAP1 PUSH2 0x10D5 JUMPI POP PUSH20 0xFFFD8963EFD1FC6A506488495D951D5263988D26 PUSH1 0x1 PUSH1 0x1 PUSH1 0xA0 SHL SUB DUP4 AND LT JUMPDEST PUSH2 0x110A JUMPI PUSH1 0x40 DUP1 MLOAD PUSH3 0x461BCD PUSH1 0xE5 SHL DUP2 MSTORE PUSH1 0x20 PUSH1 0x4 DUP3 ADD MSTORE PUSH1 0x1 PUSH1 0x24 DUP3 ADD MSTORE PUSH1 0x29 PUSH1 0xF9 SHL PUSH1 0x44 DUP3 ADD MSTORE SWAP1 MLOAD SWAP1 DUP2 SWAP1 SUB PUSH1 0x64 ADD SWAP1 REVERT JUMPDEST PUSH5 0x100000000 PUSH1 0x1 PUSH1 0xC0 SHL SUB PUSH1 0x20 DUP4 SWAP1 SHL AND PUSH1 0x1 PUSH1 0x1 PUSH1 0x80 SHL SUB DUP2 GT PUSH1 0x7 SHL DUP2 DUP2 SHR PUSH8 0xFFFFFFFFFFFFFFFF DUP2 GT PUSH1 0x6 SHL SWAP1 DUP2 SHR PUSH4 0xFFFFFFFF DUP2 GT PUSH1 0x5 SHL SWAP1 DUP2 SHR PUSH2 0xFFFF DUP2 GT PUSH1 0x4 SHL SWAP1 DUP2 SHR PUSH1 0xFF DUP2 GT PUSH1 0x3 SWAP1 DUP2 SHL SWAP2 DUP3 SHR PUSH1 0xF DUP2 GT PUSH1 0x2 SHL SWAP1 DUP2 SHR SWAP2 DUP3 GT PUSH1 0x1 SWAP1 DUP2 SHL SWAP3 DUP4 SHR SWAP8 SWAP1 DUP9 GT SWAP7 OR SWAP1 SWAP5 OR SWAP1 SWAP3 OR OR SWAP1 SWAP2 OR OR OR PUSH1 0x80 DUP2 LT PUSH2 0x119E JUMPI PUSH1 0x7F DUP2 SUB DUP4 SWAP1 SHR SWAP2 POP PUSH2 0x11A8 JUMP JUMPDEST DUP1 PUSH1 0x7F SUB DUP4 SWAP1 SHL SWAP2 POP JUMPDEST SWAP1 DUP1 MUL PUSH1 0x7F DUP2 DUP2 SHR PUSH1 0xFF DUP4 DUP2 SHR SWAP2 SWAP1 SWAP2 SHR DUP1 MUL DUP1 DUP4 SHR DUP2 DUP4 SHR SHR DUP1 MUL DUP1 DUP5 SHR DUP2 DUP5 SHR SHR DUP1 MUL DUP1 DUP6 SHR DUP2 DUP6 SHR SHR DUP1 MUL DUP1 DUP7 SHR DUP2 DUP7 SHR SHR DUP1 MUL DUP1 DUP8 SHR DUP2 DUP8 SHR SHR DUP1 MUL DUP1 DUP9 SHR DUP2 DUP9 SHR SHR DUP1 MUL DUP1 DUP10 SHR DUP2 DUP10 SHR SHR DUP1 MUL DUP1 DUP11 SHR DUP2 DUP11 SHR SHR DUP1 MUL DUP1 DUP12 SHR DUP2 DUP12 SHR SHR DUP1 MUL DUP1 DUP13 SHR DUP2 DUP13 SHR SHR DUP1 MUL DUP1 DUP14 SHR DUP2 DUP14 SHR SHR DUP1 MUL DUP1 DUP15 SHR SWAP13 DUP2 SWAP1 SHR SWAP13 SWAP1 SWAP13 SHR DUP1 MUL SWAP13 DUP14 SWAP1 SHR SWAP15 SWAP14 PUSH1 0x7F NOT DUP16 ADD PUSH1 0x40 SHL PUSH1 0xC0 SWAP2 SWAP1 SWAP2 SHR PUSH8 0x8000000000000000 AND OR PUSH1 0xC1 SWAP12 SWAP1 SWAP12 SHR PUSH8 0x4000000000000000 AND SWAP11 SWAP1 SWAP11 OR PUSH1 0xC2 SWAP10 SWAP1 SWAP10 SHR PUSH8 0x2000000000000000 AND SWAP9 SWAP1 SWAP9 OR PUSH1 0xC3 SWAP8 SWAP1 SWAP8 SHR PUSH8 0x1000000000000000 AND SWAP7 SWAP1 SWAP7 OR PUSH1 0xC4 SWAP6 SWAP1 SWAP6 SHR PUSH8 0x800000000000000 AND SWAP5 SWAP1 SWAP5 OR PUSH1 0xC5 SWAP4 SWAP1 SWAP4 SHR PUSH8 0x400000000000000 AND SWAP3 SWAP1 SWAP3 OR PUSH1 0xC6 SWAP2 SWAP1 SWAP2 SHR PUSH8 0x200000000000000 AND OR PUSH1 0xC7 SWAP2 SWAP1 SWAP2 SHR PUSH8 0x100000000000000 AND OR PUSH1 0xC8 SWAP2 SWAP1 SWAP2 SHR PUSH7 0x80000000000000 AND OR PUSH1 0xC9 SWAP2 SWAP1 SWAP2 SHR PUSH7 0x40000000000000 AND OR PUSH1 0xCA SWAP2 SWAP1 SWAP2 SHR PUSH7 0x20000000000000 AND OR PUSH1 0xCB SWAP2 SWAP1 SWAP2 SHR PUSH7 0x10000000000000 AND OR PUSH1 0xCC SWAP2 SWAP1 SWAP2 SHR PUSH7 0x8000000000000 AND OR PUSH1 0xCD SWAP2 SWAP1 SWAP2 SHR PUSH7 0x4000000000000 AND OR PUSH10 0x3627A301D71055774C85 DUP2 MUL PUSH16 0x28F6481AB7F045A5AF012A19D003AA9 NOT DUP2 ADD PUSH1 0x80 SWAP1 DUP2 SAR SWAP1 PUSH16 0xDB2DF09E81959A81455E260799A0632F DUP4 ADD SWAP1 SAR PUSH1 0x2 DUP2 DUP2 SIGNEXTEND SWAP1 DUP4 SWAP1 SIGNEXTEND EQ PUSH2 0x13A9 JUMPI DUP9 PUSH1 0x1 PUSH1 0x1 PUSH1 0xA0 SHL SUB AND PUSH2 0x138D DUP3 PUSH2 0x9EA JUMP JUMPDEST PUSH1 0x1 PUSH1 0x1 PUSH1 0xA0 SHL SUB AND GT ISZERO PUSH2 0x13A2 JUMPI DUP2 PUSH2 0x13A4 JUMP JUMPDEST DUP1 JUMPDEST PUSH2 0x13AB JUMP JUMPDEST DUP2 JUMPDEST SWAP10 SWAP9 POP POP POP POP POP POP POP POP POP JUMP JUMPDEST PUSH1 0x2 SIGNEXTEND PUSH1 0x8 DUP2 SWAP1 SAR SWAP2 PUSH2 0x100 SWAP1 SWAP2 SMOD SWAP1 JUMP JUMPDEST PUSH1 0x0 DUP1 DUP3 GT PUSH2 0x13D8 JUMPI PUSH1 0x0 DUP1 REVERT JUMPDEST PUSH1 0x1 PUSH1 0x80 SHL DUP3 LT PUSH2 0x13EB JUMPI PUSH1 0x80 SWAP2 DUP3 SHR SWAP2 ADD JUMPDEST PUSH9 0x10000000000000000 DUP3 LT PUSH2 0x1403 JUMPI PUSH1 0x40 SWAP2 DUP3 SHR SWAP2 ADD JUMPDEST PUSH5 0x100000000 DUP3 LT PUSH2 0x1417 JUMPI PUSH1 0x20 SWAP2 DUP3 SHR SWAP2 ADD JUMPDEST PUSH3 0x10000 DUP3 LT PUSH2 0x1429 JUMPI PUSH1 0x10 SWAP2 DUP3 SHR SWAP2 ADD JUMPDEST PUSH2 0x100 DUP3 LT PUSH2 0x143A JUMPI PUSH1 0x8 SWAP2 DUP3 SHR SWAP2 ADD JUMPDEST PUSH1 0x10 DUP3 LT PUSH2 0x144A JUMPI PUSH1 0x4 SWAP2 DUP3 SHR SWAP2 ADD JUMPDEST PUSH1 0x4 DUP3 LT PUSH2 0x145A JUMPI PUSH1 0x2 SWAP2 DUP3 SHR SWAP2 ADD JUMPDEST PUSH1 0x2 DUP3 LT PUSH2 0x1466 JUMPI PUSH1 0x1 ADD JUMPDEST SWAP2 SWAP1 POP JUMP JUMPDEST PUSH1 0x0 DUP1 DUP3 GT PUSH2 0x1479 JUMPI PUSH1 0x0 DUP1 REVERT JUMPDEST POP PUSH1 0xFF PUSH1 0x1 PUSH1 0x1 PUSH1 0x80 SHL SUB DUP3 AND ISZERO PUSH2 0x1494 JUMPI PUSH1 0x7F NOT ADD PUSH2 0x149C JUMP JUMPDEST PUSH1 0x80 DUP3 SWAP1 SHR SWAP2 POP JUMPDEST PUSH8 0xFFFFFFFFFFFFFFFF DUP3 AND ISZERO PUSH2 0x14B5 JUMPI PUSH1 0x3F NOT ADD PUSH2 0x14BD JUMP JUMPDEST PUSH1 0x40 DUP3 SWAP1 SHR SWAP2 POP JUMPDEST PUSH4 0xFFFFFFFF DUP3 AND ISZERO PUSH2 0x14D2 JUMPI PUSH1 0x1F NOT ADD PUSH2 0x14DA JUMP JUMPDEST PUSH1 0x20 DUP3 SWAP1 SHR SWAP2 POP JUMPDEST PUSH2 0xFFFF DUP3 AND ISZERO PUSH2 0x14ED JUMPI PUSH1 0xF NOT ADD PUSH2 0x14F5 JUMP JUMPDEST PUSH1 0x10 DUP3 SWAP1 SHR SWAP2 POP JUMPDEST PUSH1 0xFF DUP3 AND ISZERO PUSH2 0x1507 JUMPI PUSH1 0x7 NOT ADD PUSH2 0x150F JUMP JUMPDEST PUSH1 0x8 DUP3 SWAP1 SHR SWAP2 POP JUMPDEST PUSH1 0xF DUP3 AND ISZERO PUSH2 0x1521 JUMPI PUSH1 0x3 NOT ADD PUSH2 0x1529 JUMP JUMPDEST PUSH1 0x4 DUP3 SWAP1 SHR SWAP2 POP JUMPDEST PUSH1 0x3 DUP3 AND ISZERO PUSH2 0x153B JUMPI PUSH1 0x1 NOT ADD PUSH2 0x1543 JUMP JUMPDEST PUSH1 0x2 DUP3 SWAP1 SHR SWAP2 POP JUMPDEST PUSH1 0x1 DUP3 AND ISZERO PUSH2 0x1466 JUMPI PUSH1 0x0 NOT ADD SWAP2 SWAP1 POP JUMP JUMPDEST PUSH1 0x0 DUP1 DUP1 PUSH1 0x0 NOT DUP6 DUP8 MULMOD DUP7 DUP7 MUL SWAP3 POP DUP3 DUP2 LT SWAP1 DUP4 SWAP1 SUB SUB SWAP1 POP DUP1 PUSH2 0x158B JUMPI PUSH1 0x0 DUP5 GT PUSH2 0x1580 JUMPI PUSH1 0x0 DUP1 REVERT JUMPDEST POP DUP3 SWAP1 DIV SWAP1 POP PUSH2 0x15FE JUMP JUMPDEST DUP1 DUP5 GT PUSH2 0x1597 JUMPI PUSH1 0x0 DUP1 REVERT JUMPDEST PUSH1 0x0 DUP5 DUP7 DUP9 MULMOD PUSH1 0x0 DUP7 DUP2 SUB DUP8 AND SWAP7 DUP8 SWAP1 DIV SWAP7 PUSH1 0x2 PUSH1 0x3 DUP10 MUL DUP2 XOR DUP1 DUP11 MUL DUP3 SUB MUL DUP1 DUP11 MUL DUP3 SUB MUL DUP1 DUP11 MUL DUP3 SUB MUL DUP1 DUP11 MUL DUP3 SUB MUL DUP1 DUP11 MUL DUP3 SUB MUL DUP1 DUP11 MUL SWAP1 SWAP2 SUB MUL SWAP2 DUP2 SWAP1 SUB DUP2 SWAP1 DIV PUSH1 0x1 ADD DUP7 DUP5 GT SWAP1 SWAP6 SUB SWAP5 SWAP1 SWAP5 MUL SWAP2 SWAP1 SWAP5 SUB SWAP3 SWAP1 SWAP3 DIV SWAP2 SWAP1 SWAP2 OR SWAP2 SWAP1 SWAP2 MUL SWAP2 POP POP JUMPDEST SWAP4 SWAP3 POP POP POP JUMP JUMPDEST PUSH1 0x0 DUP4 PUSH1 0x1 PUSH1 0x1 PUSH1 0xA0 SHL SUB AND DUP6 PUSH1 0x1 PUSH1 0x1 PUSH1 0xA0 SHL SUB AND GT ISZERO PUSH2 0x1625 JUMPI SWAP3 SWAP4 SWAP3 JUMPDEST DUP2 PUSH2 0x1652 JUMPI PUSH2 0x164D DUP4 PUSH1 0x1 PUSH1 0x1 PUSH1 0x80 SHL SUB AND DUP7 DUP7 SUB PUSH1 0x1 PUSH1 0x1 PUSH1 0xA0 SHL SUB AND PUSH1 0x1 PUSH1 0x60 SHL PUSH2 0x1555 JUMP JUMPDEST PUSH2 0x1675 JUMP JUMPDEST PUSH2 0x1675 DUP4 PUSH1 0x1 PUSH1 0x1 PUSH1 0x80 SHL SUB AND DUP7 DUP7 SUB PUSH1 0x1 PUSH1 0x1 PUSH1 0xA0 SHL SUB AND PUSH1 0x1 PUSH1 0x60 SHL PUSH2 0x17C3 JUMP JUMPDEST SWAP1 POP JUMPDEST SWAP5 SWAP4 POP POP POP POP JUMP JUMPDEST PUSH1 0x0 DUP4 PUSH1 0x1 PUSH1 0x1 PUSH1 0xA0 SHL SUB AND DUP6 PUSH1 0x1 PUSH1 0x1 PUSH1 0xA0 SHL SUB AND GT ISZERO PUSH2 0x16A0 JUMPI SWAP3 SWAP4 SWAP3 JUMPDEST PUSH1 0x1 PUSH1 0x60 SHL PUSH1 0x1 PUSH1 0xE0 SHL SUB PUSH1 0x60 DUP5 SWAP1 SHL AND PUSH1 0x1 PUSH1 0x1 PUSH1 0xA0 SHL SUB DUP7 DUP7 SUB DUP2 AND SWAP1 DUP8 AND PUSH2 0x16CA JUMPI PUSH1 0x0 DUP1 REVERT JUMPDEST DUP4 PUSH2 0x16FA JUMPI DUP7 PUSH1 0x1 PUSH1 0x1 PUSH1 0xA0 SHL SUB AND PUSH2 0x16ED DUP4 DUP4 DUP10 PUSH1 0x1 PUSH1 0x1 PUSH1 0xA0 SHL SUB AND PUSH2 0x1555 JUMP JUMPDEST DUP2 PUSH2 0x16F4 JUMPI INVALID JUMPDEST DIV PUSH2 0x1720 JUMP JUMPDEST PUSH2 0x1720 PUSH2 0x1711 DUP4 DUP4 DUP10 PUSH1 0x1 PUSH1 0x1 PUSH1 0xA0 SHL SUB AND PUSH2 0x17C3 JUMP JUMPDEST DUP9 PUSH1 0x1 PUSH1 0x1 PUSH1 0xA0 SHL SUB AND PUSH2 0x17FD JUMP JUMPDEST SWAP8 SWAP7 POP POP POP POP POP POP POP JUMP JUMPDEST PUSH1 0x0 DUP1 DUP6 PUSH1 0x1 PUSH1 0x1 PUSH1 0xA0 SHL SUB AND GT PUSH2 0x1742 JUMPI PUSH1 0x0 DUP1 REVERT JUMPDEST PUSH1 0x0 DUP5 PUSH1 0x1 PUSH1 0x1 PUSH1 0x80 SHL SUB AND GT PUSH2 0x1758 JUMPI PUSH1 0x0 DUP1 REVERT JUMPDEST DUP2 PUSH2 0x176A JUMPI PUSH2 0x164D DUP6 DUP6 DUP6 PUSH1 0x1 PUSH2 0x1808 JUMP JUMPDEST PUSH2 0x1675 DUP6 DUP6 DUP6 PUSH1 0x1 PUSH2 0x18E9 JUMP JUMPDEST PUSH1 0x0 DUP1 DUP6 PUSH1 0x1 PUSH1 0x1 PUSH1 0xA0 SHL SUB AND GT PUSH2 0x178E JUMPI PUSH1 0x0 DUP1 REVERT JUMPDEST PUSH1 0x0 DUP5 PUSH1 0x1 PUSH1 0x1 PUSH1 0x80 SHL SUB AND GT PUSH2 0x17A4 JUMPI PUSH1 0x0 DUP1 REVERT JUMPDEST DUP2 PUSH2 0x17B6 JUMPI PUSH2 0x164D DUP6 DUP6 DUP6 PUSH1 0x0 PUSH2 0x18E9 JUMP JUMPDEST PUSH2 0x1675 DUP6 DUP6 DUP6 PUSH1 0x0 PUSH2 0x1808 JUMP JUMPDEST PUSH1 0x0 PUSH2 0x17D0 DUP5 DUP5 DUP5 PUSH2 0x1555 JUMP JUMPDEST SWAP1 POP PUSH1 0x0 DUP3 DUP1 PUSH2 0x17DC JUMPI INVALID JUMPDEST DUP5 DUP7 MULMOD GT ISZERO PUSH2 0x15FE JUMPI PUSH1 0x0 NOT DUP2 LT PUSH2 0x17F3 JUMPI PUSH1 0x0 DUP1 REVERT JUMPDEST PUSH1 0x1 ADD SWAP4 SWAP3 POP POP POP JUMP JUMPDEST DUP1 DUP3 DIV SWAP2 MOD ISZERO ISZERO ADD SWAP1 JUMP JUMPDEST PUSH1 0x0 DUP2 ISZERO PUSH2 0x187B JUMPI PUSH1 0x0 PUSH1 0x1 PUSH1 0x1 PUSH1 0xA0 SHL SUB DUP5 GT ISZERO PUSH2 0x183E JUMPI PUSH2 0x1839 DUP5 PUSH1 0x1 PUSH1 0x60 SHL DUP8 PUSH1 0x1 PUSH1 0x1 PUSH1 0x80 SHL SUB AND PUSH2 0x1555 JUMP JUMPDEST PUSH2 0x1856 JUMP JUMPDEST PUSH1 0x1 PUSH1 0x1 PUSH1 0x80 SHL SUB DUP6 AND PUSH1 0x60 DUP6 SWAP1 SHL DUP2 PUSH2 0x1854 JUMPI INVALID JUMPDEST DIV JUMPDEST SWAP1 POP PUSH2 0x1873 PUSH2 0x186E PUSH1 0x1 PUSH1 0x1 PUSH1 0xA0 SHL SUB DUP9 AND DUP4 PUSH2 0x19CC JUMP JUMPDEST PUSH2 0x19DC JUMP JUMPDEST SWAP2 POP POP PUSH2 0x1678 JUMP JUMPDEST PUSH1 0x0 PUSH1 0x1 PUSH1 0x1 PUSH1 0xA0 SHL SUB DUP5 GT ISZERO PUSH2 0x18A9 JUMPI PUSH2 0x18A4 DUP5 PUSH1 0x1 PUSH1 0x60 SHL DUP8 PUSH1 0x1 PUSH1 0x1 PUSH1 0x80 SHL SUB AND PUSH2 0x17C3 JUMP JUMPDEST PUSH2 0x18C0 JUMP JUMPDEST PUSH2 0x18C0 PUSH1 0x60 DUP6 SWAP1 SHL PUSH1 0x1 PUSH1 0x1 PUSH1 0x80 SHL SUB DUP8 AND PUSH2 0x17FD JUMP JUMPDEST SWAP1 POP DUP1 DUP7 PUSH1 0x1 PUSH1 0x1 PUSH1 0xA0 SHL SUB AND GT PUSH2 0x18D7 JUMPI PUSH1 0x0 DUP1 REVERT JUMPDEST PUSH1 0x1 PUSH1 0x1 PUSH1 0xA0 SHL SUB DUP7 AND SUB SWAP1 POP PUSH2 0x1678 JUMP JUMPDEST PUSH1 0x0 DUP3 PUSH2 0x18F7 JUMPI POP DUP4 PUSH2 0x1678 JUMP JUMPDEST PUSH1 0x1 PUSH1 0x60 SHL PUSH1 0x1 PUSH1 0xE0 SHL SUB PUSH1 0x60 DUP6 SWAP1 SHL AND DUP3 ISZERO PUSH2 0x1985 JUMPI PUSH1 0x1 PUSH1 0x1 PUSH1 0xA0 SHL SUB DUP7 AND DUP5 DUP2 MUL SWAP1 DUP6 DUP3 DUP2 PUSH2 0x1925 JUMPI INVALID JUMPDEST DIV EQ ISZERO PUSH2 0x1956 JUMPI DUP2 DUP2 ADD DUP3 DUP2 LT PUSH2 0x1954 JUMPI PUSH2 0x194A DUP4 DUP10 PUSH1 0x1 PUSH1 0x1 PUSH1 0xA0 SHL SUB AND DUP4 PUSH2 0x17C3 JUMP JUMPDEST SWAP4 POP POP POP POP PUSH2 0x1678 JUMP JUMPDEST POP JUMPDEST PUSH2 0x197C DUP3 PUSH2 0x1977 DUP8 DUP11 PUSH1 0x1 PUSH1 0x1 PUSH1 0xA0 SHL SUB AND DUP7 DUP2 PUSH2 0x1970 JUMPI INVALID JUMPDEST DIV SWAP1 PUSH2 0x19CC JUMP JUMPDEST PUSH2 0x17FD JUMP JUMPDEST SWAP3 POP POP POP PUSH2 0x1678 JUMP JUMPDEST PUSH1 0x1 PUSH1 0x1 PUSH1 0xA0 SHL SUB DUP7 AND DUP5 DUP2 MUL SWAP1 DUP6 DUP3 DUP2 PUSH2 0x199C JUMPI INVALID JUMPDEST DIV EQ DUP1 ISZERO PUSH2 0x19A9 JUMPI POP DUP1 DUP3 GT JUMPDEST PUSH2 0x19B2 JUMPI PUSH1 0x0 DUP1 REVERT JUMPDEST DUP1 DUP3 SUB PUSH2 0x194A PUSH2 0x186E DUP5 PUSH1 0x1 PUSH1 0x1 PUSH1 0xA0 SHL SUB DUP12 AND DUP5 PUSH2 0x17C3 JUMP JUMPDEST DUP1 DUP3 ADD DUP3 DUP2 LT ISZERO PUSH2 0xF24 JUMPI PUSH1 0x0 DUP1 REVERT JUMPDEST DUP1 PUSH1 0x1 PUSH1 0x1 PUSH1 0xA0 SHL SUB DUP2 AND DUP2 EQ PUSH2 0x1466 JUMPI PUSH1 0x0 DUP1 REVERT JUMPDEST PUSH1 0x40 DUP1 MLOAD PUSH1 0xE0 DUP2 ADD DUP3 MSTORE PUSH1 0x0 DUP1 DUP3 MSTORE PUSH1 0x20 DUP3 ADD DUP2 SWAP1 MSTORE SWAP2 DUP2 ADD DUP3 SWAP1 MSTORE PUSH1 0x60 DUP2 ADD DUP3 SWAP1 MSTORE PUSH1 0x80 DUP2 ADD DUP3 SWAP1 MSTORE PUSH1 0xA0 DUP2 ADD DUP3 SWAP1 MSTORE PUSH1 0xC0 DUP2 ADD SWAP2 SWAP1 SWAP2 MSTORE SWAP1 JUMP JUMPDEST DUP1 MLOAD PUSH2 0x1466 DUP2 PUSH2 0x1D12 JUMP JUMPDEST DUP1 MLOAD PUSH1 0x2 DUP2 SWAP1 SIGNEXTEND DUP2 EQ PUSH2 0x1466 JUMPI PUSH1 0x0 DUP1 REVERT JUMPDEST DUP1 MLOAD PUSH1 0x1 PUSH1 0x1 PUSH1 0x80 SHL SUB DUP2 AND DUP2 EQ PUSH2 0x1466 JUMPI PUSH1 0x0 DUP1 REVERT JUMPDEST DUP1 MLOAD PUSH2 0x1466 DUP2 PUSH2 0x1CFA JUMP JUMPDEST DUP1 MLOAD PUSH2 0xFFFF DUP2 AND DUP2 EQ PUSH2 0x1466 JUMPI PUSH1 0x0 DUP1 REVERT JUMPDEST DUP1 MLOAD PUSH1 0xFF DUP2 AND DUP2 EQ PUSH2 0x1466 JUMPI PUSH1 0x0 DUP1 REVERT JUMPDEST PUSH1 0x0 PUSH1 0x20 DUP3 DUP5 SUB SLT ISZERO PUSH2 0x1AA1 JUMPI DUP1 DUP2 REVERT JUMPDEST DUP2 MLOAD PUSH2 0x15FE DUP2 PUSH2 0x1CFA JUMP JUMPDEST PUSH1 0x0 DUP1 PUSH1 0x0 DUP1 PUSH1 0x80 DUP6 DUP8 SUB SLT ISZERO PUSH2 0x1AC1 JUMPI DUP3 DUP4 REVERT JUMPDEST DUP5 CALLDATALOAD PUSH2 0x1ACC DUP2 PUSH2 0x1CFA JUMP JUMPDEST SWAP4 POP PUSH1 0x20 DUP6 ADD CALLDATALOAD PUSH2 0x1ADC DUP2 PUSH2 0x1D12 JUMP JUMPDEST SWAP3 POP PUSH1 0x40 DUP6 ADD CALLDATALOAD SWAP2 POP PUSH1 0x60 DUP6 ADD CALLDATALOAD PUSH2 0x1AF3 DUP2 PUSH2 0x1CFA JUMP JUMPDEST SWAP4 SWAP7 SWAP3 SWAP6 POP SWAP1 SWAP4 POP POP JUMP JUMPDEST PUSH1 0x0 PUSH1 0x20 DUP3 DUP5 SUB SLT ISZERO PUSH2 0x1B0F JUMPI DUP1 DUP2 REVERT JUMPDEST PUSH2 0x15FE DUP3 PUSH2 0x1A39 JUMP JUMPDEST PUSH1 0x0 PUSH1 0xE0 DUP3 DUP5 SUB SLT ISZERO PUSH2 0x1B29 JUMPI DUP1 DUP2 REVERT JUMPDEST PUSH1 0x40 MLOAD PUSH1 0xE0 DUP2 ADD DUP2 DUP2 LT PUSH8 0xFFFFFFFFFFFFFFFF DUP3 GT OR ISZERO PUSH2 0x1B46 JUMPI INVALID JUMPDEST PUSH1 0x40 MSTORE PUSH2 0x1B52 DUP4 PUSH2 0x1A62 JUMP JUMPDEST DUP2 MSTORE PUSH2 0x1B60 PUSH1 0x20 DUP5 ADD PUSH2 0x1A39 JUMP JUMPDEST PUSH1 0x20 DUP3 ADD MSTORE PUSH2 0x1B71 PUSH1 0x40 DUP5 ADD PUSH2 0x1A6D JUMP JUMPDEST PUSH1 0x40 DUP3 ADD MSTORE PUSH2 0x1B82 PUSH1 0x60 DUP5 ADD PUSH2 0x1A6D JUMP JUMPDEST PUSH1 0x60 DUP3 ADD MSTORE PUSH2 0x1B93 PUSH1 0x80 DUP5 ADD PUSH2 0x1A6D JUMP JUMPDEST PUSH1 0x80 DUP3 ADD MSTORE PUSH2 0x1BA4 PUSH1 0xA0 DUP5 ADD PUSH2 0x1A7F JUMP JUMPDEST PUSH1 0xA0 DUP3 ADD MSTORE PUSH2 0x1BB5 PUSH1 0xC0 DUP5 ADD PUSH2 0x1A2E JUMP JUMPDEST PUSH1 0xC0 DUP3 ADD MSTORE SWAP4 SWAP3 POP POP POP JUMP JUMPDEST PUSH1 0x0 PUSH1 0x20 DUP3 DUP5 SUB SLT ISZERO PUSH2 0x1BD2 JUMPI DUP1 DUP2 REVERT JUMPDEST PUSH2 0x15FE DUP3 PUSH2 0x1A4B JUMP JUMPDEST PUSH1 0x0 DUP1 PUSH1 0x0 DUP1 PUSH1 0x0 DUP1 PUSH1 0x0 DUP1 PUSH2 0x100 DUP10 DUP12 SUB SLT ISZERO PUSH2 0x1BF7 JUMPI DUP4 DUP5 REVERT JUMPDEST PUSH2 0x1C00 DUP10 PUSH2 0x1A4B JUMP JUMPDEST SWAP8 POP PUSH1 0x20 DUP10 ADD MLOAD DUP1 PUSH1 0xF SIGNEXTEND DUP2 EQ PUSH2 0x1C15 JUMPI DUP5 DUP6 REVERT JUMPDEST DUP1 SWAP8 POP POP PUSH1 0x40 DUP10 ADD MLOAD SWAP6 POP PUSH1 0x60 DUP10 ADD MLOAD SWAP5 POP PUSH1 0x80 DUP10 ADD MLOAD DUP1 PUSH1 0x6 SIGNEXTEND DUP2 EQ PUSH2 0x1C3A JUMPI DUP5 DUP6 REVERT JUMPDEST PUSH1 0xA0 DUP11 ADD MLOAD SWAP1 SWAP5 POP PUSH2 0x1C4B DUP2 PUSH2 0x1CFA JUMP JUMPDEST PUSH1 0xC0 DUP11 ADD MLOAD SWAP1 SWAP4 POP PUSH4 0xFFFFFFFF DUP2 AND DUP2 EQ PUSH2 0x1C64 JUMPI DUP3 DUP4 REVERT JUMPDEST SWAP2 POP PUSH2 0x1C72 PUSH1 0xE0 DUP11 ADD PUSH2 0x1A2E JUMP JUMPDEST SWAP1 POP SWAP3 SWAP6 SWAP9 POP SWAP3 SWAP6 SWAP9 SWAP1 SWAP4 SWAP7 POP JUMP JUMPDEST PUSH1 0x0 PUSH1 0x20 DUP3 DUP5 SUB SLT ISZERO PUSH2 0x1C92 JUMPI DUP1 DUP2 REVERT JUMPDEST DUP2 MLOAD PUSH3 0xFFFFFF DUP2 AND DUP2 EQ PUSH2 0x15FE JUMPI DUP2 DUP3 REVERT JUMPDEST PUSH1 0x0 PUSH1 0x20 DUP3 DUP5 SUB SLT ISZERO PUSH2 0x1CB5 JUMPI DUP1 DUP2 REVERT JUMPDEST POP MLOAD SWAP2 SWAP1 POP JUMP JUMPDEST PUSH1 0x1 PUSH1 0x1 PUSH1 0xA0 SHL SUB SWAP2 SWAP1 SWAP2 AND DUP2 MSTORE PUSH1 0x20 ADD SWAP1 JUMP JUMPDEST PUSH1 0x1 SWAP2 SWAP1 SWAP2 SIGNEXTEND DUP2 MSTORE PUSH1 0x20 ADD SWAP1 JUMP JUMPDEST PUSH1 0x2 SWAP2 SWAP1 SWAP2 SIGNEXTEND DUP2 MSTORE PUSH1 0x20 ADD SWAP1 JUMP JUMPDEST SWAP2 DUP3 MSTORE PUSH1 0x20 DUP3 ADD MSTORE PUSH1 0x40 ADD SWAP1 JUMP JUMPDEST PUSH1 0x1 PUSH1 0x1 PUSH1 0xA0 SHL SUB DUP2 AND DUP2 EQ PUSH2 0x1D0F JUMPI PUSH1 0x0 DUP1 REVERT JUMPDEST POP JUMP JUMPDEST DUP1 ISZERO ISZERO DUP2 EQ PUSH2 0x1D0F JUMPI PUSH1 0x0 DUP1 REVERT INVALID LOG2 PUSH5 0x6970667358 0x22 SLT KECCAK256 PUSH9 0x92C23CC160B59038DA EXTCODECOPY DUP14 0x2E 0xAB SLOAD 0xCA MSTORE8 DIV 0xAA PUSH6 0x9E0E1BE74486 SSTORE SWAP11 0xD8 0xC1 0xC4 MLOAD PUSH5 0x736F6C6343 STOP SMOD MOD STOP CALLER ",
  "sha1": "a69194f51463e6ae423519e437394a70675bdd5e",
  "source": "pragma solidity 0.7.6;\npragma abicoder v2;\n\nimport \"./TickMath.sol\";\nimport \"./BitMath.sol\";\nimport \"./TickBitmap.sol\";\nimport \"./SwapMath.sol\";\nimport \"./FullMath.sol\";\nimport \"./SqrtPriceMath.sol\";\nimport \"./LiquidityMath.sol\";\nimport \"./LowGasSafeMath.sol\";\nimport \"./SafeCast.sol\";\n\n\ninterface IERC20 {\n    function balanceOf(address account) external view returns (uint256);\n}\n\n\ninterface IUniswapV3Pool {\n\n    struct Slot0 {\n         uint160 sqrtPriceX96;\n         int24 tick;\n         uint16 observationIndex;\n         uint16 observationCardinality;\n         uint16 observationCardinalityNext;\n         uint8 feeProtocol;\n         bool unlocked;\n    }\n\n    function slot0() external view returns (Slot0 memory s0);\n    function liquidity() external view returns (uint128);\n    function ticks(int24 tick) external view returns (\n\t\t\t\t\t\t      uint128 liquidityGross,\n\t\t\t\t\t\t      int128 liquidityNet,\n\t\t\t\t\t\t      uint256 feeGrowthOutside0X128,\n\t\t\t\t\t\t      uint256 feeGrowthOutside1X128,\n\t\t\t\t\t\t      int56 tickCumulativeOutside,\n\t\t\t\t\t\t      uint160 secondsPerLiquidityOutsideX128,\n\t\t\t\t\t\t      uint32 secondsOutside,\n\t\t\t\t\t\t      bool initialized\n\t\t\t\t\t\t      );\n    function tickBitmap(int16 wordPosition) external view returns (uint256);\n    function tickSpacing() external view returns (int24);\n    function fee() external view returns (uint24);\n    function token0() external view returns (address);\n    function token1() external view returns (address);\n}\n\ncontract UniV3Calc {\n\n    function position(int24 tick) private pure returns (int16 wordPos, uint8 bitPos) {\n        wordPos = int16(tick >> 8);\n        bitPos = uint8(tick % 256);\n    }\n\n    function nextInitializedTickWithinOneWord(\n\t\t\t\t\t      address _pool,\n\t\t\t\t\t      int24 tick,\n\t\t\t\t\t      bool lte\n\t\t\t\t\t      ) private view returns (int24 next, bool initialized) {\n\tIUniswapV3Pool pool = IUniswapV3Pool(_pool);\n\tint24 tickSpacing = pool.tickSpacing();\n        int24 compressed = tick / tickSpacing;\n        if (tick < 0 && tick % tickSpacing != 0) compressed--; // round towards negative infinity\n\n        if (lte) {\n            (int16 wordPos, uint8 bitPos) = position(compressed);\n            // all the 1s at or to the right of the current bitPos\n            uint256 mask = (1 << bitPos) - 1 + (1 << bitPos);\n            uint256 masked = pool.tickBitmap(wordPos) & mask;\n\n            // if there are no initialized ticks to the right of or at the current tick, return rightmost in the word\n            initialized = masked != 0;\n            // overflow/underflow is possible, but prevented externally by limiting both tickSpacing and tick\n            next = initialized\n                ? (compressed - int24(bitPos - BitMath.mostSignificantBit(masked))) * tickSpacing\n                : (compressed - int24(bitPos)) * tickSpacing;\n        } else {\n            // start from the word of the next tick, since the current tick state doesn't matter\n            (int16 wordPos, uint8 bitPos) = position(compressed + 1);\n            // all the 1s at or to the left of the bitPos\n            uint256 mask = ~((1 << bitPos) - 1);\n            uint256 masked = pool.tickBitmap(wordPos) & mask;\n\n            // if there are no initialized ticks to the left of the current tick, return leftmost in the word\n            initialized = masked != 0;\n            // overflow/underflow is possible, but prevented externally by limiting both tickSpacing and tick\n            next = initialized\n                ? (compressed + 1 + int24(BitMath.leastSignificantBit(masked) - bitPos)) * tickSpacing\n                : (compressed + 1 + int24(type(uint8).max - bitPos)) * tickSpacing;\n        }\n    }\n\n    function _liqNet(IUniswapV3Pool pool, int24 _tickNext) private view returns (int128) {\n\tuint128 liquidityGross;\n\tint128 liquidityNet;\n\tuint256 feeGrowthOutside0X128;\n\tuint256 feeGrowthOutside1X128;\n\tint56 tickCumulativeOutside;\n\tuint160 secondsPerLiquidityOutsideX128;\n\tuint32 secondsOutside;\n\tbool initialized;\n\t\t    \n\t\t    \n\t(liquidityGross, liquidityNet, feeGrowthOutside0X128, feeGrowthOutside1X128, tickCumulativeOutside, secondsPerLiquidityOutsideX128, secondsOutside, initialized) =  pool.ticks(_tickNext);\n\treturn liquidityNet;\n    }\n\n\n    // the top level state of the swap, the results of which are recorded in storage at the end\n    struct SwapState {\n        // the amount remaining to be swapped in/out of the input/output asset\n        int256 amountSpecifiedRemaining;\n        // the amount already swapped out/in of the output/input asset\n        int256 amountCalculated;\n        // current sqrt(price)\n        uint160 sqrtPriceX96;\n        // the tick associated with the current price\n        int24 tick;\n        // the global fee growth of the input token\n        // amount of input token paid as protocol fee\n        uint128 protocolFee;\n        // the current liquidity in range\n        uint128 liquidity;\n    }\n\n    struct StepComputations {\n        // the price at the beginning of the step\n        uint160 sqrtPriceStartX96;\n        // the next tick to swap to from the current tick in the swap direction\n        int24 tickNext;\n        // whether tickNext is initialized or not\n        bool initialized;\n        // sqrt(price) for the next tick (1/0)\n        uint160 sqrtPriceNextX96;\n        // how much is being swapped in in this step\n        uint256 amountIn;\n        // how much is being swapped out\n        uint256 amountOut;\n        // how much fee is being paid in\n        uint256 feeAmount;\n    }\n    using LowGasSafeMath for uint256;\n    using LowGasSafeMath for int256;\n    using SafeCast for uint256;\n    using SafeCast for int256;\n\n    function calc_v3_swap(\n\t\t  address _pool,\n\t\t  bool zeroForOne,\n\t\t  int256 amountSpecified,\n\t\t  uint160 sqrtPriceLimitX96\n\t\t  ) public view returns (int256 amount0, int256 amount1) {\n        require(amountSpecified != 0);\n\n\tIUniswapV3Pool pool = IUniswapV3Pool(_pool);\n\tuint24 fee = pool.fee();\n\t\n        IUniswapV3Pool.Slot0 memory slot0Start = pool.slot0() ;\n\n        require(slot0Start.unlocked);\n        require(\n            zeroForOne\n                ? sqrtPriceLimitX96 < slot0Start.sqrtPriceX96 && sqrtPriceLimitX96 > TickMath.MIN_SQRT_RATIO\n                : sqrtPriceLimitX96 > slot0Start.sqrtPriceX96 && sqrtPriceLimitX96 < TickMath.MAX_SQRT_RATIO\n        );\n\n        bool exactInput = amountSpecified > 0;\n\n        SwapState memory state =\n            SwapState({\n                amountSpecifiedRemaining: amountSpecified,\n                amountCalculated: 0,\n                sqrtPriceX96: slot0Start.sqrtPriceX96,\n                tick: slot0Start.tick,\n                protocolFee: 0,\n                liquidity: pool.liquidity()\n            });\n\n        // continue swapping as long as we haven't used the entire input/output and haven't reached the price limit\n        while (state.amountSpecifiedRemaining != 0 && state.sqrtPriceX96 != sqrtPriceLimitX96) {\n            StepComputations memory step;\n\n            step.sqrtPriceStartX96 = state.sqrtPriceX96;\n\t    // replace this with function call \n            (step.tickNext, step.initialized) = nextInitializedTickWithinOneWord(\n\t\t\t\t\t\t\t\t\t\t _pool,\n\t\t\t\t\t\t\t\t\t\t state.tick,\n\t\t\t\t\t\t\t\t\t\t zeroForOne\n            );\n\n            // ensure that we do not overshoot the min/max tick, as the tick bitmap is not aware of these bounds\n            if (step.tickNext < TickMath.MIN_TICK) {\n                step.tickNext = TickMath.MIN_TICK;\n            } else if (step.tickNext > TickMath.MAX_TICK) {\n                step.tickNext = TickMath.MAX_TICK;\n            }\n\n            // get the price for the next tick\n            step.sqrtPriceNextX96 = TickMath.getSqrtRatioAtTick(step.tickNext);\n\n            // compute values to swap to the target tick, price limit, or point where input/output amount is exhausted\n            (state.sqrtPriceX96, step.amountIn, step.amountOut, step.feeAmount) = SwapMath.computeSwapStep(\n                state.sqrtPriceX96,\n                (zeroForOne ? step.sqrtPriceNextX96 < sqrtPriceLimitX96 : step.sqrtPriceNextX96 > sqrtPriceLimitX96)\n                    ? sqrtPriceLimitX96\n                    : step.sqrtPriceNextX96,\n                state.liquidity,\n                state.amountSpecifiedRemaining,\n                fee\n            );\n\n            if (exactInput) {\n                state.amountSpecifiedRemaining -= int256(step.amountIn + step.feeAmount);\n                state.amountCalculated = state.amountCalculated.sub(int256(step.amountOut));\n            } else {\n                state.amountSpecifiedRemaining += int256(step.amountOut);\n                state.amountCalculated = state.amountCalculated.add(int256(step.amountIn + step.feeAmount));\n            }\n\n            // shift tick if we reached the next price\n            if (state.sqrtPriceX96 == step.sqrtPriceNextX96) {\n                // if the tick is initialized, run the tick transition\n                if (step.initialized) {\n\n\t\t    int128 liquidityNet = _liqNet(pool, step.tickNext);\n                    // if we're moving leftward, we interpret liquidityNet as the opposite sign\n                    // safe because liquidityNet cannot be type(int128).min\n                    if (zeroForOne) liquidityNet = -liquidityNet;\n\n                    state.liquidity = LiquidityMath.addDelta(state.liquidity, liquidityNet);\n                }\n\n                state.tick = zeroForOne ? step.tickNext - 1 : step.tickNext;\n            } else if (state.sqrtPriceX96 != step.sqrtPriceStartX96) {\n                // recompute unless we're on a lower tick boundary (i.e. already transitioned ticks), and haven't moved\n                state.tick = TickMath.getTickAtSqrtRatio(state.sqrtPriceX96);\n            }\n        }\n\n\t\n        (amount0, amount1) = zeroForOne == exactInput\n            ? (amountSpecified - state.amountSpecifiedRemaining, state.amountCalculated)\n            : (state.amountCalculated, amountSpecified - state.amountSpecifiedRemaining);\n\n\n\tif (zeroForOne) {\n\t    require(uint256(amount1 * -1) < IERC20(pool.token1()).balanceOf(address(this)));\n\t} else {\n\t    require(uint256(amount0 * -1) < IERC20(pool.token0()).balanceOf(address(this)));\n\t}\n\t\n    }\n    \n}\n",
  "sourcePath": "contracts/univ3calc.sol",
  "type": "contract"
}